{
	"contracts/5_Enquetes.sol": {
		"Enquete": {
			"abi": [
				{
					"anonymous": false,
					"inputs": [
						{
							"indexed": false,
							"internalType": "uint256",
							"name": "idEnquete",
							"type": "uint256"
						},
						{
							"indexed": false,
							"internalType": "string",
							"name": "titulo",
							"type": "string"
						},
						{
							"indexed": false,
							"internalType": "address",
							"name": "criador",
							"type": "address"
						}
					],
					"name": "enqueteCriada",
					"type": "event"
				},
				{
					"anonymous": false,
					"inputs": [
						{
							"indexed": false,
							"internalType": "uint256",
							"name": "idEnquete",
							"type": "uint256"
						},
						{
							"indexed": false,
							"internalType": "address",
							"name": "criador",
							"type": "address"
						}
					],
					"name": "enqueteEncerrada",
					"type": "event"
				},
				{
					"anonymous": false,
					"inputs": [
						{
							"indexed": false,
							"internalType": "uint256",
							"name": "idEnquete",
							"type": "uint256"
						},
						{
							"indexed": false,
							"internalType": "uint256",
							"name": "indiceOpcao",
							"type": "uint256"
						},
						{
							"indexed": false,
							"internalType": "address",
							"name": "votante",
							"type": "address"
						}
					],
					"name": "votoRegistrado",
					"type": "event"
				},
				{
					"inputs": [
						{
							"internalType": "string",
							"name": "_titulo",
							"type": "string"
						},
						{
							"internalType": "string[]",
							"name": "_opcoes",
							"type": "string[]"
						}
					],
					"name": "criarEnquete",
					"outputs": [],
					"stateMutability": "nonpayable",
					"type": "function"
				},
				{
					"inputs": [
						{
							"internalType": "uint256",
							"name": "_idEnquete",
							"type": "uint256"
						}
					],
					"name": "encerrarEnquete",
					"outputs": [],
					"stateMutability": "nonpayable",
					"type": "function"
				},
				{
					"inputs": [
						{
							"internalType": "uint256",
							"name": "",
							"type": "uint256"
						}
					],
					"name": "enquetes",
					"outputs": [
						{
							"internalType": "string",
							"name": "titulo",
							"type": "string"
						},
						{
							"internalType": "address",
							"name": "criador",
							"type": "address"
						},
						{
							"internalType": "bool",
							"name": "ativa",
							"type": "bool"
						}
					],
					"stateMutability": "view",
					"type": "function"
				},
				{
					"inputs": [
						{
							"internalType": "uint256",
							"name": "_idEnquete",
							"type": "uint256"
						}
					],
					"name": "obterEnquete",
					"outputs": [
						{
							"internalType": "string",
							"name": "titulo",
							"type": "string"
						},
						{
							"internalType": "bool",
							"name": "ativa",
							"type": "bool"
						},
						{
							"internalType": "string[]",
							"name": "nomesOpcoes",
							"type": "string[]"
						},
						{
							"internalType": "uint256[]",
							"name": "votosOpcoes",
							"type": "uint256[]"
						}
					],
					"stateMutability": "view",
					"type": "function"
				},
				{
					"inputs": [
						{
							"internalType": "uint256",
							"name": "_idEnquete",
							"type": "uint256"
						},
						{
							"internalType": "uint256",
							"name": "_indiceOpcao",
							"type": "uint256"
						}
					],
					"name": "votar",
					"outputs": [],
					"stateMutability": "nonpayable",
					"type": "function"
				}
			],
			"devdoc": {
				"kind": "dev",
				"methods": {},
				"version": 1
			},
			"evm": {
				"assembly": "    /* \"contracts/5_Enquetes.sol\":57:3017  contract Enquete {... */\n  mstore(0x40, 0x80)\n  callvalue\n  dup1\n  iszero\n  tag_1\n  jumpi\n  0x00\n  dup1\n  revert\ntag_1:\n  pop\n  dataSize(sub_0)\n  dup1\n  dataOffset(sub_0)\n  0x00\n  codecopy\n  0x00\n  return\nstop\n\nsub_0: assembly {\n        /* \"contracts/5_Enquetes.sol\":57:3017  contract Enquete {... */\n      mstore(0x40, 0x80)\n      callvalue\n      dup1\n      iszero\n      tag_1\n      jumpi\n      0x00\n      dup1\n      revert\n    tag_1:\n      pop\n      jumpi(tag_2, lt(calldatasize, 0x04))\n      shr(0xe0, calldataload(0x00))\n      dup1\n      0x12038bdb\n      eq\n      tag_3\n      jumpi\n      dup1\n      0x38628855\n      eq\n      tag_4\n      jumpi\n      dup1\n      0x4eb474f8\n      eq\n      tag_5\n      jumpi\n      dup1\n      0x4fa5a16f\n      eq\n      tag_6\n      jumpi\n      dup1\n      0xc24d551c\n      eq\n      tag_7\n      jumpi\n    tag_2:\n      0x00\n      dup1\n      revert\n        /* \"contracts/5_Enquetes.sol\":1952:2328  function encerrarEnquete(uint256 _idEnquete) external {... */\n    tag_3:\n      tag_8\n      0x04\n      dup1\n      calldatasize\n      sub\n      dup2\n      add\n      swap1\n      tag_9\n      swap2\n      swap1\n      tag_10\n      jump\t// in\n    tag_9:\n      tag_11\n      jump\t// in\n    tag_8:\n      stop\n        /* \"contracts/5_Enquetes.sol\":2334:3015  function obterEnquete(uint256 _idEnquete) external view returns (... */\n    tag_4:\n      tag_12\n      0x04\n      dup1\n      calldatasize\n      sub\n      dup2\n      add\n      swap1\n      tag_13\n      swap2\n      swap1\n      tag_10\n      jump\t// in\n    tag_13:\n      tag_14\n      jump\t// in\n    tag_12:\n      mload(0x40)\n      tag_15\n      swap5\n      swap4\n      swap3\n      swap2\n      swap1\n      tag_16\n      jump\t// in\n    tag_15:\n      mload(0x40)\n      dup1\n      swap2\n      sub\n      swap1\n      return\n        /* \"contracts/5_Enquetes.sol\":335:383  mapping (uint256 => EnqueteInfo) public enquetes */\n    tag_5:\n      tag_17\n      0x04\n      dup1\n      calldatasize\n      sub\n      dup2\n      add\n      swap1\n      tag_18\n      swap2\n      swap1\n      tag_10\n      jump\t// in\n    tag_18:\n      tag_19\n      jump\t// in\n    tag_17:\n      mload(0x40)\n      tag_20\n      swap4\n      swap3\n      swap2\n      swap1\n      tag_21\n      jump\t// in\n    tag_20:\n      mload(0x40)\n      dup1\n      swap2\n      sub\n      swap1\n      return\n        /* \"contracts/5_Enquetes.sol\":1429:1946  function votar(uint256 _idEnquete, uint256 _indiceOpcao) external {... */\n    tag_6:\n      tag_22\n      0x04\n      dup1\n      calldatasize\n      sub\n      dup2\n      add\n      swap1\n      tag_23\n      swap2\n      swap1\n      tag_24\n      jump\t// in\n    tag_23:\n      tag_25\n      jump\t// in\n    tag_22:\n      stop\n        /* \"contracts/5_Enquetes.sol\":762:1423  function criarEnquete(string memory _titulo, string[] memory _opcoes) external... */\n    tag_7:\n      tag_26\n      0x04\n      dup1\n      calldatasize\n      sub\n      dup2\n      add\n      swap1\n      tag_27\n      swap2\n      swap1\n      tag_28\n      jump\t// in\n    tag_27:\n      tag_29\n      jump\t// in\n    tag_26:\n      stop\n        /* \"contracts/5_Enquetes.sol\":1952:2328  function encerrarEnquete(uint256 _idEnquete) external {... */\n    tag_11:\n        /* \"contracts/5_Enquetes.sol\":2016:2043  EnqueteInfo storage enquete */\n      0x00\n        /* \"contracts/5_Enquetes.sol\":2046:2054  enquetes */\n      dup1\n        /* \"contracts/5_Enquetes.sol\":2046:2066  enquetes[_idEnquete] */\n      0x00\n        /* \"contracts/5_Enquetes.sol\":2055:2065  _idEnquete */\n      dup4\n        /* \"contracts/5_Enquetes.sol\":2046:2066  enquetes[_idEnquete] */\n      dup2\n      mstore\n      0x20\n      add\n      swap1\n      dup2\n      mstore\n      0x20\n      add\n      0x00\n      keccak256\n        /* \"contracts/5_Enquetes.sol\":2016:2066  EnqueteInfo storage enquete = enquetes[_idEnquete] */\n      swap1\n      pop\n        /* \"contracts/5_Enquetes.sol\":2084:2091  enquete */\n      dup1\n        /* \"contracts/5_Enquetes.sol\":2084:2097  enquete.ativa */\n      0x01\n      add\n      0x14\n      swap1\n      sload\n      swap1\n      0x0100\n      exp\n      swap1\n      div\n      0xff\n      and\n        /* \"contracts/5_Enquetes.sol\":2076:2133  require(enquete.ativa, unicode\"Enquete ja foi encerrada\") */\n      tag_31\n      jumpi\n      mload(0x40)\n      0x08c379a000000000000000000000000000000000000000000000000000000000\n      dup2\n      mstore\n      0x04\n      add\n      tag_32\n      swap1\n      tag_33\n      jump\t// in\n    tag_32:\n      mload(0x40)\n      dup1\n      swap2\n      sub\n      swap1\n      revert\n    tag_31:\n        /* \"contracts/5_Enquetes.sol\":2170:2180  msg.sender */\n      caller\n        /* \"contracts/5_Enquetes.sol\":2151:2180  enquete.criador == msg.sender */\n      0xffffffffffffffffffffffffffffffffffffffff\n      and\n        /* \"contracts/5_Enquetes.sol\":2151:2158  enquete */\n      dup2\n        /* \"contracts/5_Enquetes.sol\":2151:2166  enquete.criador */\n      0x01\n      add\n      0x00\n      swap1\n      sload\n      swap1\n      0x0100\n      exp\n      swap1\n      div\n      0xffffffffffffffffffffffffffffffffffffffff\n      and\n        /* \"contracts/5_Enquetes.sol\":2151:2180  enquete.criador == msg.sender */\n      0xffffffffffffffffffffffffffffffffffffffff\n      and\n      eq\n        /* \"contracts/5_Enquetes.sol\":2143:2233  require(enquete.criador == msg.sender, unicode\"Somente o criador pode encerrar a enquete\") */\n      tag_34\n      jumpi\n      mload(0x40)\n      0x08c379a000000000000000000000000000000000000000000000000000000000\n      dup2\n      mstore\n      0x04\n      add\n      tag_35\n      swap1\n      tag_36\n      jump\t// in\n    tag_35:\n      mload(0x40)\n      dup1\n      swap2\n      sub\n      swap1\n      revert\n    tag_34:\n        /* \"contracts/5_Enquetes.sol\":2260:2265  false */\n      0x00\n        /* \"contracts/5_Enquetes.sol\":2244:2251  enquete */\n      dup2\n        /* \"contracts/5_Enquetes.sol\":2244:2257  enquete.ativa */\n      0x01\n      add\n      0x14\n        /* \"contracts/5_Enquetes.sol\":2244:2265  enquete.ativa = false */\n      0x0100\n      exp\n      dup2\n      sload\n      dup2\n      0xff\n      mul\n      not\n      and\n      swap1\n      dup4\n      iszero\n      iszero\n      mul\n      or\n      swap1\n      sstore\n      pop\n        /* \"contracts/5_Enquetes.sol\":2281:2321  enqueteEncerrada(_idEnquete, msg.sender) */\n      0x393580696b4731499ad32b6990b4f364566f68cd50da863ebedb09d8242f5b16\n        /* \"contracts/5_Enquetes.sol\":2298:2308  _idEnquete */\n      dup3\n        /* \"contracts/5_Enquetes.sol\":2310:2320  msg.sender */\n      caller\n        /* \"contracts/5_Enquetes.sol\":2281:2321  enqueteEncerrada(_idEnquete, msg.sender) */\n      mload(0x40)\n      tag_37\n      swap3\n      swap2\n      swap1\n      tag_38\n      jump\t// in\n    tag_37:\n      mload(0x40)\n      dup1\n      swap2\n      sub\n      swap1\n      log1\n        /* \"contracts/5_Enquetes.sol\":2006:2328  {... */\n      pop\n        /* \"contracts/5_Enquetes.sol\":1952:2328  function encerrarEnquete(uint256 _idEnquete) external {... */\n      pop\n      jump\t// out\n        /* \"contracts/5_Enquetes.sol\":2334:3015  function obterEnquete(uint256 _idEnquete) external view returns (... */\n    tag_14:\n        /* \"contracts/5_Enquetes.sol\":2408:2428  string memory titulo */\n      0x60\n        /* \"contracts/5_Enquetes.sol\":2438:2448  bool ativa */\n      0x00\n        /* \"contracts/5_Enquetes.sol\":2458:2485  string[] memory nomesOpcoes */\n      0x60\n        /* \"contracts/5_Enquetes.sol\":2495:2523  uint256[] memory votosOpcoes */\n      dup1\n        /* \"contracts/5_Enquetes.sol\":2540:2567  EnqueteInfo storage enquete */\n      0x00\n        /* \"contracts/5_Enquetes.sol\":2570:2578  enquetes */\n      dup1\n        /* \"contracts/5_Enquetes.sol\":2570:2590  enquetes[_idEnquete] */\n      0x00\n        /* \"contracts/5_Enquetes.sol\":2579:2589  _idEnquete */\n      dup8\n        /* \"contracts/5_Enquetes.sol\":2570:2590  enquetes[_idEnquete] */\n      dup2\n      mstore\n      0x20\n      add\n      swap1\n      dup2\n      mstore\n      0x20\n      add\n      0x00\n      keccak256\n        /* \"contracts/5_Enquetes.sol\":2540:2590  EnqueteInfo storage enquete = enquetes[_idEnquete] */\n      swap1\n      pop\n        /* \"contracts/5_Enquetes.sol\":2601:2620  uint256 totalOpcoes */\n      0x00\n        /* \"contracts/5_Enquetes.sol\":2623:2630  enquete */\n      dup2\n        /* \"contracts/5_Enquetes.sol\":2623:2637  enquete.opcoes */\n      0x02\n      add\n        /* \"contracts/5_Enquetes.sol\":2623:2644  enquete.opcoes.length */\n      dup1\n      sload\n      swap1\n      pop\n        /* \"contracts/5_Enquetes.sol\":2601:2644  uint256 totalOpcoes = enquete.opcoes.length */\n      swap1\n      pop\n        /* \"contracts/5_Enquetes.sol\":2681:2692  totalOpcoes */\n      dup1\n        /* \"contracts/5_Enquetes.sol\":2668:2693  new string[](totalOpcoes) */\n      0xffffffffffffffff\n      dup2\n      gt\n      iszero\n      tag_40\n      jumpi\n      tag_41\n      tag_42\n      jump\t// in\n    tag_41:\n    tag_40:\n      mload(0x40)\n      swap1\n      dup1\n      dup3\n      mstore\n      dup1\n      0x20\n      mul\n      0x20\n      add\n      dup3\n      add\n      0x40\n      mstore\n      dup1\n      iszero\n      tag_43\n      jumpi\n      dup2\n      0x20\n      add\n    tag_44:\n      0x60\n      dup2\n      mstore\n      0x20\n      add\n      swap1\n      0x01\n      swap1\n      sub\n      swap1\n      dup2\n      tag_44\n      jumpi\n      swap1\n      pop\n    tag_43:\n      pop\n        /* \"contracts/5_Enquetes.sol\":2654:2693  nomesOpcoes = new string[](totalOpcoes) */\n      swap4\n      pop\n        /* \"contracts/5_Enquetes.sol\":2731:2742  totalOpcoes */\n      dup1\n        /* \"contracts/5_Enquetes.sol\":2717:2743  new uint256[](totalOpcoes) */\n      0xffffffffffffffff\n      dup2\n      gt\n      iszero\n      tag_45\n      jumpi\n      tag_46\n      tag_42\n      jump\t// in\n    tag_46:\n    tag_45:\n      mload(0x40)\n      swap1\n      dup1\n      dup3\n      mstore\n      dup1\n      0x20\n      mul\n      0x20\n      add\n      dup3\n      add\n      0x40\n      mstore\n      dup1\n      iszero\n      tag_47\n      jumpi\n      dup2\n      0x20\n      add\n      0x20\n      dup3\n      mul\n      dup1\n      calldatasize\n      dup4\n      calldatacopy\n      dup1\n      dup3\n      add\n      swap2\n      pop\n      pop\n      swap1\n      pop\n    tag_47:\n      pop\n        /* \"contracts/5_Enquetes.sol\":2703:2743  votosOpcoes = new uint256[](totalOpcoes) */\n      swap3\n      pop\n        /* \"contracts/5_Enquetes.sol\":2759:2768  uint256 i */\n      0x00\n        /* \"contracts/5_Enquetes.sol\":2754:2933  for (uint256 i = 0; i < totalOpcoes; i++ )... */\n    tag_48:\n        /* \"contracts/5_Enquetes.sol\":2778:2789  totalOpcoes */\n      dup2\n        /* \"contracts/5_Enquetes.sol\":2774:2775  i */\n      dup2\n        /* \"contracts/5_Enquetes.sol\":2774:2789  i < totalOpcoes */\n      lt\n        /* \"contracts/5_Enquetes.sol\":2754:2933  for (uint256 i = 0; i < totalOpcoes; i++ )... */\n      iszero\n      tag_49\n      jumpi\n        /* \"contracts/5_Enquetes.sol\":2836:2843  enquete */\n      dup3\n        /* \"contracts/5_Enquetes.sol\":2836:2850  enquete.opcoes */\n      0x02\n      add\n        /* \"contracts/5_Enquetes.sol\":2851:2852  i */\n      dup2\n        /* \"contracts/5_Enquetes.sol\":2836:2853  enquete.opcoes[i] */\n      dup2\n      sload\n      dup2\n      lt\n      tag_51\n      jumpi\n      tag_52\n      tag_53\n      jump\t// in\n    tag_52:\n    tag_51:\n      swap1\n      0x00\n      mstore\n      keccak256(0x00, 0x20)\n      swap1\n      0x02\n      mul\n      add\n        /* \"contracts/5_Enquetes.sol\":2836:2863  enquete.opcoes[i].descricao */\n      0x00\n      add\n        /* \"contracts/5_Enquetes.sol\":2819:2863  nomesOpcoes[i] = enquete.opcoes[i].descricao */\n      dup1\n      sload\n      tag_55\n      swap1\n      tag_56\n      jump\t// in\n    tag_55:\n      dup1\n      0x1f\n      add\n      0x20\n      dup1\n      swap2\n      div\n      mul\n      0x20\n      add\n      mload(0x40)\n      swap1\n      dup2\n      add\n      0x40\n      mstore\n      dup1\n      swap3\n      swap2\n      swap1\n      dup2\n      dup2\n      mstore\n      0x20\n      add\n      dup3\n      dup1\n      sload\n      tag_57\n      swap1\n      tag_56\n      jump\t// in\n    tag_57:\n      dup1\n      iszero\n      tag_58\n      jumpi\n      dup1\n      0x1f\n      lt\n      tag_59\n      jumpi\n      0x0100\n      dup1\n      dup4\n      sload\n      div\n      mul\n      dup4\n      mstore\n      swap2\n      0x20\n      add\n      swap2\n      jump(tag_58)\n    tag_59:\n      dup3\n      add\n      swap2\n      swap1\n      0x00\n      mstore\n      keccak256(0x00, 0x20)\n      swap1\n    tag_60:\n      dup2\n      sload\n      dup2\n      mstore\n      swap1\n      0x01\n      add\n      swap1\n      0x20\n      add\n      dup1\n      dup4\n      gt\n      tag_60\n      jumpi\n      dup3\n      swap1\n      sub\n      0x1f\n      and\n      dup3\n      add\n      swap2\n    tag_58:\n      pop\n      pop\n      pop\n      pop\n      pop\n        /* \"contracts/5_Enquetes.sol\":2819:2830  nomesOpcoes */\n      dup6\n        /* \"contracts/5_Enquetes.sol\":2831:2832  i */\n      dup3\n        /* \"contracts/5_Enquetes.sol\":2819:2833  nomesOpcoes[i] */\n      dup2\n      mload\n      dup2\n      lt\n      tag_61\n      jumpi\n      tag_62\n      tag_53\n      jump\t// in\n    tag_62:\n    tag_61:\n      0x20\n      mul\n      0x20\n      add\n      add\n        /* \"contracts/5_Enquetes.sol\":2819:2863  nomesOpcoes[i] = enquete.opcoes[i].descricao */\n      dup2\n      swap1\n      mstore\n      pop\n        /* \"contracts/5_Enquetes.sol\":2894:2901  enquete */\n      dup3\n        /* \"contracts/5_Enquetes.sol\":2894:2908  enquete.opcoes */\n      0x02\n      add\n        /* \"contracts/5_Enquetes.sol\":2909:2910  i */\n      dup2\n        /* \"contracts/5_Enquetes.sol\":2894:2911  enquete.opcoes[i] */\n      dup2\n      sload\n      dup2\n      lt\n      tag_63\n      jumpi\n      tag_64\n      tag_53\n      jump\t// in\n    tag_64:\n    tag_63:\n      swap1\n      0x00\n      mstore\n      keccak256(0x00, 0x20)\n      swap1\n      0x02\n      mul\n      add\n        /* \"contracts/5_Enquetes.sol\":2894:2922  enquete.opcoes[i].quantidade */\n      0x01\n      add\n      sload\n        /* \"contracts/5_Enquetes.sol\":2877:2888  votosOpcoes */\n      dup5\n        /* \"contracts/5_Enquetes.sol\":2889:2890  i */\n      dup3\n        /* \"contracts/5_Enquetes.sol\":2877:2891  votosOpcoes[i] */\n      dup2\n      mload\n      dup2\n      lt\n      tag_66\n      jumpi\n      tag_67\n      tag_53\n      jump\t// in\n    tag_67:\n    tag_66:\n      0x20\n      mul\n      0x20\n      add\n      add\n        /* \"contracts/5_Enquetes.sol\":2877:2922  votosOpcoes[i] = enquete.opcoes[i].quantidade */\n      dup2\n      dup2\n      mstore\n      pop\n      pop\n        /* \"contracts/5_Enquetes.sol\":2791:2794  i++ */\n      dup1\n      dup1\n      0x01\n      add\n      swap2\n      pop\n      pop\n        /* \"contracts/5_Enquetes.sol\":2754:2933  for (uint256 i = 0; i < totalOpcoes; i++ )... */\n      jump(tag_48)\n    tag_49:\n      pop\n        /* \"contracts/5_Enquetes.sol\":2951:2958  enquete */\n      dup2\n        /* \"contracts/5_Enquetes.sol\":2951:2965  enquete.titulo */\n      0x00\n      add\n        /* \"contracts/5_Enquetes.sol\":2967:2974  enquete */\n      dup3\n        /* \"contracts/5_Enquetes.sol\":2967:2980  enquete.ativa */\n      0x01\n      add\n      0x14\n      swap1\n      sload\n      swap1\n      0x0100\n      exp\n      swap1\n      div\n      0xff\n      and\n        /* \"contracts/5_Enquetes.sol\":2982:2993  nomesOpcoes */\n      dup6\n        /* \"contracts/5_Enquetes.sol\":2995:3006  votosOpcoes */\n      dup6\n        /* \"contracts/5_Enquetes.sol\":2943:3007  return (enquete.titulo, enquete.ativa, nomesOpcoes, votosOpcoes) */\n      dup4\n      dup1\n      sload\n      tag_68\n      swap1\n      tag_56\n      jump\t// in\n    tag_68:\n      dup1\n      0x1f\n      add\n      0x20\n      dup1\n      swap2\n      div\n      mul\n      0x20\n      add\n      mload(0x40)\n      swap1\n      dup2\n      add\n      0x40\n      mstore\n      dup1\n      swap3\n      swap2\n      swap1\n      dup2\n      dup2\n      mstore\n      0x20\n      add\n      dup3\n      dup1\n      sload\n      tag_69\n      swap1\n      tag_56\n      jump\t// in\n    tag_69:\n      dup1\n      iszero\n      tag_70\n      jumpi\n      dup1\n      0x1f\n      lt\n      tag_71\n      jumpi\n      0x0100\n      dup1\n      dup4\n      sload\n      div\n      mul\n      dup4\n      mstore\n      swap2\n      0x20\n      add\n      swap2\n      jump(tag_70)\n    tag_71:\n      dup3\n      add\n      swap2\n      swap1\n      0x00\n      mstore\n      keccak256(0x00, 0x20)\n      swap1\n    tag_72:\n      dup2\n      sload\n      dup2\n      mstore\n      swap1\n      0x01\n      add\n      swap1\n      0x20\n      add\n      dup1\n      dup4\n      gt\n      tag_72\n      jumpi\n      dup3\n      swap1\n      sub\n      0x1f\n      and\n      dup3\n      add\n      swap2\n    tag_70:\n      pop\n      pop\n      pop\n      pop\n      pop\n      swap4\n      pop\n      swap6\n      pop\n      swap6\n      pop\n      swap6\n      pop\n      swap6\n      pop\n      pop\n      pop\n        /* \"contracts/5_Enquetes.sol\":2334:3015  function obterEnquete(uint256 _idEnquete) external view returns (... */\n      swap2\n      swap4\n      pop\n      swap2\n      swap4\n      jump\t// out\n        /* \"contracts/5_Enquetes.sol\":335:383  mapping (uint256 => EnqueteInfo) public enquetes */\n    tag_19:\n      mstore(0x20, 0x00)\n      dup1\n      0x00\n      mstore\n      keccak256(0x00, 0x40)\n      0x00\n      swap2\n      pop\n      swap1\n      pop\n      dup1\n      0x00\n      add\n      dup1\n      sload\n      tag_73\n      swap1\n      tag_56\n      jump\t// in\n    tag_73:\n      dup1\n      0x1f\n      add\n      0x20\n      dup1\n      swap2\n      div\n      mul\n      0x20\n      add\n      mload(0x40)\n      swap1\n      dup2\n      add\n      0x40\n      mstore\n      dup1\n      swap3\n      swap2\n      swap1\n      dup2\n      dup2\n      mstore\n      0x20\n      add\n      dup3\n      dup1\n      sload\n      tag_74\n      swap1\n      tag_56\n      jump\t// in\n    tag_74:\n      dup1\n      iszero\n      tag_75\n      jumpi\n      dup1\n      0x1f\n      lt\n      tag_76\n      jumpi\n      0x0100\n      dup1\n      dup4\n      sload\n      div\n      mul\n      dup4\n      mstore\n      swap2\n      0x20\n      add\n      swap2\n      jump(tag_75)\n    tag_76:\n      dup3\n      add\n      swap2\n      swap1\n      0x00\n      mstore\n      keccak256(0x00, 0x20)\n      swap1\n    tag_77:\n      dup2\n      sload\n      dup2\n      mstore\n      swap1\n      0x01\n      add\n      swap1\n      0x20\n      add\n      dup1\n      dup4\n      gt\n      tag_77\n      jumpi\n      dup3\n      swap1\n      sub\n      0x1f\n      and\n      dup3\n      add\n      swap2\n    tag_75:\n      pop\n      pop\n      pop\n      pop\n      pop\n      swap1\n      dup1\n      0x01\n      add\n      0x00\n      swap1\n      sload\n      swap1\n      0x0100\n      exp\n      swap1\n      div\n      0xffffffffffffffffffffffffffffffffffffffff\n      and\n      swap1\n      dup1\n      0x01\n      add\n      0x14\n      swap1\n      sload\n      swap1\n      0x0100\n      exp\n      swap1\n      div\n      0xff\n      and\n      swap1\n      pop\n      dup4\n      jump\t// out\n        /* \"contracts/5_Enquetes.sol\":1429:1946  function votar(uint256 _idEnquete, uint256 _indiceOpcao) external {... */\n    tag_25:\n        /* \"contracts/5_Enquetes.sol\":1505:1532  EnqueteInfo storage enquete */\n      0x00\n        /* \"contracts/5_Enquetes.sol\":1535:1543  enquetes */\n      dup1\n        /* \"contracts/5_Enquetes.sol\":1535:1555  enquetes[_idEnquete] */\n      0x00\n        /* \"contracts/5_Enquetes.sol\":1544:1554  _idEnquete */\n      dup5\n        /* \"contracts/5_Enquetes.sol\":1535:1555  enquetes[_idEnquete] */\n      dup2\n      mstore\n      0x20\n      add\n      swap1\n      dup2\n      mstore\n      0x20\n      add\n      0x00\n      keccak256\n        /* \"contracts/5_Enquetes.sol\":1505:1555  EnqueteInfo storage enquete = enquetes[_idEnquete] */\n      swap1\n      pop\n        /* \"contracts/5_Enquetes.sol\":1573:1580  enquete */\n      dup1\n        /* \"contracts/5_Enquetes.sol\":1573:1586  enquete.ativa */\n      0x01\n      add\n      0x14\n      swap1\n      sload\n      swap1\n      0x0100\n      exp\n      swap1\n      div\n      0xff\n      and\n        /* \"contracts/5_Enquetes.sol\":1565:1621  require(enquete.ativa, unicode\"Enquente esta encerrada\") */\n      tag_79\n      jumpi\n      mload(0x40)\n      0x08c379a000000000000000000000000000000000000000000000000000000000\n      dup2\n      mstore\n      0x04\n      add\n      tag_80\n      swap1\n      tag_81\n      jump\t// in\n    tag_80:\n      mload(0x40)\n      dup1\n      swap2\n      sub\n      swap1\n      revert\n    tag_79:\n        /* \"contracts/5_Enquetes.sol\":1640:1647  enquete */\n      dup1\n        /* \"contracts/5_Enquetes.sol\":1640:1655  enquete.jaVotou */\n      0x03\n      add\n        /* \"contracts/5_Enquetes.sol\":1640:1667  enquete.jaVotou[msg.sender] */\n      0x00\n        /* \"contracts/5_Enquetes.sol\":1656:1666  msg.sender */\n      caller\n        /* \"contracts/5_Enquetes.sol\":1640:1667  enquete.jaVotou[msg.sender] */\n      0xffffffffffffffffffffffffffffffffffffffff\n      and\n      0xffffffffffffffffffffffffffffffffffffffff\n      and\n      dup2\n      mstore\n      0x20\n      add\n      swap1\n      dup2\n      mstore\n      0x20\n      add\n      0x00\n      keccak256\n      0x00\n      swap1\n      sload\n      swap1\n      0x0100\n      exp\n      swap1\n      div\n      0xff\n      and\n        /* \"contracts/5_Enquetes.sol\":1639:1667  !enquete.jaVotou[msg.sender] */\n      iszero\n        /* \"contracts/5_Enquetes.sol\":1631:1693  require(!enquete.jaVotou[msg.sender], unicode\"Você ja votou\") */\n      tag_82\n      jumpi\n      mload(0x40)\n      0x08c379a000000000000000000000000000000000000000000000000000000000\n      dup2\n      mstore\n      0x04\n      add\n      tag_83\n      swap1\n      tag_84\n      jump\t// in\n    tag_83:\n      mload(0x40)\n      dup1\n      swap2\n      sub\n      swap1\n      revert\n    tag_82:\n        /* \"contracts/5_Enquetes.sol\":1726:1733  enquete */\n      dup1\n        /* \"contracts/5_Enquetes.sol\":1726:1740  enquete.opcoes */\n      0x02\n      add\n        /* \"contracts/5_Enquetes.sol\":1726:1747  enquete.opcoes.length */\n      dup1\n      sload\n      swap1\n      pop\n        /* \"contracts/5_Enquetes.sol\":1711:1723  _indiceOpcao */\n      dup3\n        /* \"contracts/5_Enquetes.sol\":1711:1747  _indiceOpcao < enquete.opcoes.length */\n      lt\n        /* \"contracts/5_Enquetes.sol\":1703:1775  require(_indiceOpcao < enquete.opcoes.length, unicode\"Escolha invalida\") */\n      tag_85\n      jumpi\n      mload(0x40)\n      0x08c379a000000000000000000000000000000000000000000000000000000000\n      dup2\n      mstore\n      0x04\n      add\n      tag_86\n      swap1\n      tag_87\n      jump\t// in\n    tag_86:\n      mload(0x40)\n      dup1\n      swap2\n      sub\n      swap1\n      revert\n    tag_85:\n        /* \"contracts/5_Enquetes.sol\":1786:1793  enquete */\n      dup1\n        /* \"contracts/5_Enquetes.sol\":1786:1800  enquete.opcoes */\n      0x02\n      add\n        /* \"contracts/5_Enquetes.sol\":1801:1813  _indiceOpcao */\n      dup3\n        /* \"contracts/5_Enquetes.sol\":1786:1814  enquete.opcoes[_indiceOpcao] */\n      dup2\n      sload\n      dup2\n      lt\n      tag_88\n      jumpi\n      tag_89\n      tag_53\n      jump\t// in\n    tag_89:\n    tag_88:\n      swap1\n      0x00\n      mstore\n      keccak256(0x00, 0x20)\n      swap1\n      0x02\n      mul\n      add\n        /* \"contracts/5_Enquetes.sol\":1786:1825  enquete.opcoes[_indiceOpcao].quantidade */\n      0x01\n      add\n      0x00\n        /* \"contracts/5_Enquetes.sol\":1786:1827  enquete.opcoes[_indiceOpcao].quantidade++ */\n      dup2\n      sload\n      dup1\n      swap3\n      swap2\n      swap1\n      tag_91\n      swap1\n      tag_92\n      jump\t// in\n    tag_91:\n      swap2\n      swap1\n      pop\n      sstore\n      pop\n        /* \"contracts/5_Enquetes.sol\":1867:1871  true */\n      0x01\n        /* \"contracts/5_Enquetes.sol\":1837:1844  enquete */\n      dup2\n        /* \"contracts/5_Enquetes.sol\":1837:1852  enquete.jaVotou */\n      0x03\n      add\n        /* \"contracts/5_Enquetes.sol\":1837:1864  enquete.jaVotou[msg.sender] */\n      0x00\n        /* \"contracts/5_Enquetes.sol\":1853:1863  msg.sender */\n      caller\n        /* \"contracts/5_Enquetes.sol\":1837:1864  enquete.jaVotou[msg.sender] */\n      0xffffffffffffffffffffffffffffffffffffffff\n      and\n      0xffffffffffffffffffffffffffffffffffffffff\n      and\n      dup2\n      mstore\n      0x20\n      add\n      swap1\n      dup2\n      mstore\n      0x20\n      add\n      0x00\n      keccak256\n      0x00\n        /* \"contracts/5_Enquetes.sol\":1837:1871  enquete.jaVotou[msg.sender] = true */\n      0x0100\n      exp\n      dup2\n      sload\n      dup2\n      0xff\n      mul\n      not\n      and\n      swap1\n      dup4\n      iszero\n      iszero\n      mul\n      or\n      swap1\n      sstore\n      pop\n        /* \"contracts/5_Enquetes.sol\":1887:1939  votoRegistrado(_idEnquete, _indiceOpcao, msg.sender) */\n      0x06c2b43ca1e393996f5df0950a375e213f703126c852a69d5ff4114494f168ef\n        /* \"contracts/5_Enquetes.sol\":1902:1912  _idEnquete */\n      dup4\n        /* \"contracts/5_Enquetes.sol\":1914:1926  _indiceOpcao */\n      dup4\n        /* \"contracts/5_Enquetes.sol\":1928:1938  msg.sender */\n      caller\n        /* \"contracts/5_Enquetes.sol\":1887:1939  votoRegistrado(_idEnquete, _indiceOpcao, msg.sender) */\n      mload(0x40)\n      tag_93\n      swap4\n      swap3\n      swap2\n      swap1\n      tag_94\n      jump\t// in\n    tag_93:\n      mload(0x40)\n      dup1\n      swap2\n      sub\n      swap1\n      log1\n        /* \"contracts/5_Enquetes.sol\":1495:1946  {... */\n      pop\n        /* \"contracts/5_Enquetes.sol\":1429:1946  function votar(uint256 _idEnquete, uint256 _indiceOpcao) external {... */\n      pop\n      pop\n      jump\t// out\n        /* \"contracts/5_Enquetes.sol\":762:1423  function criarEnquete(string memory _titulo, string[] memory _opcoes) external... */\n    tag_29:\n        /* \"contracts/5_Enquetes.sol\":881:882  2 */\n      0x02\n        /* \"contracts/5_Enquetes.sol\":863:870  _opcoes */\n      dup2\n        /* \"contracts/5_Enquetes.sol\":863:877  _opcoes.length */\n      mload\n        /* \"contracts/5_Enquetes.sol\":863:882  _opcoes.length >= 2 */\n      lt\n      iszero\n        /* \"contracts/5_Enquetes.sol\":863:906  _opcoes.length >= 2 && _opcoes.length <= 10 */\n      dup1\n      iszero\n      tag_96\n      jumpi\n      pop\n        /* \"contracts/5_Enquetes.sol\":904:906  10 */\n      0x0a\n        /* \"contracts/5_Enquetes.sol\":886:893  _opcoes */\n      dup2\n        /* \"contracts/5_Enquetes.sol\":886:900  _opcoes.length */\n      mload\n        /* \"contracts/5_Enquetes.sol\":886:906  _opcoes.length <= 10 */\n      gt\n      iszero\n        /* \"contracts/5_Enquetes.sol\":863:906  _opcoes.length >= 2 && _opcoes.length <= 10 */\n    tag_96:\n        /* \"contracts/5_Enquetes.sol\":855:977  require(_opcoes.length >= 2 && _opcoes.length <= 10, unicode\"Deve-se incluir pelo menos 2 opções e no maximo 10 opões\") */\n      tag_97\n      jumpi\n      mload(0x40)\n      0x08c379a000000000000000000000000000000000000000000000000000000000\n      dup2\n      mstore\n      0x04\n      add\n      tag_98\n      swap1\n      tag_99\n      jump\t// in\n    tag_98:\n      mload(0x40)\n      dup1\n      swap2\n      sub\n      swap1\n      revert\n    tag_97:\n        /* \"contracts/5_Enquetes.sol\":987:1002  contadorEnquete */\n      0x01\n      0x00\n        /* \"contracts/5_Enquetes.sol\":987:1004  contadorEnquete++ */\n      dup2\n      sload\n      dup1\n      swap3\n      swap2\n      swap1\n      tag_100\n      swap1\n      tag_92\n      jump\t// in\n    tag_100:\n      swap2\n      swap1\n      pop\n      sstore\n      pop\n        /* \"contracts/5_Enquetes.sol\":1014:1045  EnqueteInfo storage novaEnquete */\n      0x00\n        /* \"contracts/5_Enquetes.sol\":1048:1056  enquetes */\n      dup1\n        /* \"contracts/5_Enquetes.sol\":1048:1073  enquetes[contadorEnquete] */\n      0x00\n        /* \"contracts/5_Enquetes.sol\":1057:1072  contadorEnquete */\n      sload(0x01)\n        /* \"contracts/5_Enquetes.sol\":1048:1073  enquetes[contadorEnquete] */\n      dup2\n      mstore\n      0x20\n      add\n      swap1\n      dup2\n      mstore\n      0x20\n      add\n      0x00\n      keccak256\n        /* \"contracts/5_Enquetes.sol\":1014:1073  EnqueteInfo storage novaEnquete = enquetes[contadorEnquete] */\n      swap1\n      pop\n        /* \"contracts/5_Enquetes.sol\":1104:1111  _titulo */\n      dup3\n        /* \"contracts/5_Enquetes.sol\":1083:1094  novaEnquete */\n      dup2\n        /* \"contracts/5_Enquetes.sol\":1083:1101  novaEnquete.titulo */\n      0x00\n      add\n        /* \"contracts/5_Enquetes.sol\":1083:1111  novaEnquete.titulo = _titulo */\n      swap1\n      dup2\n      tag_101\n      swap2\n      swap1\n      tag_102\n      jump\t// in\n    tag_101:\n      pop\n        /* \"contracts/5_Enquetes.sol\":1143:1153  msg.sender */\n      caller\n        /* \"contracts/5_Enquetes.sol\":1121:1132  novaEnquete */\n      dup2\n        /* \"contracts/5_Enquetes.sol\":1121:1140  novaEnquete.criador */\n      0x01\n      add\n      0x00\n        /* \"contracts/5_Enquetes.sol\":1121:1153  novaEnquete.criador = msg.sender */\n      0x0100\n      exp\n      dup2\n      sload\n      dup2\n      0xffffffffffffffffffffffffffffffffffffffff\n      mul\n      not\n      and\n      swap1\n      dup4\n      0xffffffffffffffffffffffffffffffffffffffff\n      and\n      mul\n      or\n      swap1\n      sstore\n      pop\n        /* \"contracts/5_Enquetes.sol\":1183:1187  true */\n      0x01\n        /* \"contracts/5_Enquetes.sol\":1163:1174  novaEnquete */\n      dup2\n        /* \"contracts/5_Enquetes.sol\":1163:1180  novaEnquete.ativa */\n      0x01\n      add\n      0x14\n        /* \"contracts/5_Enquetes.sol\":1163:1187  novaEnquete.ativa = true */\n      0x0100\n      exp\n      dup2\n      sload\n      dup2\n      0xff\n      mul\n      not\n      and\n      swap1\n      dup4\n      iszero\n      iszero\n      mul\n      or\n      swap1\n      sstore\n      pop\n        /* \"contracts/5_Enquetes.sol\":1203:1212  uint256 i */\n      0x00\n        /* \"contracts/5_Enquetes.sol\":1198:1350  for (uint256 i = 0; i < _opcoes.length; i++)... */\n    tag_103:\n        /* \"contracts/5_Enquetes.sol\":1222:1229  _opcoes */\n      dup3\n        /* \"contracts/5_Enquetes.sol\":1222:1236  _opcoes.length */\n      mload\n        /* \"contracts/5_Enquetes.sol\":1218:1219  i */\n      dup2\n        /* \"contracts/5_Enquetes.sol\":1218:1236  i < _opcoes.length */\n      lt\n        /* \"contracts/5_Enquetes.sol\":1198:1350  for (uint256 i = 0; i < _opcoes.length; i++)... */\n      iszero\n      tag_104\n      jumpi\n        /* \"contracts/5_Enquetes.sol\":1265:1276  novaEnquete */\n      dup2\n        /* \"contracts/5_Enquetes.sol\":1265:1283  novaEnquete.opcoes */\n      0x02\n      add\n        /* \"contracts/5_Enquetes.sol\":1289:1338  OpcaoVoto({descricao: _opcoes[i], quantidade: 0}) */\n      mload(0x40)\n      dup1\n      0x40\n      add\n      0x40\n      mstore\n      dup1\n        /* \"contracts/5_Enquetes.sol\":1311:1318  _opcoes */\n      dup6\n        /* \"contracts/5_Enquetes.sol\":1319:1320  i */\n      dup5\n        /* \"contracts/5_Enquetes.sol\":1311:1321  _opcoes[i] */\n      dup2\n      mload\n      dup2\n      lt\n      tag_106\n      jumpi\n      tag_107\n      tag_53\n      jump\t// in\n    tag_107:\n    tag_106:\n      0x20\n      mul\n      0x20\n      add\n      add\n      mload\n        /* \"contracts/5_Enquetes.sol\":1289:1338  OpcaoVoto({descricao: _opcoes[i], quantidade: 0}) */\n      dup2\n      mstore\n      0x20\n      add\n        /* \"contracts/5_Enquetes.sol\":1335:1336  0 */\n      0x00\n        /* \"contracts/5_Enquetes.sol\":1289:1338  OpcaoVoto({descricao: _opcoes[i], quantidade: 0}) */\n      dup2\n      mstore\n      pop\n        /* \"contracts/5_Enquetes.sol\":1265:1339  novaEnquete.opcoes.push(OpcaoVoto({descricao: _opcoes[i], quantidade: 0})) */\n      swap1\n      dup1\n      0x01\n      dup2\n      sload\n      add\n      dup1\n      dup3\n      sstore\n      dup1\n      swap2\n      pop\n      pop\n      0x01\n      swap1\n      sub\n      swap1\n      0x00\n      mstore\n      keccak256(0x00, 0x20)\n      swap1\n      0x02\n      mul\n      add\n      0x00\n      swap1\n      swap2\n      swap1\n      swap2\n      swap1\n      swap2\n      pop\n      0x00\n      dup3\n      add\n      mload\n      dup2\n      0x00\n      add\n      swap1\n      dup2\n      tag_109\n      swap2\n      swap1\n      tag_102\n      jump\t// in\n    tag_109:\n      pop\n      0x20\n      dup3\n      add\n      mload\n      dup2\n      0x01\n      add\n      sstore\n      pop\n      pop\n        /* \"contracts/5_Enquetes.sol\":1238:1241  i++ */\n      dup1\n      dup1\n      0x01\n      add\n      swap2\n      pop\n      pop\n        /* \"contracts/5_Enquetes.sol\":1198:1350  for (uint256 i = 0; i < _opcoes.length; i++)... */\n      jump(tag_103)\n    tag_104:\n      pop\n        /* \"contracts/5_Enquetes.sol\":1365:1416  enqueteCriada(contadorEnquete, _titulo, msg.sender) */\n      0xe594be677675fe08b15ddc00fc9a67c78d5b8ddea7f394d6b5e3e588e8d184f0\n        /* \"contracts/5_Enquetes.sol\":1379:1394  contadorEnquete */\n      sload(0x01)\n        /* \"contracts/5_Enquetes.sol\":1396:1403  _titulo */\n      dup5\n        /* \"contracts/5_Enquetes.sol\":1405:1415  msg.sender */\n      caller\n        /* \"contracts/5_Enquetes.sol\":1365:1416  enqueteCriada(contadorEnquete, _titulo, msg.sender) */\n      mload(0x40)\n      tag_110\n      swap4\n      swap3\n      swap2\n      swap1\n      tag_111\n      jump\t// in\n    tag_110:\n      mload(0x40)\n      dup1\n      swap2\n      sub\n      swap1\n      log1\n        /* \"contracts/5_Enquetes.sol\":845:1423  {... */\n      pop\n        /* \"contracts/5_Enquetes.sol\":762:1423  function criarEnquete(string memory _titulo, string[] memory _opcoes) external... */\n      pop\n      pop\n      jump\t// out\n        /* \"#utility.yul\":7:82   */\n    tag_112:\n        /* \"#utility.yul\":40:46   */\n      0x00\n        /* \"#utility.yul\":73:75   */\n      0x40\n        /* \"#utility.yul\":67:76   */\n      mload\n        /* \"#utility.yul\":57:76   */\n      swap1\n      pop\n        /* \"#utility.yul\":7:82   */\n      swap1\n      jump\t// out\n        /* \"#utility.yul\":88:205   */\n    tag_113:\n        /* \"#utility.yul\":197:198   */\n      0x00\n        /* \"#utility.yul\":194:195   */\n      dup1\n        /* \"#utility.yul\":187:199   */\n      revert\n        /* \"#utility.yul\":211:328   */\n    tag_114:\n        /* \"#utility.yul\":320:321   */\n      0x00\n        /* \"#utility.yul\":317:318   */\n      dup1\n        /* \"#utility.yul\":310:322   */\n      revert\n        /* \"#utility.yul\":334:411   */\n    tag_115:\n        /* \"#utility.yul\":371:378   */\n      0x00\n        /* \"#utility.yul\":400:405   */\n      dup2\n        /* \"#utility.yul\":389:405   */\n      swap1\n      pop\n        /* \"#utility.yul\":334:411   */\n      swap2\n      swap1\n      pop\n      jump\t// out\n        /* \"#utility.yul\":417:539   */\n    tag_116:\n        /* \"#utility.yul\":490:514   */\n      tag_191\n        /* \"#utility.yul\":508:513   */\n      dup2\n        /* \"#utility.yul\":490:514   */\n      tag_115\n      jump\t// in\n    tag_191:\n        /* \"#utility.yul\":483:488   */\n      dup2\n        /* \"#utility.yul\":480:515   */\n      eq\n        /* \"#utility.yul\":470:533   */\n      tag_192\n      jumpi\n        /* \"#utility.yul\":529:530   */\n      0x00\n        /* \"#utility.yul\":526:527   */\n      dup1\n        /* \"#utility.yul\":519:531   */\n      revert\n        /* \"#utility.yul\":470:533   */\n    tag_192:\n        /* \"#utility.yul\":417:539   */\n      pop\n      jump\t// out\n        /* \"#utility.yul\":545:684   */\n    tag_117:\n        /* \"#utility.yul\":591:596   */\n      0x00\n        /* \"#utility.yul\":629:635   */\n      dup2\n        /* \"#utility.yul\":616:636   */\n      calldataload\n        /* \"#utility.yul\":607:636   */\n      swap1\n      pop\n        /* \"#utility.yul\":645:678   */\n      tag_194\n        /* \"#utility.yul\":672:677   */\n      dup2\n        /* \"#utility.yul\":645:678   */\n      tag_116\n      jump\t// in\n    tag_194:\n        /* \"#utility.yul\":545:684   */\n      swap3\n      swap2\n      pop\n      pop\n      jump\t// out\n        /* \"#utility.yul\":690:1019   */\n    tag_10:\n        /* \"#utility.yul\":749:755   */\n      0x00\n        /* \"#utility.yul\":798:800   */\n      0x20\n        /* \"#utility.yul\":786:795   */\n      dup3\n        /* \"#utility.yul\":777:784   */\n      dup5\n        /* \"#utility.yul\":773:796   */\n      sub\n        /* \"#utility.yul\":769:801   */\n      slt\n        /* \"#utility.yul\":766:885   */\n      iszero\n      tag_196\n      jumpi\n        /* \"#utility.yul\":804:883   */\n      tag_197\n      tag_113\n      jump\t// in\n    tag_197:\n        /* \"#utility.yul\":766:885   */\n    tag_196:\n        /* \"#utility.yul\":924:925   */\n      0x00\n        /* \"#utility.yul\":949:1002   */\n      tag_198\n        /* \"#utility.yul\":994:1001   */\n      dup5\n        /* \"#utility.yul\":985:991   */\n      dup3\n        /* \"#utility.yul\":974:983   */\n      dup6\n        /* \"#utility.yul\":970:992   */\n      add\n        /* \"#utility.yul\":949:1002   */\n      tag_117\n      jump\t// in\n    tag_198:\n        /* \"#utility.yul\":939:1002   */\n      swap2\n      pop\n        /* \"#utility.yul\":895:1012   */\n      pop\n        /* \"#utility.yul\":690:1019   */\n      swap3\n      swap2\n      pop\n      pop\n      jump\t// out\n        /* \"#utility.yul\":1025:1124   */\n    tag_118:\n        /* \"#utility.yul\":1077:1083   */\n      0x00\n        /* \"#utility.yul\":1111:1116   */\n      dup2\n        /* \"#utility.yul\":1105:1117   */\n      mload\n        /* \"#utility.yul\":1095:1117   */\n      swap1\n      pop\n        /* \"#utility.yul\":1025:1124   */\n      swap2\n      swap1\n      pop\n      jump\t// out\n        /* \"#utility.yul\":1130:1299   */\n    tag_119:\n        /* \"#utility.yul\":1214:1225   */\n      0x00\n        /* \"#utility.yul\":1248:1254   */\n      dup3\n        /* \"#utility.yul\":1243:1246   */\n      dup3\n        /* \"#utility.yul\":1236:1255   */\n      mstore\n        /* \"#utility.yul\":1288:1292   */\n      0x20\n        /* \"#utility.yul\":1283:1286   */\n      dup3\n        /* \"#utility.yul\":1279:1293   */\n      add\n        /* \"#utility.yul\":1264:1293   */\n      swap1\n      pop\n        /* \"#utility.yul\":1130:1299   */\n      swap3\n      swap2\n      pop\n      pop\n      jump\t// out\n        /* \"#utility.yul\":1305:1553   */\n    tag_120:\n        /* \"#utility.yul\":1387:1388   */\n      0x00\n        /* \"#utility.yul\":1397:1510   */\n    tag_202:\n        /* \"#utility.yul\":1411:1417   */\n      dup4\n        /* \"#utility.yul\":1408:1409   */\n      dup2\n        /* \"#utility.yul\":1405:1418   */\n      lt\n        /* \"#utility.yul\":1397:1510   */\n      iszero\n      tag_204\n      jumpi\n        /* \"#utility.yul\":1496:1497   */\n      dup1\n        /* \"#utility.yul\":1491:1494   */\n      dup3\n        /* \"#utility.yul\":1487:1498   */\n      add\n        /* \"#utility.yul\":1481:1499   */\n      mload\n        /* \"#utility.yul\":1477:1478   */\n      dup2\n        /* \"#utility.yul\":1472:1475   */\n      dup5\n        /* \"#utility.yul\":1468:1479   */\n      add\n        /* \"#utility.yul\":1461:1500   */\n      mstore\n        /* \"#utility.yul\":1433:1435   */\n      0x20\n        /* \"#utility.yul\":1430:1431   */\n      dup2\n        /* \"#utility.yul\":1426:1436   */\n      add\n        /* \"#utility.yul\":1421:1436   */\n      swap1\n      pop\n        /* \"#utility.yul\":1397:1510   */\n      jump(tag_202)\n    tag_204:\n        /* \"#utility.yul\":1544:1545   */\n      0x00\n        /* \"#utility.yul\":1535:1541   */\n      dup5\n        /* \"#utility.yul\":1530:1533   */\n      dup5\n        /* \"#utility.yul\":1526:1542   */\n      add\n        /* \"#utility.yul\":1519:1546   */\n      mstore\n        /* \"#utility.yul\":1367:1553   */\n      pop\n        /* \"#utility.yul\":1305:1553   */\n      pop\n      pop\n      pop\n      jump\t// out\n        /* \"#utility.yul\":1559:1661   */\n    tag_121:\n        /* \"#utility.yul\":1600:1606   */\n      0x00\n        /* \"#utility.yul\":1651:1653   */\n      0x1f\n        /* \"#utility.yul\":1647:1654   */\n      not\n        /* \"#utility.yul\":1642:1644   */\n      0x1f\n        /* \"#utility.yul\":1635:1640   */\n      dup4\n        /* \"#utility.yul\":1631:1645   */\n      add\n        /* \"#utility.yul\":1627:1655   */\n      and\n        /* \"#utility.yul\":1617:1655   */\n      swap1\n      pop\n        /* \"#utility.yul\":1559:1661   */\n      swap2\n      swap1\n      pop\n      jump\t// out\n        /* \"#utility.yul\":1667:2044   */\n    tag_122:\n        /* \"#utility.yul\":1755:1758   */\n      0x00\n        /* \"#utility.yul\":1783:1822   */\n      tag_207\n        /* \"#utility.yul\":1816:1821   */\n      dup3\n        /* \"#utility.yul\":1783:1822   */\n      tag_118\n      jump\t// in\n    tag_207:\n        /* \"#utility.yul\":1838:1909   */\n      tag_208\n        /* \"#utility.yul\":1902:1908   */\n      dup2\n        /* \"#utility.yul\":1897:1900   */\n      dup6\n        /* \"#utility.yul\":1838:1909   */\n      tag_119\n      jump\t// in\n    tag_208:\n        /* \"#utility.yul\":1831:1909   */\n      swap4\n      pop\n        /* \"#utility.yul\":1918:1983   */\n      tag_209\n        /* \"#utility.yul\":1976:1982   */\n      dup2\n        /* \"#utility.yul\":1971:1974   */\n      dup6\n        /* \"#utility.yul\":1964:1968   */\n      0x20\n        /* \"#utility.yul\":1957:1962   */\n      dup7\n        /* \"#utility.yul\":1953:1969   */\n      add\n        /* \"#utility.yul\":1918:1983   */\n      tag_120\n      jump\t// in\n    tag_209:\n        /* \"#utility.yul\":2008:2037   */\n      tag_210\n        /* \"#utility.yul\":2030:2036   */\n      dup2\n        /* \"#utility.yul\":2008:2037   */\n      tag_121\n      jump\t// in\n    tag_210:\n        /* \"#utility.yul\":2003:2006   */\n      dup5\n        /* \"#utility.yul\":1999:2038   */\n      add\n        /* \"#utility.yul\":1992:2038   */\n      swap2\n      pop\n        /* \"#utility.yul\":1759:2044   */\n      pop\n        /* \"#utility.yul\":1667:2044   */\n      swap3\n      swap2\n      pop\n      pop\n      jump\t// out\n        /* \"#utility.yul\":2050:2140   */\n    tag_123:\n        /* \"#utility.yul\":2084:2091   */\n      0x00\n        /* \"#utility.yul\":2127:2132   */\n      dup2\n        /* \"#utility.yul\":2120:2133   */\n      iszero\n        /* \"#utility.yul\":2113:2134   */\n      iszero\n        /* \"#utility.yul\":2102:2134   */\n      swap1\n      pop\n        /* \"#utility.yul\":2050:2140   */\n      swap2\n      swap1\n      pop\n      jump\t// out\n        /* \"#utility.yul\":2146:2255   */\n    tag_124:\n        /* \"#utility.yul\":2227:2248   */\n      tag_213\n        /* \"#utility.yul\":2242:2247   */\n      dup2\n        /* \"#utility.yul\":2227:2248   */\n      tag_123\n      jump\t// in\n    tag_213:\n        /* \"#utility.yul\":2222:2225   */\n      dup3\n        /* \"#utility.yul\":2215:2249   */\n      mstore\n        /* \"#utility.yul\":2146:2255   */\n      pop\n      pop\n      jump\t// out\n        /* \"#utility.yul\":2261:2385   */\n    tag_125:\n        /* \"#utility.yul\":2338:2344   */\n      0x00\n        /* \"#utility.yul\":2372:2377   */\n      dup2\n        /* \"#utility.yul\":2366:2378   */\n      mload\n        /* \"#utility.yul\":2356:2378   */\n      swap1\n      pop\n        /* \"#utility.yul\":2261:2385   */\n      swap2\n      swap1\n      pop\n      jump\t// out\n        /* \"#utility.yul\":2391:2585   */\n    tag_126:\n        /* \"#utility.yul\":2500:2511   */\n      0x00\n        /* \"#utility.yul\":2534:2540   */\n      dup3\n        /* \"#utility.yul\":2529:2532   */\n      dup3\n        /* \"#utility.yul\":2522:2541   */\n      mstore\n        /* \"#utility.yul\":2574:2578   */\n      0x20\n        /* \"#utility.yul\":2569:2572   */\n      dup3\n        /* \"#utility.yul\":2565:2579   */\n      add\n        /* \"#utility.yul\":2550:2579   */\n      swap1\n      pop\n        /* \"#utility.yul\":2391:2585   */\n      swap3\n      swap2\n      pop\n      pop\n      jump\t// out\n        /* \"#utility.yul\":2591:2733   */\n    tag_127:\n        /* \"#utility.yul\":2668:2672   */\n      0x00\n        /* \"#utility.yul\":2691:2694   */\n      dup2\n        /* \"#utility.yul\":2683:2694   */\n      swap1\n      pop\n        /* \"#utility.yul\":2721:2725   */\n      0x20\n        /* \"#utility.yul\":2716:2719   */\n      dup3\n        /* \"#utility.yul\":2712:2726   */\n      add\n        /* \"#utility.yul\":2704:2726   */\n      swap1\n      pop\n        /* \"#utility.yul\":2591:2733   */\n      swap2\n      swap1\n      pop\n      jump\t// out\n        /* \"#utility.yul\":2739:2898   */\n    tag_128:\n        /* \"#utility.yul\":2813:2824   */\n      0x00\n        /* \"#utility.yul\":2847:2853   */\n      dup3\n        /* \"#utility.yul\":2842:2845   */\n      dup3\n        /* \"#utility.yul\":2835:2854   */\n      mstore\n        /* \"#utility.yul\":2887:2891   */\n      0x20\n        /* \"#utility.yul\":2882:2885   */\n      dup3\n        /* \"#utility.yul\":2878:2892   */\n      add\n        /* \"#utility.yul\":2863:2892   */\n      swap1\n      pop\n        /* \"#utility.yul\":2739:2898   */\n      swap3\n      swap2\n      pop\n      pop\n      jump\t// out\n        /* \"#utility.yul\":2904:3261   */\n    tag_129:\n        /* \"#utility.yul\":2982:2985   */\n      0x00\n        /* \"#utility.yul\":3010:3049   */\n      tag_219\n        /* \"#utility.yul\":3043:3048   */\n      dup3\n        /* \"#utility.yul\":3010:3049   */\n      tag_118\n      jump\t// in\n    tag_219:\n        /* \"#utility.yul\":3065:3126   */\n      tag_220\n        /* \"#utility.yul\":3119:3125   */\n      dup2\n        /* \"#utility.yul\":3114:3117   */\n      dup6\n        /* \"#utility.yul\":3065:3126   */\n      tag_128\n      jump\t// in\n    tag_220:\n        /* \"#utility.yul\":3058:3126   */\n      swap4\n      pop\n        /* \"#utility.yul\":3135:3200   */\n      tag_221\n        /* \"#utility.yul\":3193:3199   */\n      dup2\n        /* \"#utility.yul\":3188:3191   */\n      dup6\n        /* \"#utility.yul\":3181:3185   */\n      0x20\n        /* \"#utility.yul\":3174:3179   */\n      dup7\n        /* \"#utility.yul\":3170:3186   */\n      add\n        /* \"#utility.yul\":3135:3200   */\n      tag_120\n      jump\t// in\n    tag_221:\n        /* \"#utility.yul\":3225:3254   */\n      tag_222\n        /* \"#utility.yul\":3247:3253   */\n      dup2\n        /* \"#utility.yul\":3225:3254   */\n      tag_121\n      jump\t// in\n    tag_222:\n        /* \"#utility.yul\":3220:3223   */\n      dup5\n        /* \"#utility.yul\":3216:3255   */\n      add\n        /* \"#utility.yul\":3209:3255   */\n      swap2\n      pop\n        /* \"#utility.yul\":2986:3261   */\n      pop\n        /* \"#utility.yul\":2904:3261   */\n      swap3\n      swap2\n      pop\n      pop\n      jump\t// out\n        /* \"#utility.yul\":3267:3463   */\n    tag_130:\n        /* \"#utility.yul\":3356:3366   */\n      0x00\n        /* \"#utility.yul\":3391:3457   */\n      tag_224\n        /* \"#utility.yul\":3453:3456   */\n      dup4\n        /* \"#utility.yul\":3445:3451   */\n      dup4\n        /* \"#utility.yul\":3391:3457   */\n      tag_129\n      jump\t// in\n    tag_224:\n        /* \"#utility.yul\":3377:3457   */\n      swap1\n      pop\n        /* \"#utility.yul\":3267:3463   */\n      swap3\n      swap2\n      pop\n      pop\n      jump\t// out\n        /* \"#utility.yul\":3469:3592   */\n    tag_131:\n        /* \"#utility.yul\":3549:3553   */\n      0x00\n        /* \"#utility.yul\":3581:3585   */\n      0x20\n        /* \"#utility.yul\":3576:3579   */\n      dup3\n        /* \"#utility.yul\":3572:3586   */\n      add\n        /* \"#utility.yul\":3564:3586   */\n      swap1\n      pop\n        /* \"#utility.yul\":3469:3592   */\n      swap2\n      swap1\n      pop\n      jump\t// out\n        /* \"#utility.yul\":3626:4617   */\n    tag_132:\n        /* \"#utility.yul\":3765:3768   */\n      0x00\n        /* \"#utility.yul\":3794:3858   */\n      tag_227\n        /* \"#utility.yul\":3852:3857   */\n      dup3\n        /* \"#utility.yul\":3794:3858   */\n      tag_125\n      jump\t// in\n    tag_227:\n        /* \"#utility.yul\":3874:3970   */\n      tag_228\n        /* \"#utility.yul\":3963:3969   */\n      dup2\n        /* \"#utility.yul\":3958:3961   */\n      dup6\n        /* \"#utility.yul\":3874:3970   */\n      tag_126\n      jump\t// in\n    tag_228:\n        /* \"#utility.yul\":3867:3970   */\n      swap4\n      pop\n        /* \"#utility.yul\":3996:3999   */\n      dup4\n        /* \"#utility.yul\":4041:4045   */\n      0x20\n        /* \"#utility.yul\":4033:4039   */\n      dup3\n        /* \"#utility.yul\":4029:4046   */\n      mul\n        /* \"#utility.yul\":4024:4027   */\n      dup6\n        /* \"#utility.yul\":4020:4047   */\n      add\n        /* \"#utility.yul\":4071:4137   */\n      tag_229\n        /* \"#utility.yul\":4131:4136   */\n      dup6\n        /* \"#utility.yul\":4071:4137   */\n      tag_127\n      jump\t// in\n    tag_229:\n        /* \"#utility.yul\":4160:4167   */\n      dup1\n        /* \"#utility.yul\":4191:4192   */\n      0x00\n        /* \"#utility.yul\":4176:4572   */\n    tag_230:\n        /* \"#utility.yul\":4201:4207   */\n      dup6\n        /* \"#utility.yul\":4198:4199   */\n      dup2\n        /* \"#utility.yul\":4195:4208   */\n      lt\n        /* \"#utility.yul\":4176:4572   */\n      iszero\n      tag_232\n      jumpi\n        /* \"#utility.yul\":4272:4281   */\n      dup5\n        /* \"#utility.yul\":4266:4270   */\n      dup5\n        /* \"#utility.yul\":4262:4282   */\n      sub\n        /* \"#utility.yul\":4257:4260   */\n      dup10\n        /* \"#utility.yul\":4250:4283   */\n      mstore\n        /* \"#utility.yul\":4323:4329   */\n      dup2\n        /* \"#utility.yul\":4317:4330   */\n      mload\n        /* \"#utility.yul\":4351:4435   */\n      tag_233\n        /* \"#utility.yul\":4430:4434   */\n      dup6\n        /* \"#utility.yul\":4415:4428   */\n      dup3\n        /* \"#utility.yul\":4351:4435   */\n      tag_130\n      jump\t// in\n    tag_233:\n        /* \"#utility.yul\":4343:4435   */\n      swap5\n      pop\n        /* \"#utility.yul\":4458:4528   */\n      tag_234\n        /* \"#utility.yul\":4521:4527   */\n      dup4\n        /* \"#utility.yul\":4458:4528   */\n      tag_131\n      jump\t// in\n    tag_234:\n        /* \"#utility.yul\":4448:4528   */\n      swap3\n      pop\n        /* \"#utility.yul\":4557:4561   */\n      0x20\n        /* \"#utility.yul\":4552:4555   */\n      dup11\n        /* \"#utility.yul\":4548:4562   */\n      add\n        /* \"#utility.yul\":4541:4562   */\n      swap10\n      pop\n        /* \"#utility.yul\":4236:4572   */\n      pop\n        /* \"#utility.yul\":4223:4224   */\n      0x01\n        /* \"#utility.yul\":4220:4221   */\n      dup2\n        /* \"#utility.yul\":4216:4225   */\n      add\n        /* \"#utility.yul\":4211:4225   */\n      swap1\n      pop\n        /* \"#utility.yul\":4176:4572   */\n      jump(tag_230)\n    tag_232:\n        /* \"#utility.yul\":4180:4194   */\n      pop\n        /* \"#utility.yul\":4588:4592   */\n      dup3\n        /* \"#utility.yul\":4581:4592   */\n      swap8\n      pop\n        /* \"#utility.yul\":4608:4611   */\n      dup8\n        /* \"#utility.yul\":4601:4611   */\n      swap6\n      pop\n        /* \"#utility.yul\":3770:4617   */\n      pop\n      pop\n      pop\n      pop\n      pop\n        /* \"#utility.yul\":3626:4617   */\n      swap3\n      swap2\n      pop\n      pop\n      jump\t// out\n        /* \"#utility.yul\":4623:4737   */\n    tag_133:\n        /* \"#utility.yul\":4690:4696   */\n      0x00\n        /* \"#utility.yul\":4724:4729   */\n      dup2\n        /* \"#utility.yul\":4718:4730   */\n      mload\n        /* \"#utility.yul\":4708:4730   */\n      swap1\n      pop\n        /* \"#utility.yul\":4623:4737   */\n      swap2\n      swap1\n      pop\n      jump\t// out\n        /* \"#utility.yul\":4743:4927   */\n    tag_134:\n        /* \"#utility.yul\":4842:4853   */\n      0x00\n        /* \"#utility.yul\":4876:4882   */\n      dup3\n        /* \"#utility.yul\":4871:4874   */\n      dup3\n        /* \"#utility.yul\":4864:4883   */\n      mstore\n        /* \"#utility.yul\":4916:4920   */\n      0x20\n        /* \"#utility.yul\":4911:4914   */\n      dup3\n        /* \"#utility.yul\":4907:4921   */\n      add\n        /* \"#utility.yul\":4892:4921   */\n      swap1\n      pop\n        /* \"#utility.yul\":4743:4927   */\n      swap3\n      swap2\n      pop\n      pop\n      jump\t// out\n        /* \"#utility.yul\":4933:5065   */\n    tag_135:\n        /* \"#utility.yul\":5000:5004   */\n      0x00\n        /* \"#utility.yul\":5023:5026   */\n      dup2\n        /* \"#utility.yul\":5015:5026   */\n      swap1\n      pop\n        /* \"#utility.yul\":5053:5057   */\n      0x20\n        /* \"#utility.yul\":5048:5051   */\n      dup3\n        /* \"#utility.yul\":5044:5058   */\n      add\n        /* \"#utility.yul\":5036:5058   */\n      swap1\n      pop\n        /* \"#utility.yul\":4933:5065   */\n      swap2\n      swap1\n      pop\n      jump\t// out\n        /* \"#utility.yul\":5071:5179   */\n    tag_136:\n        /* \"#utility.yul\":5148:5172   */\n      tag_239\n        /* \"#utility.yul\":5166:5171   */\n      dup2\n        /* \"#utility.yul\":5148:5172   */\n      tag_115\n      jump\t// in\n    tag_239:\n        /* \"#utility.yul\":5143:5146   */\n      dup3\n        /* \"#utility.yul\":5136:5173   */\n      mstore\n        /* \"#utility.yul\":5071:5179   */\n      pop\n      pop\n      jump\t// out\n        /* \"#utility.yul\":5185:5364   */\n    tag_137:\n        /* \"#utility.yul\":5254:5264   */\n      0x00\n        /* \"#utility.yul\":5275:5321   */\n      tag_241\n        /* \"#utility.yul\":5317:5320   */\n      dup4\n        /* \"#utility.yul\":5309:5315   */\n      dup4\n        /* \"#utility.yul\":5275:5321   */\n      tag_136\n      jump\t// in\n    tag_241:\n        /* \"#utility.yul\":5353:5357   */\n      0x20\n        /* \"#utility.yul\":5348:5351   */\n      dup4\n        /* \"#utility.yul\":5344:5358   */\n      add\n        /* \"#utility.yul\":5330:5358   */\n      swap1\n      pop\n        /* \"#utility.yul\":5185:5364   */\n      swap3\n      swap2\n      pop\n      pop\n      jump\t// out\n        /* \"#utility.yul\":5370:5483   */\n    tag_138:\n        /* \"#utility.yul\":5440:5444   */\n      0x00\n        /* \"#utility.yul\":5472:5476   */\n      0x20\n        /* \"#utility.yul\":5467:5470   */\n      dup3\n        /* \"#utility.yul\":5463:5477   */\n      add\n        /* \"#utility.yul\":5455:5477   */\n      swap1\n      pop\n        /* \"#utility.yul\":5370:5483   */\n      swap2\n      swap1\n      pop\n      jump\t// out\n        /* \"#utility.yul\":5519:6251   */\n    tag_139:\n        /* \"#utility.yul\":5638:5641   */\n      0x00\n        /* \"#utility.yul\":5667:5721   */\n      tag_244\n        /* \"#utility.yul\":5715:5720   */\n      dup3\n        /* \"#utility.yul\":5667:5721   */\n      tag_133\n      jump\t// in\n    tag_244:\n        /* \"#utility.yul\":5737:5823   */\n      tag_245\n        /* \"#utility.yul\":5816:5822   */\n      dup2\n        /* \"#utility.yul\":5811:5814   */\n      dup6\n        /* \"#utility.yul\":5737:5823   */\n      tag_134\n      jump\t// in\n    tag_245:\n        /* \"#utility.yul\":5730:5823   */\n      swap4\n      pop\n        /* \"#utility.yul\":5847:5903   */\n      tag_246\n        /* \"#utility.yul\":5897:5902   */\n      dup4\n        /* \"#utility.yul\":5847:5903   */\n      tag_135\n      jump\t// in\n    tag_246:\n        /* \"#utility.yul\":5926:5933   */\n      dup1\n        /* \"#utility.yul\":5957:5958   */\n      0x00\n        /* \"#utility.yul\":5942:6226   */\n    tag_247:\n        /* \"#utility.yul\":5967:5973   */\n      dup4\n        /* \"#utility.yul\":5964:5965   */\n      dup2\n        /* \"#utility.yul\":5961:5974   */\n      lt\n        /* \"#utility.yul\":5942:6226   */\n      iszero\n      tag_249\n      jumpi\n        /* \"#utility.yul\":6043:6049   */\n      dup2\n        /* \"#utility.yul\":6037:6050   */\n      mload\n        /* \"#utility.yul\":6070:6133   */\n      tag_250\n        /* \"#utility.yul\":6129:6132   */\n      dup9\n        /* \"#utility.yul\":6114:6127   */\n      dup3\n        /* \"#utility.yul\":6070:6133   */\n      tag_137\n      jump\t// in\n    tag_250:\n        /* \"#utility.yul\":6063:6133   */\n      swap8\n      pop\n        /* \"#utility.yul\":6156:6216   */\n      tag_251\n        /* \"#utility.yul\":6209:6215   */\n      dup4\n        /* \"#utility.yul\":6156:6216   */\n      tag_138\n      jump\t// in\n    tag_251:\n        /* \"#utility.yul\":6146:6216   */\n      swap3\n      pop\n        /* \"#utility.yul\":6002:6226   */\n      pop\n        /* \"#utility.yul\":5989:5990   */\n      0x01\n        /* \"#utility.yul\":5986:5987   */\n      dup2\n        /* \"#utility.yul\":5982:5991   */\n      add\n        /* \"#utility.yul\":5977:5991   */\n      swap1\n      pop\n        /* \"#utility.yul\":5942:6226   */\n      jump(tag_247)\n    tag_249:\n        /* \"#utility.yul\":5946:5960   */\n      pop\n        /* \"#utility.yul\":6242:6245   */\n      dup6\n        /* \"#utility.yul\":6235:6245   */\n      swap4\n      pop\n        /* \"#utility.yul\":5643:6251   */\n      pop\n      pop\n      pop\n        /* \"#utility.yul\":5519:6251   */\n      swap3\n      swap2\n      pop\n      pop\n      jump\t// out\n        /* \"#utility.yul\":6257:7231   */\n    tag_16:\n        /* \"#utility.yul\":6568:6572   */\n      0x00\n        /* \"#utility.yul\":6606:6609   */\n      0x80\n        /* \"#utility.yul\":6595:6604   */\n      dup3\n        /* \"#utility.yul\":6591:6610   */\n      add\n        /* \"#utility.yul\":6583:6610   */\n      swap1\n      pop\n        /* \"#utility.yul\":6656:6665   */\n      dup2\n        /* \"#utility.yul\":6650:6654   */\n      dup2\n        /* \"#utility.yul\":6646:6666   */\n      sub\n        /* \"#utility.yul\":6642:6643   */\n      0x00\n        /* \"#utility.yul\":6631:6640   */\n      dup4\n        /* \"#utility.yul\":6627:6644   */\n      add\n        /* \"#utility.yul\":6620:6667   */\n      mstore\n        /* \"#utility.yul\":6684:6762   */\n      tag_253\n        /* \"#utility.yul\":6757:6761   */\n      dup2\n        /* \"#utility.yul\":6748:6754   */\n      dup8\n        /* \"#utility.yul\":6684:6762   */\n      tag_122\n      jump\t// in\n    tag_253:\n        /* \"#utility.yul\":6676:6762   */\n      swap1\n      pop\n        /* \"#utility.yul\":6772:6838   */\n      tag_254\n        /* \"#utility.yul\":6834:6836   */\n      0x20\n        /* \"#utility.yul\":6823:6832   */\n      dup4\n        /* \"#utility.yul\":6819:6837   */\n      add\n        /* \"#utility.yul\":6810:6816   */\n      dup7\n        /* \"#utility.yul\":6772:6838   */\n      tag_124\n      jump\t// in\n    tag_254:\n        /* \"#utility.yul\":6885:6894   */\n      dup2\n        /* \"#utility.yul\":6879:6883   */\n      dup2\n        /* \"#utility.yul\":6875:6895   */\n      sub\n        /* \"#utility.yul\":6870:6872   */\n      0x40\n        /* \"#utility.yul\":6859:6868   */\n      dup4\n        /* \"#utility.yul\":6855:6873   */\n      add\n        /* \"#utility.yul\":6848:6896   */\n      mstore\n        /* \"#utility.yul\":6913:7041   */\n      tag_255\n        /* \"#utility.yul\":7036:7040   */\n      dup2\n        /* \"#utility.yul\":7027:7033   */\n      dup6\n        /* \"#utility.yul\":6913:7041   */\n      tag_132\n      jump\t// in\n    tag_255:\n        /* \"#utility.yul\":6905:7041   */\n      swap1\n      pop\n        /* \"#utility.yul\":7088:7097   */\n      dup2\n        /* \"#utility.yul\":7082:7086   */\n      dup2\n        /* \"#utility.yul\":7078:7098   */\n      sub\n        /* \"#utility.yul\":7073:7075   */\n      0x60\n        /* \"#utility.yul\":7062:7071   */\n      dup4\n        /* \"#utility.yul\":7058:7076   */\n      add\n        /* \"#utility.yul\":7051:7099   */\n      mstore\n        /* \"#utility.yul\":7116:7224   */\n      tag_256\n        /* \"#utility.yul\":7219:7223   */\n      dup2\n        /* \"#utility.yul\":7210:7216   */\n      dup5\n        /* \"#utility.yul\":7116:7224   */\n      tag_139\n      jump\t// in\n    tag_256:\n        /* \"#utility.yul\":7108:7224   */\n      swap1\n      pop\n        /* \"#utility.yul\":6257:7231   */\n      swap6\n      swap5\n      pop\n      pop\n      pop\n      pop\n      pop\n      jump\t// out\n        /* \"#utility.yul\":7237:7363   */\n    tag_140:\n        /* \"#utility.yul\":7274:7281   */\n      0x00\n        /* \"#utility.yul\":7314:7356   */\n      0xffffffffffffffffffffffffffffffffffffffff\n        /* \"#utility.yul\":7307:7312   */\n      dup3\n        /* \"#utility.yul\":7303:7357   */\n      and\n        /* \"#utility.yul\":7292:7357   */\n      swap1\n      pop\n        /* \"#utility.yul\":7237:7363   */\n      swap2\n      swap1\n      pop\n      jump\t// out\n        /* \"#utility.yul\":7369:7465   */\n    tag_141:\n        /* \"#utility.yul\":7406:7413   */\n      0x00\n        /* \"#utility.yul\":7435:7459   */\n      tag_259\n        /* \"#utility.yul\":7453:7458   */\n      dup3\n        /* \"#utility.yul\":7435:7459   */\n      tag_140\n      jump\t// in\n    tag_259:\n        /* \"#utility.yul\":7424:7459   */\n      swap1\n      pop\n        /* \"#utility.yul\":7369:7465   */\n      swap2\n      swap1\n      pop\n      jump\t// out\n        /* \"#utility.yul\":7471:7589   */\n    tag_142:\n        /* \"#utility.yul\":7558:7582   */\n      tag_261\n        /* \"#utility.yul\":7576:7581   */\n      dup2\n        /* \"#utility.yul\":7558:7582   */\n      tag_141\n      jump\t// in\n    tag_261:\n        /* \"#utility.yul\":7553:7556   */\n      dup3\n        /* \"#utility.yul\":7546:7583   */\n      mstore\n        /* \"#utility.yul\":7471:7589   */\n      pop\n      pop\n      jump\t// out\n        /* \"#utility.yul\":7595:8116   */\n    tag_21:\n        /* \"#utility.yul\":7758:7762   */\n      0x00\n        /* \"#utility.yul\":7796:7798   */\n      0x60\n        /* \"#utility.yul\":7785:7794   */\n      dup3\n        /* \"#utility.yul\":7781:7799   */\n      add\n        /* \"#utility.yul\":7773:7799   */\n      swap1\n      pop\n        /* \"#utility.yul\":7845:7854   */\n      dup2\n        /* \"#utility.yul\":7839:7843   */\n      dup2\n        /* \"#utility.yul\":7835:7855   */\n      sub\n        /* \"#utility.yul\":7831:7832   */\n      0x00\n        /* \"#utility.yul\":7820:7829   */\n      dup4\n        /* \"#utility.yul\":7816:7833   */\n      add\n        /* \"#utility.yul\":7809:7856   */\n      mstore\n        /* \"#utility.yul\":7873:7951   */\n      tag_263\n        /* \"#utility.yul\":7946:7950   */\n      dup2\n        /* \"#utility.yul\":7937:7943   */\n      dup7\n        /* \"#utility.yul\":7873:7951   */\n      tag_122\n      jump\t// in\n    tag_263:\n        /* \"#utility.yul\":7865:7951   */\n      swap1\n      pop\n        /* \"#utility.yul\":7961:8033   */\n      tag_264\n        /* \"#utility.yul\":8029:8031   */\n      0x20\n        /* \"#utility.yul\":8018:8027   */\n      dup4\n        /* \"#utility.yul\":8014:8032   */\n      add\n        /* \"#utility.yul\":8005:8011   */\n      dup6\n        /* \"#utility.yul\":7961:8033   */\n      tag_142\n      jump\t// in\n    tag_264:\n        /* \"#utility.yul\":8043:8109   */\n      tag_265\n        /* \"#utility.yul\":8105:8107   */\n      0x40\n        /* \"#utility.yul\":8094:8103   */\n      dup4\n        /* \"#utility.yul\":8090:8108   */\n      add\n        /* \"#utility.yul\":8081:8087   */\n      dup5\n        /* \"#utility.yul\":8043:8109   */\n      tag_124\n      jump\t// in\n    tag_265:\n        /* \"#utility.yul\":7595:8116   */\n      swap5\n      swap4\n      pop\n      pop\n      pop\n      pop\n      jump\t// out\n        /* \"#utility.yul\":8122:8596   */\n    tag_24:\n        /* \"#utility.yul\":8190:8196   */\n      0x00\n        /* \"#utility.yul\":8198:8204   */\n      dup1\n        /* \"#utility.yul\":8247:8249   */\n      0x40\n        /* \"#utility.yul\":8235:8244   */\n      dup4\n        /* \"#utility.yul\":8226:8233   */\n      dup6\n        /* \"#utility.yul\":8222:8245   */\n      sub\n        /* \"#utility.yul\":8218:8250   */\n      slt\n        /* \"#utility.yul\":8215:8334   */\n      iszero\n      tag_267\n      jumpi\n        /* \"#utility.yul\":8253:8332   */\n      tag_268\n      tag_113\n      jump\t// in\n    tag_268:\n        /* \"#utility.yul\":8215:8334   */\n    tag_267:\n        /* \"#utility.yul\":8373:8374   */\n      0x00\n        /* \"#utility.yul\":8398:8451   */\n      tag_269\n        /* \"#utility.yul\":8443:8450   */\n      dup6\n        /* \"#utility.yul\":8434:8440   */\n      dup3\n        /* \"#utility.yul\":8423:8432   */\n      dup7\n        /* \"#utility.yul\":8419:8441   */\n      add\n        /* \"#utility.yul\":8398:8451   */\n      tag_117\n      jump\t// in\n    tag_269:\n        /* \"#utility.yul\":8388:8451   */\n      swap3\n      pop\n        /* \"#utility.yul\":8344:8461   */\n      pop\n        /* \"#utility.yul\":8500:8502   */\n      0x20\n        /* \"#utility.yul\":8526:8579   */\n      tag_270\n        /* \"#utility.yul\":8571:8578   */\n      dup6\n        /* \"#utility.yul\":8562:8568   */\n      dup3\n        /* \"#utility.yul\":8551:8560   */\n      dup7\n        /* \"#utility.yul\":8547:8569   */\n      add\n        /* \"#utility.yul\":8526:8579   */\n      tag_117\n      jump\t// in\n    tag_270:\n        /* \"#utility.yul\":8516:8579   */\n      swap2\n      pop\n        /* \"#utility.yul\":8471:8589   */\n      pop\n        /* \"#utility.yul\":8122:8596   */\n      swap3\n      pop\n      swap3\n      swap1\n      pop\n      jump\t// out\n        /* \"#utility.yul\":8602:8719   */\n    tag_143:\n        /* \"#utility.yul\":8711:8712   */\n      0x00\n        /* \"#utility.yul\":8708:8709   */\n      dup1\n        /* \"#utility.yul\":8701:8713   */\n      revert\n        /* \"#utility.yul\":8725:8842   */\n    tag_144:\n        /* \"#utility.yul\":8834:8835   */\n      0x00\n        /* \"#utility.yul\":8831:8832   */\n      dup1\n        /* \"#utility.yul\":8824:8836   */\n      revert\n        /* \"#utility.yul\":8848:9028   */\n    tag_42:\n        /* \"#utility.yul\":8896:8973   */\n      0x4e487b7100000000000000000000000000000000000000000000000000000000\n        /* \"#utility.yul\":8893:8894   */\n      0x00\n        /* \"#utility.yul\":8886:8974   */\n      mstore\n        /* \"#utility.yul\":8993:8997   */\n      0x41\n        /* \"#utility.yul\":8990:8991   */\n      0x04\n        /* \"#utility.yul\":8983:8998   */\n      mstore\n        /* \"#utility.yul\":9017:9021   */\n      0x24\n        /* \"#utility.yul\":9014:9015   */\n      0x00\n        /* \"#utility.yul\":9007:9022   */\n      revert\n        /* \"#utility.yul\":9034:9315   */\n    tag_145:\n        /* \"#utility.yul\":9117:9144   */\n      tag_275\n        /* \"#utility.yul\":9139:9143   */\n      dup3\n        /* \"#utility.yul\":9117:9144   */\n      tag_121\n      jump\t// in\n    tag_275:\n        /* \"#utility.yul\":9109:9115   */\n      dup2\n        /* \"#utility.yul\":9105:9145   */\n      add\n        /* \"#utility.yul\":9247:9253   */\n      dup2\n        /* \"#utility.yul\":9235:9245   */\n      dup2\n        /* \"#utility.yul\":9232:9254   */\n      lt\n        /* \"#utility.yul\":9211:9229   */\n      0xffffffffffffffff\n        /* \"#utility.yul\":9199:9209   */\n      dup3\n        /* \"#utility.yul\":9196:9230   */\n      gt\n        /* \"#utility.yul\":9193:9255   */\n      or\n        /* \"#utility.yul\":9190:9278   */\n      iszero\n      tag_276\n      jumpi\n        /* \"#utility.yul\":9258:9276   */\n      tag_277\n      tag_42\n      jump\t// in\n    tag_277:\n        /* \"#utility.yul\":9190:9278   */\n    tag_276:\n        /* \"#utility.yul\":9298:9308   */\n      dup1\n        /* \"#utility.yul\":9294:9296   */\n      0x40\n        /* \"#utility.yul\":9287:9309   */\n      mstore\n        /* \"#utility.yul\":9077:9315   */\n      pop\n        /* \"#utility.yul\":9034:9315   */\n      pop\n      pop\n      jump\t// out\n        /* \"#utility.yul\":9321:9450   */\n    tag_146:\n        /* \"#utility.yul\":9355:9361   */\n      0x00\n        /* \"#utility.yul\":9382:9402   */\n      tag_279\n      tag_112\n      jump\t// in\n    tag_279:\n        /* \"#utility.yul\":9372:9402   */\n      swap1\n      pop\n        /* \"#utility.yul\":9411:9444   */\n      tag_280\n        /* \"#utility.yul\":9439:9443   */\n      dup3\n        /* \"#utility.yul\":9431:9437   */\n      dup3\n        /* \"#utility.yul\":9411:9444   */\n      tag_145\n      jump\t// in\n    tag_280:\n        /* \"#utility.yul\":9321:9450   */\n      swap2\n      swap1\n      pop\n      jump\t// out\n        /* \"#utility.yul\":9456:9764   */\n    tag_147:\n        /* \"#utility.yul\":9518:9522   */\n      0x00\n        /* \"#utility.yul\":9608:9626   */\n      0xffffffffffffffff\n        /* \"#utility.yul\":9600:9606   */\n      dup3\n        /* \"#utility.yul\":9597:9627   */\n      gt\n        /* \"#utility.yul\":9594:9650   */\n      iszero\n      tag_282\n      jumpi\n        /* \"#utility.yul\":9630:9648   */\n      tag_283\n      tag_42\n      jump\t// in\n    tag_283:\n        /* \"#utility.yul\":9594:9650   */\n    tag_282:\n        /* \"#utility.yul\":9668:9697   */\n      tag_284\n        /* \"#utility.yul\":9690:9696   */\n      dup3\n        /* \"#utility.yul\":9668:9697   */\n      tag_121\n      jump\t// in\n    tag_284:\n        /* \"#utility.yul\":9660:9697   */\n      swap1\n      pop\n        /* \"#utility.yul\":9752:9756   */\n      0x20\n        /* \"#utility.yul\":9746:9750   */\n      dup2\n        /* \"#utility.yul\":9742:9757   */\n      add\n        /* \"#utility.yul\":9734:9757   */\n      swap1\n      pop\n        /* \"#utility.yul\":9456:9764   */\n      swap2\n      swap1\n      pop\n      jump\t// out\n        /* \"#utility.yul\":9770:9918   */\n    tag_148:\n        /* \"#utility.yul\":9868:9874   */\n      dup3\n        /* \"#utility.yul\":9863:9866   */\n      dup2\n        /* \"#utility.yul\":9858:9861   */\n      dup4\n        /* \"#utility.yul\":9845:9875   */\n      calldatacopy\n        /* \"#utility.yul\":9909:9910   */\n      0x00\n        /* \"#utility.yul\":9900:9906   */\n      dup4\n        /* \"#utility.yul\":9895:9898   */\n      dup4\n        /* \"#utility.yul\":9891:9907   */\n      add\n        /* \"#utility.yul\":9884:9911   */\n      mstore\n        /* \"#utility.yul\":9770:9918   */\n      pop\n      pop\n      pop\n      jump\t// out\n        /* \"#utility.yul\":9924:10349   */\n    tag_149:\n        /* \"#utility.yul\":10002:10007   */\n      0x00\n        /* \"#utility.yul\":10027:10093   */\n      tag_287\n        /* \"#utility.yul\":10043:10092   */\n      tag_288\n        /* \"#utility.yul\":10085:10091   */\n      dup5\n        /* \"#utility.yul\":10043:10092   */\n      tag_147\n      jump\t// in\n    tag_288:\n        /* \"#utility.yul\":10027:10093   */\n      tag_146\n      jump\t// in\n    tag_287:\n        /* \"#utility.yul\":10018:10093   */\n      swap1\n      pop\n        /* \"#utility.yul\":10116:10122   */\n      dup3\n        /* \"#utility.yul\":10109:10114   */\n      dup2\n        /* \"#utility.yul\":10102:10123   */\n      mstore\n        /* \"#utility.yul\":10154:10158   */\n      0x20\n        /* \"#utility.yul\":10147:10152   */\n      dup2\n        /* \"#utility.yul\":10143:10159   */\n      add\n        /* \"#utility.yul\":10192:10195   */\n      dup5\n        /* \"#utility.yul\":10183:10189   */\n      dup5\n        /* \"#utility.yul\":10178:10181   */\n      dup5\n        /* \"#utility.yul\":10174:10190   */\n      add\n        /* \"#utility.yul\":10171:10196   */\n      gt\n        /* \"#utility.yul\":10168:10280   */\n      iszero\n      tag_289\n      jumpi\n        /* \"#utility.yul\":10199:10278   */\n      tag_290\n      tag_144\n      jump\t// in\n    tag_290:\n        /* \"#utility.yul\":10168:10280   */\n    tag_289:\n        /* \"#utility.yul\":10289:10343   */\n      tag_291\n        /* \"#utility.yul\":10336:10342   */\n      dup5\n        /* \"#utility.yul\":10331:10334   */\n      dup3\n        /* \"#utility.yul\":10326:10329   */\n      dup6\n        /* \"#utility.yul\":10289:10343   */\n      tag_148\n      jump\t// in\n    tag_291:\n        /* \"#utility.yul\":10008:10349   */\n      pop\n        /* \"#utility.yul\":9924:10349   */\n      swap4\n      swap3\n      pop\n      pop\n      pop\n      jump\t// out\n        /* \"#utility.yul\":10369:10709   */\n    tag_150:\n        /* \"#utility.yul\":10425:10430   */\n      0x00\n        /* \"#utility.yul\":10474:10477   */\n      dup3\n        /* \"#utility.yul\":10467:10471   */\n      0x1f\n        /* \"#utility.yul\":10459:10465   */\n      dup4\n        /* \"#utility.yul\":10455:10472   */\n      add\n        /* \"#utility.yul\":10451:10478   */\n      slt\n        /* \"#utility.yul\":10441:10563   */\n      tag_293\n      jumpi\n        /* \"#utility.yul\":10482:10561   */\n      tag_294\n      tag_143\n      jump\t// in\n    tag_294:\n        /* \"#utility.yul\":10441:10563   */\n    tag_293:\n        /* \"#utility.yul\":10599:10605   */\n      dup2\n        /* \"#utility.yul\":10586:10606   */\n      calldataload\n        /* \"#utility.yul\":10624:10703   */\n      tag_295\n        /* \"#utility.yul\":10699:10702   */\n      dup5\n        /* \"#utility.yul\":10691:10697   */\n      dup3\n        /* \"#utility.yul\":10684:10688   */\n      0x20\n        /* \"#utility.yul\":10676:10682   */\n      dup7\n        /* \"#utility.yul\":10672:10689   */\n      add\n        /* \"#utility.yul\":10624:10703   */\n      tag_149\n      jump\t// in\n    tag_295:\n        /* \"#utility.yul\":10615:10703   */\n      swap2\n      pop\n        /* \"#utility.yul\":10431:10709   */\n      pop\n        /* \"#utility.yul\":10369:10709   */\n      swap3\n      swap2\n      pop\n      pop\n      jump\t// out\n        /* \"#utility.yul\":10715:11036   */\n    tag_151:\n        /* \"#utility.yul\":10802:10806   */\n      0x00\n        /* \"#utility.yul\":10892:10910   */\n      0xffffffffffffffff\n        /* \"#utility.yul\":10884:10890   */\n      dup3\n        /* \"#utility.yul\":10881:10911   */\n      gt\n        /* \"#utility.yul\":10878:10934   */\n      iszero\n      tag_297\n      jumpi\n        /* \"#utility.yul\":10914:10932   */\n      tag_298\n      tag_42\n      jump\t// in\n    tag_298:\n        /* \"#utility.yul\":10878:10934   */\n    tag_297:\n        /* \"#utility.yul\":10964:10968   */\n      0x20\n        /* \"#utility.yul\":10956:10962   */\n      dup3\n        /* \"#utility.yul\":10952:10969   */\n      mul\n        /* \"#utility.yul\":10944:10969   */\n      swap1\n      pop\n        /* \"#utility.yul\":11024:11028   */\n      0x20\n        /* \"#utility.yul\":11018:11022   */\n      dup2\n        /* \"#utility.yul\":11014:11029   */\n      add\n        /* \"#utility.yul\":11006:11029   */\n      swap1\n      pop\n        /* \"#utility.yul\":10715:11036   */\n      swap2\n      swap1\n      pop\n      jump\t// out\n        /* \"#utility.yul\":11042:11159   */\n    tag_152:\n        /* \"#utility.yul\":11151:11152   */\n      0x00\n        /* \"#utility.yul\":11148:11149   */\n      dup1\n        /* \"#utility.yul\":11141:11153   */\n      revert\n        /* \"#utility.yul\":11181:12126   */\n    tag_153:\n        /* \"#utility.yul\":11287:11292   */\n      0x00\n        /* \"#utility.yul\":11312:11403   */\n      tag_301\n        /* \"#utility.yul\":11328:11402   */\n      tag_302\n        /* \"#utility.yul\":11395:11401   */\n      dup5\n        /* \"#utility.yul\":11328:11402   */\n      tag_151\n      jump\t// in\n    tag_302:\n        /* \"#utility.yul\":11312:11403   */\n      tag_146\n      jump\t// in\n    tag_301:\n        /* \"#utility.yul\":11303:11403   */\n      swap1\n      pop\n        /* \"#utility.yul\":11423:11428   */\n      dup1\n        /* \"#utility.yul\":11452:11458   */\n      dup4\n        /* \"#utility.yul\":11445:11450   */\n      dup3\n        /* \"#utility.yul\":11438:11459   */\n      mstore\n        /* \"#utility.yul\":11486:11490   */\n      0x20\n        /* \"#utility.yul\":11479:11484   */\n      dup3\n        /* \"#utility.yul\":11475:11491   */\n      add\n        /* \"#utility.yul\":11468:11491   */\n      swap1\n      pop\n        /* \"#utility.yul\":11539:11543   */\n      0x20\n        /* \"#utility.yul\":11531:11537   */\n      dup5\n        /* \"#utility.yul\":11527:11544   */\n      mul\n        /* \"#utility.yul\":11519:11525   */\n      dup4\n        /* \"#utility.yul\":11515:11545   */\n      add\n        /* \"#utility.yul\":11568:11571   */\n      dup6\n        /* \"#utility.yul\":11560:11566   */\n      dup2\n        /* \"#utility.yul\":11557:11572   */\n      gt\n        /* \"#utility.yul\":11554:11676   */\n      iszero\n      tag_303\n      jumpi\n        /* \"#utility.yul\":11587:11666   */\n      tag_304\n      tag_152\n      jump\t// in\n    tag_304:\n        /* \"#utility.yul\":11554:11676   */\n    tag_303:\n        /* \"#utility.yul\":11702:11708   */\n      dup4\n        /* \"#utility.yul\":11685:12120   */\n    tag_305:\n        /* \"#utility.yul\":11719:11725   */\n      dup2\n        /* \"#utility.yul\":11714:11717   */\n      dup2\n        /* \"#utility.yul\":11711:11726   */\n      lt\n        /* \"#utility.yul\":11685:12120   */\n      iszero\n      tag_307\n      jumpi\n        /* \"#utility.yul\":11808:11811   */\n      dup1\n        /* \"#utility.yul\":11795:11812   */\n      calldataload\n        /* \"#utility.yul\":11844:11862   */\n      0xffffffffffffffff\n        /* \"#utility.yul\":11831:11842   */\n      dup2\n        /* \"#utility.yul\":11828:11863   */\n      gt\n        /* \"#utility.yul\":11825:11947   */\n      iszero\n      tag_308\n      jumpi\n        /* \"#utility.yul\":11866:11945   */\n      tag_309\n      tag_143\n      jump\t// in\n    tag_309:\n        /* \"#utility.yul\":11825:11947   */\n    tag_308:\n        /* \"#utility.yul\":11990:12001   */\n      dup1\n        /* \"#utility.yul\":11982:11988   */\n      dup7\n        /* \"#utility.yul\":11978:12002   */\n      add\n        /* \"#utility.yul\":12028:12075   */\n      tag_310\n        /* \"#utility.yul\":12071:12074   */\n      dup10\n        /* \"#utility.yul\":12059:12069   */\n      dup3\n        /* \"#utility.yul\":12028:12075   */\n      tag_150\n      jump\t// in\n    tag_310:\n        /* \"#utility.yul\":12023:12026   */\n      dup6\n        /* \"#utility.yul\":12016:12076   */\n      mstore\n        /* \"#utility.yul\":12105:12109   */\n      0x20\n        /* \"#utility.yul\":12100:12103   */\n      dup6\n        /* \"#utility.yul\":12096:12110   */\n      add\n        /* \"#utility.yul\":12089:12110   */\n      swap5\n      pop\n        /* \"#utility.yul\":11761:12120   */\n      pop\n      pop\n        /* \"#utility.yul\":11745:11749   */\n      0x20\n        /* \"#utility.yul\":11740:11743   */\n      dup2\n        /* \"#utility.yul\":11736:11750   */\n      add\n        /* \"#utility.yul\":11729:11750   */\n      swap1\n      pop\n        /* \"#utility.yul\":11685:12120   */\n      jump(tag_305)\n    tag_307:\n        /* \"#utility.yul\":11689:11710   */\n      pop\n        /* \"#utility.yul\":11293:12126   */\n      pop\n      pop\n        /* \"#utility.yul\":11181:12126   */\n      swap4\n      swap3\n      pop\n      pop\n      pop\n      jump\t// out\n        /* \"#utility.yul\":12148:12538   */\n    tag_154:\n        /* \"#utility.yul\":12229:12234   */\n      0x00\n        /* \"#utility.yul\":12278:12281   */\n      dup3\n        /* \"#utility.yul\":12271:12275   */\n      0x1f\n        /* \"#utility.yul\":12263:12269   */\n      dup4\n        /* \"#utility.yul\":12259:12276   */\n      add\n        /* \"#utility.yul\":12255:12282   */\n      slt\n        /* \"#utility.yul\":12245:12367   */\n      tag_312\n      jumpi\n        /* \"#utility.yul\":12286:12365   */\n      tag_313\n      tag_143\n      jump\t// in\n    tag_313:\n        /* \"#utility.yul\":12245:12367   */\n    tag_312:\n        /* \"#utility.yul\":12403:12409   */\n      dup2\n        /* \"#utility.yul\":12390:12410   */\n      calldataload\n        /* \"#utility.yul\":12428:12532   */\n      tag_314\n        /* \"#utility.yul\":12528:12531   */\n      dup5\n        /* \"#utility.yul\":12520:12526   */\n      dup3\n        /* \"#utility.yul\":12513:12517   */\n      0x20\n        /* \"#utility.yul\":12505:12511   */\n      dup7\n        /* \"#utility.yul\":12501:12518   */\n      add\n        /* \"#utility.yul\":12428:12532   */\n      tag_153\n      jump\t// in\n    tag_314:\n        /* \"#utility.yul\":12419:12532   */\n      swap2\n      pop\n        /* \"#utility.yul\":12235:12538   */\n      pop\n        /* \"#utility.yul\":12148:12538   */\n      swap3\n      swap2\n      pop\n      pop\n      jump\t// out\n        /* \"#utility.yul\":12544:13428   */\n    tag_28:\n        /* \"#utility.yul\":12657:12663   */\n      0x00\n        /* \"#utility.yul\":12665:12671   */\n      dup1\n        /* \"#utility.yul\":12714:12716   */\n      0x40\n        /* \"#utility.yul\":12702:12711   */\n      dup4\n        /* \"#utility.yul\":12693:12700   */\n      dup6\n        /* \"#utility.yul\":12689:12712   */\n      sub\n        /* \"#utility.yul\":12685:12717   */\n      slt\n        /* \"#utility.yul\":12682:12801   */\n      iszero\n      tag_316\n      jumpi\n        /* \"#utility.yul\":12720:12799   */\n      tag_317\n      tag_113\n      jump\t// in\n    tag_317:\n        /* \"#utility.yul\":12682:12801   */\n    tag_316:\n        /* \"#utility.yul\":12868:12869   */\n      0x00\n        /* \"#utility.yul\":12857:12866   */\n      dup4\n        /* \"#utility.yul\":12853:12870   */\n      add\n        /* \"#utility.yul\":12840:12871   */\n      calldataload\n        /* \"#utility.yul\":12898:12916   */\n      0xffffffffffffffff\n        /* \"#utility.yul\":12890:12896   */\n      dup2\n        /* \"#utility.yul\":12887:12917   */\n      gt\n        /* \"#utility.yul\":12884:13001   */\n      iszero\n      tag_318\n      jumpi\n        /* \"#utility.yul\":12920:12999   */\n      tag_319\n      tag_114\n      jump\t// in\n    tag_319:\n        /* \"#utility.yul\":12884:13001   */\n    tag_318:\n        /* \"#utility.yul\":13025:13088   */\n      tag_320\n        /* \"#utility.yul\":13080:13087   */\n      dup6\n        /* \"#utility.yul\":13071:13077   */\n      dup3\n        /* \"#utility.yul\":13060:13069   */\n      dup7\n        /* \"#utility.yul\":13056:13078   */\n      add\n        /* \"#utility.yul\":13025:13088   */\n      tag_150\n      jump\t// in\n    tag_320:\n        /* \"#utility.yul\":13015:13088   */\n      swap3\n      pop\n        /* \"#utility.yul\":12811:13098   */\n      pop\n        /* \"#utility.yul\":13165:13167   */\n      0x20\n        /* \"#utility.yul\":13154:13163   */\n      dup4\n        /* \"#utility.yul\":13150:13168   */\n      add\n        /* \"#utility.yul\":13137:13169   */\n      calldataload\n        /* \"#utility.yul\":13196:13214   */\n      0xffffffffffffffff\n        /* \"#utility.yul\":13188:13194   */\n      dup2\n        /* \"#utility.yul\":13185:13215   */\n      gt\n        /* \"#utility.yul\":13182:13299   */\n      iszero\n      tag_321\n      jumpi\n        /* \"#utility.yul\":13218:13297   */\n      tag_322\n      tag_114\n      jump\t// in\n    tag_322:\n        /* \"#utility.yul\":13182:13299   */\n    tag_321:\n        /* \"#utility.yul\":13323:13411   */\n      tag_323\n        /* \"#utility.yul\":13403:13410   */\n      dup6\n        /* \"#utility.yul\":13394:13400   */\n      dup3\n        /* \"#utility.yul\":13383:13392   */\n      dup7\n        /* \"#utility.yul\":13379:13401   */\n      add\n        /* \"#utility.yul\":13323:13411   */\n      tag_154\n      jump\t// in\n    tag_323:\n        /* \"#utility.yul\":13313:13411   */\n      swap2\n      pop\n        /* \"#utility.yul\":13108:13421   */\n      pop\n        /* \"#utility.yul\":12544:13428   */\n      swap3\n      pop\n      swap3\n      swap1\n      pop\n      jump\t// out\n        /* \"#utility.yul\":13434:13608   */\n    tag_155:\n        /* \"#utility.yul\":13574:13600   */\n      0x456e7175657465206a6120666f6920656e636572726164610000000000000000\n        /* \"#utility.yul\":13570:13571   */\n      0x00\n        /* \"#utility.yul\":13562:13568   */\n      dup3\n        /* \"#utility.yul\":13558:13572   */\n      add\n        /* \"#utility.yul\":13551:13601   */\n      mstore\n        /* \"#utility.yul\":13434:13608   */\n      pop\n      jump\t// out\n        /* \"#utility.yul\":13614:13980   */\n    tag_156:\n        /* \"#utility.yul\":13756:13759   */\n      0x00\n        /* \"#utility.yul\":13777:13844   */\n      tag_326\n        /* \"#utility.yul\":13841:13843   */\n      0x18\n        /* \"#utility.yul\":13836:13839   */\n      dup4\n        /* \"#utility.yul\":13777:13844   */\n      tag_119\n      jump\t// in\n    tag_326:\n        /* \"#utility.yul\":13770:13844   */\n      swap2\n      pop\n        /* \"#utility.yul\":13853:13946   */\n      tag_327\n        /* \"#utility.yul\":13942:13945   */\n      dup3\n        /* \"#utility.yul\":13853:13946   */\n      tag_155\n      jump\t// in\n    tag_327:\n        /* \"#utility.yul\":13971:13973   */\n      0x20\n        /* \"#utility.yul\":13966:13969   */\n      dup3\n        /* \"#utility.yul\":13962:13974   */\n      add\n        /* \"#utility.yul\":13955:13974   */\n      swap1\n      pop\n        /* \"#utility.yul\":13614:13980   */\n      swap2\n      swap1\n      pop\n      jump\t// out\n        /* \"#utility.yul\":13986:14405   */\n    tag_33:\n        /* \"#utility.yul\":14152:14156   */\n      0x00\n        /* \"#utility.yul\":14190:14192   */\n      0x20\n        /* \"#utility.yul\":14179:14188   */\n      dup3\n        /* \"#utility.yul\":14175:14193   */\n      add\n        /* \"#utility.yul\":14167:14193   */\n      swap1\n      pop\n        /* \"#utility.yul\":14239:14248   */\n      dup2\n        /* \"#utility.yul\":14233:14237   */\n      dup2\n        /* \"#utility.yul\":14229:14249   */\n      sub\n        /* \"#utility.yul\":14225:14226   */\n      0x00\n        /* \"#utility.yul\":14214:14223   */\n      dup4\n        /* \"#utility.yul\":14210:14227   */\n      add\n        /* \"#utility.yul\":14203:14250   */\n      mstore\n        /* \"#utility.yul\":14267:14398   */\n      tag_329\n        /* \"#utility.yul\":14393:14397   */\n      dup2\n        /* \"#utility.yul\":14267:14398   */\n      tag_156\n      jump\t// in\n    tag_329:\n        /* \"#utility.yul\":14259:14398   */\n      swap1\n      pop\n        /* \"#utility.yul\":13986:14405   */\n      swap2\n      swap1\n      pop\n      jump\t// out\n        /* \"#utility.yul\":14411:14639   */\n    tag_157:\n        /* \"#utility.yul\":14551:14585   */\n      0x536f6d656e7465206f2063726961646f7220706f646520656e63657272617220\n        /* \"#utility.yul\":14547:14548   */\n      0x00\n        /* \"#utility.yul\":14539:14545   */\n      dup3\n        /* \"#utility.yul\":14535:14549   */\n      add\n        /* \"#utility.yul\":14528:14586   */\n      mstore\n        /* \"#utility.yul\":14620:14631   */\n      0x6120656e71756574650000000000000000000000000000000000000000000000\n        /* \"#utility.yul\":14615:14617   */\n      0x20\n        /* \"#utility.yul\":14607:14613   */\n      dup3\n        /* \"#utility.yul\":14603:14618   */\n      add\n        /* \"#utility.yul\":14596:14632   */\n      mstore\n        /* \"#utility.yul\":14411:14639   */\n      pop\n      jump\t// out\n        /* \"#utility.yul\":14645:15011   */\n    tag_158:\n        /* \"#utility.yul\":14787:14790   */\n      0x00\n        /* \"#utility.yul\":14808:14875   */\n      tag_332\n        /* \"#utility.yul\":14872:14874   */\n      0x29\n        /* \"#utility.yul\":14867:14870   */\n      dup4\n        /* \"#utility.yul\":14808:14875   */\n      tag_119\n      jump\t// in\n    tag_332:\n        /* \"#utility.yul\":14801:14875   */\n      swap2\n      pop\n        /* \"#utility.yul\":14884:14977   */\n      tag_333\n        /* \"#utility.yul\":14973:14976   */\n      dup3\n        /* \"#utility.yul\":14884:14977   */\n      tag_157\n      jump\t// in\n    tag_333:\n        /* \"#utility.yul\":15002:15004   */\n      0x40\n        /* \"#utility.yul\":14997:15000   */\n      dup3\n        /* \"#utility.yul\":14993:15005   */\n      add\n        /* \"#utility.yul\":14986:15005   */\n      swap1\n      pop\n        /* \"#utility.yul\":14645:15011   */\n      swap2\n      swap1\n      pop\n      jump\t// out\n        /* \"#utility.yul\":15017:15436   */\n    tag_36:\n        /* \"#utility.yul\":15183:15187   */\n      0x00\n        /* \"#utility.yul\":15221:15223   */\n      0x20\n        /* \"#utility.yul\":15210:15219   */\n      dup3\n        /* \"#utility.yul\":15206:15224   */\n      add\n        /* \"#utility.yul\":15198:15224   */\n      swap1\n      pop\n        /* \"#utility.yul\":15270:15279   */\n      dup2\n        /* \"#utility.yul\":15264:15268   */\n      dup2\n        /* \"#utility.yul\":15260:15280   */\n      sub\n        /* \"#utility.yul\":15256:15257   */\n      0x00\n        /* \"#utility.yul\":15245:15254   */\n      dup4\n        /* \"#utility.yul\":15241:15258   */\n      add\n        /* \"#utility.yul\":15234:15281   */\n      mstore\n        /* \"#utility.yul\":15298:15429   */\n      tag_335\n        /* \"#utility.yul\":15424:15428   */\n      dup2\n        /* \"#utility.yul\":15298:15429   */\n      tag_158\n      jump\t// in\n    tag_335:\n        /* \"#utility.yul\":15290:15429   */\n      swap1\n      pop\n        /* \"#utility.yul\":15017:15436   */\n      swap2\n      swap1\n      pop\n      jump\t// out\n        /* \"#utility.yul\":15442:15560   */\n    tag_159:\n        /* \"#utility.yul\":15529:15553   */\n      tag_337\n        /* \"#utility.yul\":15547:15552   */\n      dup2\n        /* \"#utility.yul\":15529:15553   */\n      tag_115\n      jump\t// in\n    tag_337:\n        /* \"#utility.yul\":15524:15527   */\n      dup3\n        /* \"#utility.yul\":15517:15554   */\n      mstore\n        /* \"#utility.yul\":15442:15560   */\n      pop\n      pop\n      jump\t// out\n        /* \"#utility.yul\":15566:15898   */\n    tag_38:\n        /* \"#utility.yul\":15687:15691   */\n      0x00\n        /* \"#utility.yul\":15725:15727   */\n      0x40\n        /* \"#utility.yul\":15714:15723   */\n      dup3\n        /* \"#utility.yul\":15710:15728   */\n      add\n        /* \"#utility.yul\":15702:15728   */\n      swap1\n      pop\n        /* \"#utility.yul\":15738:15809   */\n      tag_339\n        /* \"#utility.yul\":15806:15807   */\n      0x00\n        /* \"#utility.yul\":15795:15804   */\n      dup4\n        /* \"#utility.yul\":15791:15808   */\n      add\n        /* \"#utility.yul\":15782:15788   */\n      dup6\n        /* \"#utility.yul\":15738:15809   */\n      tag_159\n      jump\t// in\n    tag_339:\n        /* \"#utility.yul\":15819:15891   */\n      tag_340\n        /* \"#utility.yul\":15887:15889   */\n      0x20\n        /* \"#utility.yul\":15876:15885   */\n      dup4\n        /* \"#utility.yul\":15872:15890   */\n      add\n        /* \"#utility.yul\":15863:15869   */\n      dup5\n        /* \"#utility.yul\":15819:15891   */\n      tag_142\n      jump\t// in\n    tag_340:\n        /* \"#utility.yul\":15566:15898   */\n      swap4\n      swap3\n      pop\n      pop\n      pop\n      jump\t// out\n        /* \"#utility.yul\":15904:16084   */\n    tag_53:\n        /* \"#utility.yul\":15952:16029   */\n      0x4e487b7100000000000000000000000000000000000000000000000000000000\n        /* \"#utility.yul\":15949:15950   */\n      0x00\n        /* \"#utility.yul\":15942:16030   */\n      mstore\n        /* \"#utility.yul\":16049:16053   */\n      0x32\n        /* \"#utility.yul\":16046:16047   */\n      0x04\n        /* \"#utility.yul\":16039:16054   */\n      mstore\n        /* \"#utility.yul\":16073:16077   */\n      0x24\n        /* \"#utility.yul\":16070:16071   */\n      0x00\n        /* \"#utility.yul\":16063:16078   */\n      revert\n        /* \"#utility.yul\":16090:16270   */\n    tag_160:\n        /* \"#utility.yul\":16138:16215   */\n      0x4e487b7100000000000000000000000000000000000000000000000000000000\n        /* \"#utility.yul\":16135:16136   */\n      0x00\n        /* \"#utility.yul\":16128:16216   */\n      mstore\n        /* \"#utility.yul\":16235:16239   */\n      0x22\n        /* \"#utility.yul\":16232:16233   */\n      0x04\n        /* \"#utility.yul\":16225:16240   */\n      mstore\n        /* \"#utility.yul\":16259:16263   */\n      0x24\n        /* \"#utility.yul\":16256:16257   */\n      0x00\n        /* \"#utility.yul\":16249:16264   */\n      revert\n        /* \"#utility.yul\":16276:16596   */\n    tag_56:\n        /* \"#utility.yul\":16320:16326   */\n      0x00\n        /* \"#utility.yul\":16357:16358   */\n      0x02\n        /* \"#utility.yul\":16351:16355   */\n      dup3\n        /* \"#utility.yul\":16347:16359   */\n      div\n        /* \"#utility.yul\":16337:16359   */\n      swap1\n      pop\n        /* \"#utility.yul\":16404:16405   */\n      0x01\n        /* \"#utility.yul\":16398:16402   */\n      dup3\n        /* \"#utility.yul\":16394:16406   */\n      and\n        /* \"#utility.yul\":16425:16443   */\n      dup1\n        /* \"#utility.yul\":16415:16496   */\n      tag_344\n      jumpi\n        /* \"#utility.yul\":16481:16485   */\n      0x7f\n        /* \"#utility.yul\":16473:16479   */\n      dup3\n        /* \"#utility.yul\":16469:16486   */\n      and\n        /* \"#utility.yul\":16459:16486   */\n      swap2\n      pop\n        /* \"#utility.yul\":16415:16496   */\n    tag_344:\n        /* \"#utility.yul\":16543:16545   */\n      0x20\n        /* \"#utility.yul\":16535:16541   */\n      dup3\n        /* \"#utility.yul\":16532:16546   */\n      lt\n        /* \"#utility.yul\":16512:16530   */\n      dup2\n        /* \"#utility.yul\":16509:16547   */\n      sub\n        /* \"#utility.yul\":16506:16590   */\n      tag_345\n      jumpi\n        /* \"#utility.yul\":16562:16580   */\n      tag_346\n      tag_160\n      jump\t// in\n    tag_346:\n        /* \"#utility.yul\":16506:16590   */\n    tag_345:\n        /* \"#utility.yul\":16327:16596   */\n      pop\n        /* \"#utility.yul\":16276:16596   */\n      swap2\n      swap1\n      pop\n      jump\t// out\n        /* \"#utility.yul\":16602:16775   */\n    tag_161:\n        /* \"#utility.yul\":16742:16767   */\n      0x456e7175656e7465206573746120656e63657272616461000000000000000000\n        /* \"#utility.yul\":16738:16739   */\n      0x00\n        /* \"#utility.yul\":16730:16736   */\n      dup3\n        /* \"#utility.yul\":16726:16740   */\n      add\n        /* \"#utility.yul\":16719:16768   */\n      mstore\n        /* \"#utility.yul\":16602:16775   */\n      pop\n      jump\t// out\n        /* \"#utility.yul\":16781:17147   */\n    tag_162:\n        /* \"#utility.yul\":16923:16926   */\n      0x00\n        /* \"#utility.yul\":16944:17011   */\n      tag_349\n        /* \"#utility.yul\":17008:17010   */\n      0x17\n        /* \"#utility.yul\":17003:17006   */\n      dup4\n        /* \"#utility.yul\":16944:17011   */\n      tag_119\n      jump\t// in\n    tag_349:\n        /* \"#utility.yul\":16937:17011   */\n      swap2\n      pop\n        /* \"#utility.yul\":17020:17113   */\n      tag_350\n        /* \"#utility.yul\":17109:17112   */\n      dup3\n        /* \"#utility.yul\":17020:17113   */\n      tag_161\n      jump\t// in\n    tag_350:\n        /* \"#utility.yul\":17138:17140   */\n      0x20\n        /* \"#utility.yul\":17133:17136   */\n      dup3\n        /* \"#utility.yul\":17129:17141   */\n      add\n        /* \"#utility.yul\":17122:17141   */\n      swap1\n      pop\n        /* \"#utility.yul\":16781:17147   */\n      swap2\n      swap1\n      pop\n      jump\t// out\n        /* \"#utility.yul\":17153:17572   */\n    tag_81:\n        /* \"#utility.yul\":17319:17323   */\n      0x00\n        /* \"#utility.yul\":17357:17359   */\n      0x20\n        /* \"#utility.yul\":17346:17355   */\n      dup3\n        /* \"#utility.yul\":17342:17360   */\n      add\n        /* \"#utility.yul\":17334:17360   */\n      swap1\n      pop\n        /* \"#utility.yul\":17406:17415   */\n      dup2\n        /* \"#utility.yul\":17400:17404   */\n      dup2\n        /* \"#utility.yul\":17396:17416   */\n      sub\n        /* \"#utility.yul\":17392:17393   */\n      0x00\n        /* \"#utility.yul\":17381:17390   */\n      dup4\n        /* \"#utility.yul\":17377:17394   */\n      add\n        /* \"#utility.yul\":17370:17417   */\n      mstore\n        /* \"#utility.yul\":17434:17565   */\n      tag_352\n        /* \"#utility.yul\":17560:17564   */\n      dup2\n        /* \"#utility.yul\":17434:17565   */\n      tag_162\n      jump\t// in\n    tag_352:\n        /* \"#utility.yul\":17426:17565   */\n      swap1\n      pop\n        /* \"#utility.yul\":17153:17572   */\n      swap2\n      swap1\n      pop\n      jump\t// out\n        /* \"#utility.yul\":17578:17792   */\n    tag_163:\n        /* \"#utility.yul\":17718:17784   */\n      0x566f63c3aa206a6120766f746f75000000000000000000000000000000000000\n        /* \"#utility.yul\":17714:17715   */\n      0x00\n        /* \"#utility.yul\":17706:17712   */\n      dup3\n        /* \"#utility.yul\":17702:17716   */\n      add\n        /* \"#utility.yul\":17695:17785   */\n      mstore\n        /* \"#utility.yul\":17578:17792   */\n      pop\n      jump\t// out\n        /* \"#utility.yul\":17798:18164   */\n    tag_164:\n        /* \"#utility.yul\":17940:17943   */\n      0x00\n        /* \"#utility.yul\":17961:18028   */\n      tag_355\n        /* \"#utility.yul\":18025:18027   */\n      0x0e\n        /* \"#utility.yul\":18020:18023   */\n      dup4\n        /* \"#utility.yul\":17961:18028   */\n      tag_119\n      jump\t// in\n    tag_355:\n        /* \"#utility.yul\":17954:18028   */\n      swap2\n      pop\n        /* \"#utility.yul\":18037:18130   */\n      tag_356\n        /* \"#utility.yul\":18126:18129   */\n      dup3\n        /* \"#utility.yul\":18037:18130   */\n      tag_163\n      jump\t// in\n    tag_356:\n        /* \"#utility.yul\":18155:18157   */\n      0x20\n        /* \"#utility.yul\":18150:18153   */\n      dup3\n        /* \"#utility.yul\":18146:18158   */\n      add\n        /* \"#utility.yul\":18139:18158   */\n      swap1\n      pop\n        /* \"#utility.yul\":17798:18164   */\n      swap2\n      swap1\n      pop\n      jump\t// out\n        /* \"#utility.yul\":18170:18589   */\n    tag_84:\n        /* \"#utility.yul\":18336:18340   */\n      0x00\n        /* \"#utility.yul\":18374:18376   */\n      0x20\n        /* \"#utility.yul\":18363:18372   */\n      dup3\n        /* \"#utility.yul\":18359:18377   */\n      add\n        /* \"#utility.yul\":18351:18377   */\n      swap1\n      pop\n        /* \"#utility.yul\":18423:18432   */\n      dup2\n        /* \"#utility.yul\":18417:18421   */\n      dup2\n        /* \"#utility.yul\":18413:18433   */\n      sub\n        /* \"#utility.yul\":18409:18410   */\n      0x00\n        /* \"#utility.yul\":18398:18407   */\n      dup4\n        /* \"#utility.yul\":18394:18411   */\n      add\n        /* \"#utility.yul\":18387:18434   */\n      mstore\n        /* \"#utility.yul\":18451:18582   */\n      tag_358\n        /* \"#utility.yul\":18577:18581   */\n      dup2\n        /* \"#utility.yul\":18451:18582   */\n      tag_164\n      jump\t// in\n    tag_358:\n        /* \"#utility.yul\":18443:18582   */\n      swap1\n      pop\n        /* \"#utility.yul\":18170:18589   */\n      swap2\n      swap1\n      pop\n      jump\t// out\n        /* \"#utility.yul\":18595:18761   */\n    tag_165:\n        /* \"#utility.yul\":18735:18753   */\n      0x4573636f6c686120696e76616c69646100000000000000000000000000000000\n        /* \"#utility.yul\":18731:18732   */\n      0x00\n        /* \"#utility.yul\":18723:18729   */\n      dup3\n        /* \"#utility.yul\":18719:18733   */\n      add\n        /* \"#utility.yul\":18712:18754   */\n      mstore\n        /* \"#utility.yul\":18595:18761   */\n      pop\n      jump\t// out\n        /* \"#utility.yul\":18767:19133   */\n    tag_166:\n        /* \"#utility.yul\":18909:18912   */\n      0x00\n        /* \"#utility.yul\":18930:18997   */\n      tag_361\n        /* \"#utility.yul\":18994:18996   */\n      0x10\n        /* \"#utility.yul\":18989:18992   */\n      dup4\n        /* \"#utility.yul\":18930:18997   */\n      tag_119\n      jump\t// in\n    tag_361:\n        /* \"#utility.yul\":18923:18997   */\n      swap2\n      pop\n        /* \"#utility.yul\":19006:19099   */\n      tag_362\n        /* \"#utility.yul\":19095:19098   */\n      dup3\n        /* \"#utility.yul\":19006:19099   */\n      tag_165\n      jump\t// in\n    tag_362:\n        /* \"#utility.yul\":19124:19126   */\n      0x20\n        /* \"#utility.yul\":19119:19122   */\n      dup3\n        /* \"#utility.yul\":19115:19127   */\n      add\n        /* \"#utility.yul\":19108:19127   */\n      swap1\n      pop\n        /* \"#utility.yul\":18767:19133   */\n      swap2\n      swap1\n      pop\n      jump\t// out\n        /* \"#utility.yul\":19139:19558   */\n    tag_87:\n        /* \"#utility.yul\":19305:19309   */\n      0x00\n        /* \"#utility.yul\":19343:19345   */\n      0x20\n        /* \"#utility.yul\":19332:19341   */\n      dup3\n        /* \"#utility.yul\":19328:19346   */\n      add\n        /* \"#utility.yul\":19320:19346   */\n      swap1\n      pop\n        /* \"#utility.yul\":19392:19401   */\n      dup2\n        /* \"#utility.yul\":19386:19390   */\n      dup2\n        /* \"#utility.yul\":19382:19402   */\n      sub\n        /* \"#utility.yul\":19378:19379   */\n      0x00\n        /* \"#utility.yul\":19367:19376   */\n      dup4\n        /* \"#utility.yul\":19363:19380   */\n      add\n        /* \"#utility.yul\":19356:19403   */\n      mstore\n        /* \"#utility.yul\":19420:19551   */\n      tag_364\n        /* \"#utility.yul\":19546:19550   */\n      dup2\n        /* \"#utility.yul\":19420:19551   */\n      tag_166\n      jump\t// in\n    tag_364:\n        /* \"#utility.yul\":19412:19551   */\n      swap1\n      pop\n        /* \"#utility.yul\":19139:19558   */\n      swap2\n      swap1\n      pop\n      jump\t// out\n        /* \"#utility.yul\":19564:19744   */\n    tag_167:\n        /* \"#utility.yul\":19612:19689   */\n      0x4e487b7100000000000000000000000000000000000000000000000000000000\n        /* \"#utility.yul\":19609:19610   */\n      0x00\n        /* \"#utility.yul\":19602:19690   */\n      mstore\n        /* \"#utility.yul\":19709:19713   */\n      0x11\n        /* \"#utility.yul\":19706:19707   */\n      0x04\n        /* \"#utility.yul\":19699:19714   */\n      mstore\n        /* \"#utility.yul\":19733:19737   */\n      0x24\n        /* \"#utility.yul\":19730:19731   */\n      0x00\n        /* \"#utility.yul\":19723:19738   */\n      revert\n        /* \"#utility.yul\":19750:19983   */\n    tag_92:\n        /* \"#utility.yul\":19789:19792   */\n      0x00\n        /* \"#utility.yul\":19812:19836   */\n      tag_367\n        /* \"#utility.yul\":19830:19835   */\n      dup3\n        /* \"#utility.yul\":19812:19836   */\n      tag_115\n      jump\t// in\n    tag_367:\n        /* \"#utility.yul\":19803:19836   */\n      swap2\n      pop\n        /* \"#utility.yul\":19858:19924   */\n      0xffffffffffffffffffffffffffffffffffffffffffffffffffffffffffffffff\n        /* \"#utility.yul\":19851:19856   */\n      dup3\n        /* \"#utility.yul\":19848:19925   */\n      sub\n        /* \"#utility.yul\":19845:19948   */\n      tag_368\n      jumpi\n        /* \"#utility.yul\":19928:19946   */\n      tag_369\n      tag_167\n      jump\t// in\n    tag_369:\n        /* \"#utility.yul\":19845:19948   */\n    tag_368:\n        /* \"#utility.yul\":19975:19976   */\n      0x01\n        /* \"#utility.yul\":19968:19973   */\n      dup3\n        /* \"#utility.yul\":19964:19977   */\n      add\n        /* \"#utility.yul\":19957:19977   */\n      swap1\n      pop\n        /* \"#utility.yul\":19750:19983   */\n      swap2\n      swap1\n      pop\n      jump\t// out\n        /* \"#utility.yul\":19989:20431   */\n    tag_94:\n        /* \"#utility.yul\":20138:20142   */\n      0x00\n        /* \"#utility.yul\":20176:20178   */\n      0x60\n        /* \"#utility.yul\":20165:20174   */\n      dup3\n        /* \"#utility.yul\":20161:20179   */\n      add\n        /* \"#utility.yul\":20153:20179   */\n      swap1\n      pop\n        /* \"#utility.yul\":20189:20260   */\n      tag_371\n        /* \"#utility.yul\":20257:20258   */\n      0x00\n        /* \"#utility.yul\":20246:20255   */\n      dup4\n        /* \"#utility.yul\":20242:20259   */\n      add\n        /* \"#utility.yul\":20233:20239   */\n      dup7\n        /* \"#utility.yul\":20189:20260   */\n      tag_159\n      jump\t// in\n    tag_371:\n        /* \"#utility.yul\":20270:20342   */\n      tag_372\n        /* \"#utility.yul\":20338:20340   */\n      0x20\n        /* \"#utility.yul\":20327:20336   */\n      dup4\n        /* \"#utility.yul\":20323:20341   */\n      add\n        /* \"#utility.yul\":20314:20320   */\n      dup6\n        /* \"#utility.yul\":20270:20342   */\n      tag_159\n      jump\t// in\n    tag_372:\n        /* \"#utility.yul\":20352:20424   */\n      tag_373\n        /* \"#utility.yul\":20420:20422   */\n      0x40\n        /* \"#utility.yul\":20409:20418   */\n      dup4\n        /* \"#utility.yul\":20405:20423   */\n      add\n        /* \"#utility.yul\":20396:20402   */\n      dup5\n        /* \"#utility.yul\":20352:20424   */\n      tag_142\n      jump\t// in\n    tag_373:\n        /* \"#utility.yul\":19989:20431   */\n      swap5\n      swap4\n      pop\n      pop\n      pop\n      pop\n      jump\t// out\n        /* \"#utility.yul\":20437:20752   */\n    tag_168:\n        /* \"#utility.yul\":20577:20643   */\n      0x446576652d736520696e636c7569722070656c6f206d656e6f732032206f70c3\n        /* \"#utility.yul\":20573:20574   */\n      0x00\n        /* \"#utility.yul\":20565:20571   */\n      dup3\n        /* \"#utility.yul\":20561:20575   */\n      add\n        /* \"#utility.yul\":20554:20644   */\n      mstore\n        /* \"#utility.yul\":20678:20744   */\n      0xa7c3b565732065206e6f206d6178696d6f203130206f70c3b565730000000000\n        /* \"#utility.yul\":20673:20675   */\n      0x20\n        /* \"#utility.yul\":20665:20671   */\n      dup3\n        /* \"#utility.yul\":20661:20676   */\n      add\n        /* \"#utility.yul\":20654:20745   */\n      mstore\n        /* \"#utility.yul\":20437:20752   */\n      pop\n      jump\t// out\n        /* \"#utility.yul\":20758:21124   */\n    tag_169:\n        /* \"#utility.yul\":20900:20903   */\n      0x00\n        /* \"#utility.yul\":20921:20988   */\n      tag_376\n        /* \"#utility.yul\":20985:20987   */\n      0x3b\n        /* \"#utility.yul\":20980:20983   */\n      dup4\n        /* \"#utility.yul\":20921:20988   */\n      tag_119\n      jump\t// in\n    tag_376:\n        /* \"#utility.yul\":20914:20988   */\n      swap2\n      pop\n        /* \"#utility.yul\":20997:21090   */\n      tag_377\n        /* \"#utility.yul\":21086:21089   */\n      dup3\n        /* \"#utility.yul\":20997:21090   */\n      tag_168\n      jump\t// in\n    tag_377:\n        /* \"#utility.yul\":21115:21117   */\n      0x40\n        /* \"#utility.yul\":21110:21113   */\n      dup3\n        /* \"#utility.yul\":21106:21118   */\n      add\n        /* \"#utility.yul\":21099:21118   */\n      swap1\n      pop\n        /* \"#utility.yul\":20758:21124   */\n      swap2\n      swap1\n      pop\n      jump\t// out\n        /* \"#utility.yul\":21130:21549   */\n    tag_99:\n        /* \"#utility.yul\":21296:21300   */\n      0x00\n        /* \"#utility.yul\":21334:21336   */\n      0x20\n        /* \"#utility.yul\":21323:21332   */\n      dup3\n        /* \"#utility.yul\":21319:21337   */\n      add\n        /* \"#utility.yul\":21311:21337   */\n      swap1\n      pop\n        /* \"#utility.yul\":21383:21392   */\n      dup2\n        /* \"#utility.yul\":21377:21381   */\n      dup2\n        /* \"#utility.yul\":21373:21393   */\n      sub\n        /* \"#utility.yul\":21369:21370   */\n      0x00\n        /* \"#utility.yul\":21358:21367   */\n      dup4\n        /* \"#utility.yul\":21354:21371   */\n      add\n        /* \"#utility.yul\":21347:21394   */\n      mstore\n        /* \"#utility.yul\":21411:21542   */\n      tag_379\n        /* \"#utility.yul\":21537:21541   */\n      dup2\n        /* \"#utility.yul\":21411:21542   */\n      tag_169\n      jump\t// in\n    tag_379:\n        /* \"#utility.yul\":21403:21542   */\n      swap1\n      pop\n        /* \"#utility.yul\":21130:21549   */\n      swap2\n      swap1\n      pop\n      jump\t// out\n        /* \"#utility.yul\":21555:21696   */\n    tag_170:\n        /* \"#utility.yul\":21604:21608   */\n      0x00\n        /* \"#utility.yul\":21627:21630   */\n      dup2\n        /* \"#utility.yul\":21619:21630   */\n      swap1\n      pop\n        /* \"#utility.yul\":21650:21653   */\n      dup2\n        /* \"#utility.yul\":21647:21648   */\n      0x00\n        /* \"#utility.yul\":21640:21654   */\n      mstore\n        /* \"#utility.yul\":21684:21688   */\n      0x20\n        /* \"#utility.yul\":21681:21682   */\n      0x00\n        /* \"#utility.yul\":21671:21689   */\n      keccak256\n        /* \"#utility.yul\":21663:21689   */\n      swap1\n      pop\n        /* \"#utility.yul\":21555:21696   */\n      swap2\n      swap1\n      pop\n      jump\t// out\n        /* \"#utility.yul\":21702:21795   */\n    tag_171:\n        /* \"#utility.yul\":21739:21745   */\n      0x00\n        /* \"#utility.yul\":21786:21788   */\n      0x20\n        /* \"#utility.yul\":21781:21783   */\n      0x1f\n        /* \"#utility.yul\":21774:21779   */\n      dup4\n        /* \"#utility.yul\":21770:21784   */\n      add\n        /* \"#utility.yul\":21766:21789   */\n      div\n        /* \"#utility.yul\":21756:21789   */\n      swap1\n      pop\n        /* \"#utility.yul\":21702:21795   */\n      swap2\n      swap1\n      pop\n      jump\t// out\n        /* \"#utility.yul\":21801:21908   */\n    tag_172:\n        /* \"#utility.yul\":21845:21853   */\n      0x00\n        /* \"#utility.yul\":21895:21900   */\n      dup3\n        /* \"#utility.yul\":21889:21893   */\n      dup3\n        /* \"#utility.yul\":21885:21901   */\n      shl\n        /* \"#utility.yul\":21864:21901   */\n      swap1\n      pop\n        /* \"#utility.yul\":21801:21908   */\n      swap3\n      swap2\n      pop\n      pop\n      jump\t// out\n        /* \"#utility.yul\":21914:22307   */\n    tag_173:\n        /* \"#utility.yul\":21983:21989   */\n      0x00\n        /* \"#utility.yul\":22033:22034   */\n      0x08\n        /* \"#utility.yul\":22021:22031   */\n      dup4\n        /* \"#utility.yul\":22017:22035   */\n      mul\n        /* \"#utility.yul\":22056:22153   */\n      tag_384\n        /* \"#utility.yul\":22086:22152   */\n      0xffffffffffffffffffffffffffffffffffffffffffffffffffffffffffffffff\n        /* \"#utility.yul\":22075:22084   */\n      dup3\n        /* \"#utility.yul\":22056:22153   */\n      tag_172\n      jump\t// in\n    tag_384:\n        /* \"#utility.yul\":22174:22213   */\n      tag_385\n        /* \"#utility.yul\":22204:22212   */\n      dup7\n        /* \"#utility.yul\":22193:22202   */\n      dup4\n        /* \"#utility.yul\":22174:22213   */\n      tag_172\n      jump\t// in\n    tag_385:\n        /* \"#utility.yul\":22162:22213   */\n      swap6\n      pop\n        /* \"#utility.yul\":22246:22250   */\n      dup1\n        /* \"#utility.yul\":22242:22251   */\n      not\n        /* \"#utility.yul\":22235:22240   */\n      dup5\n        /* \"#utility.yul\":22231:22252   */\n      and\n        /* \"#utility.yul\":22222:22252   */\n      swap4\n      pop\n        /* \"#utility.yul\":22295:22299   */\n      dup1\n        /* \"#utility.yul\":22285:22293   */\n      dup7\n        /* \"#utility.yul\":22281:22300   */\n      and\n        /* \"#utility.yul\":22274:22279   */\n      dup5\n        /* \"#utility.yul\":22271:22301   */\n      or\n        /* \"#utility.yul\":22261:22301   */\n      swap3\n      pop\n        /* \"#utility.yul\":21990:22307   */\n      pop\n      pop\n        /* \"#utility.yul\":21914:22307   */\n      swap4\n      swap3\n      pop\n      pop\n      pop\n      jump\t// out\n        /* \"#utility.yul\":22313:22373   */\n    tag_174:\n        /* \"#utility.yul\":22341:22344   */\n      0x00\n        /* \"#utility.yul\":22362:22367   */\n      dup2\n        /* \"#utility.yul\":22355:22367   */\n      swap1\n      pop\n        /* \"#utility.yul\":22313:22373   */\n      swap2\n      swap1\n      pop\n      jump\t// out\n        /* \"#utility.yul\":22379:22521   */\n    tag_175:\n        /* \"#utility.yul\":22429:22438   */\n      0x00\n        /* \"#utility.yul\":22462:22515   */\n      tag_388\n        /* \"#utility.yul\":22480:22514   */\n      tag_389\n        /* \"#utility.yul\":22489:22513   */\n      tag_390\n        /* \"#utility.yul\":22507:22512   */\n      dup5\n        /* \"#utility.yul\":22489:22513   */\n      tag_115\n      jump\t// in\n    tag_390:\n        /* \"#utility.yul\":22480:22514   */\n      tag_174\n      jump\t// in\n    tag_389:\n        /* \"#utility.yul\":22462:22515   */\n      tag_115\n      jump\t// in\n    tag_388:\n        /* \"#utility.yul\":22449:22515   */\n      swap1\n      pop\n        /* \"#utility.yul\":22379:22521   */\n      swap2\n      swap1\n      pop\n      jump\t// out\n        /* \"#utility.yul\":22527:22602   */\n    tag_176:\n        /* \"#utility.yul\":22570:22573   */\n      0x00\n        /* \"#utility.yul\":22591:22596   */\n      dup2\n        /* \"#utility.yul\":22584:22596   */\n      swap1\n      pop\n        /* \"#utility.yul\":22527:22602   */\n      swap2\n      swap1\n      pop\n      jump\t// out\n        /* \"#utility.yul\":22608:22877   */\n    tag_177:\n        /* \"#utility.yul\":22718:22757   */\n      tag_393\n        /* \"#utility.yul\":22749:22756   */\n      dup4\n        /* \"#utility.yul\":22718:22757   */\n      tag_175\n      jump\t// in\n    tag_393:\n        /* \"#utility.yul\":22779:22870   */\n      tag_394\n        /* \"#utility.yul\":22828:22869   */\n      tag_395\n        /* \"#utility.yul\":22852:22868   */\n      dup3\n        /* \"#utility.yul\":22828:22869   */\n      tag_176\n      jump\t// in\n    tag_395:\n        /* \"#utility.yul\":22820:22826   */\n      dup5\n        /* \"#utility.yul\":22813:22817   */\n      dup5\n        /* \"#utility.yul\":22807:22818   */\n      sload\n        /* \"#utility.yul\":22779:22870   */\n      tag_173\n      jump\t// in\n    tag_394:\n        /* \"#utility.yul\":22773:22777   */\n      dup3\n        /* \"#utility.yul\":22766:22871   */\n      sstore\n        /* \"#utility.yul\":22684:22877   */\n      pop\n        /* \"#utility.yul\":22608:22877   */\n      pop\n      pop\n      pop\n      jump\t// out\n        /* \"#utility.yul\":22883:22956   */\n    tag_178:\n        /* \"#utility.yul\":22928:22931   */\n      0x00\n        /* \"#utility.yul\":22883:22956   */\n      swap1\n      jump\t// out\n        /* \"#utility.yul\":22962:23151   */\n    tag_179:\n        /* \"#utility.yul\":23039:23071   */\n      tag_398\n      tag_178\n      jump\t// in\n    tag_398:\n        /* \"#utility.yul\":23080:23145   */\n      tag_399\n        /* \"#utility.yul\":23138:23144   */\n      dup2\n        /* \"#utility.yul\":23130:23136   */\n      dup5\n        /* \"#utility.yul\":23124:23128   */\n      dup5\n        /* \"#utility.yul\":23080:23145   */\n      tag_177\n      jump\t// in\n    tag_399:\n        /* \"#utility.yul\":23015:23151   */\n      pop\n        /* \"#utility.yul\":22962:23151   */\n      pop\n      pop\n      jump\t// out\n        /* \"#utility.yul\":23157:23343   */\n    tag_180:\n        /* \"#utility.yul\":23217:23337   */\n    tag_401:\n        /* \"#utility.yul\":23234:23237   */\n      dup2\n        /* \"#utility.yul\":23227:23232   */\n      dup2\n        /* \"#utility.yul\":23224:23238   */\n      lt\n        /* \"#utility.yul\":23217:23337   */\n      iszero\n      tag_403\n      jumpi\n        /* \"#utility.yul\":23288:23327   */\n      tag_404\n        /* \"#utility.yul\":23325:23326   */\n      0x00\n        /* \"#utility.yul\":23318:23323   */\n      dup3\n        /* \"#utility.yul\":23288:23327   */\n      tag_179\n      jump\t// in\n    tag_404:\n        /* \"#utility.yul\":23261:23262   */\n      0x01\n        /* \"#utility.yul\":23254:23259   */\n      dup2\n        /* \"#utility.yul\":23250:23263   */\n      add\n        /* \"#utility.yul\":23241:23263   */\n      swap1\n      pop\n        /* \"#utility.yul\":23217:23337   */\n      jump(tag_401)\n    tag_403:\n        /* \"#utility.yul\":23157:23343   */\n      pop\n      pop\n      jump\t// out\n        /* \"#utility.yul\":23349:23892   */\n    tag_181:\n        /* \"#utility.yul\":23450:23452   */\n      0x1f\n        /* \"#utility.yul\":23445:23448   */\n      dup3\n        /* \"#utility.yul\":23442:23453   */\n      gt\n        /* \"#utility.yul\":23439:23885   */\n      iszero\n      tag_406\n      jumpi\n        /* \"#utility.yul\":23484:23522   */\n      tag_407\n        /* \"#utility.yul\":23516:23521   */\n      dup2\n        /* \"#utility.yul\":23484:23522   */\n      tag_170\n      jump\t// in\n    tag_407:\n        /* \"#utility.yul\":23568:23597   */\n      tag_408\n        /* \"#utility.yul\":23586:23596   */\n      dup5\n        /* \"#utility.yul\":23568:23597   */\n      tag_171\n      jump\t// in\n    tag_408:\n        /* \"#utility.yul\":23558:23566   */\n      dup2\n        /* \"#utility.yul\":23554:23598   */\n      add\n        /* \"#utility.yul\":23751:23753   */\n      0x20\n        /* \"#utility.yul\":23739:23749   */\n      dup6\n        /* \"#utility.yul\":23736:23754   */\n      lt\n        /* \"#utility.yul\":23733:23782   */\n      iszero\n      tag_409\n      jumpi\n        /* \"#utility.yul\":23772:23780   */\n      dup2\n        /* \"#utility.yul\":23757:23780   */\n      swap1\n      pop\n        /* \"#utility.yul\":23733:23782   */\n    tag_409:\n        /* \"#utility.yul\":23795:23875   */\n      tag_410\n        /* \"#utility.yul\":23851:23873   */\n      tag_411\n        /* \"#utility.yul\":23869:23872   */\n      dup6\n        /* \"#utility.yul\":23851:23873   */\n      tag_171\n      jump\t// in\n    tag_411:\n        /* \"#utility.yul\":23841:23849   */\n      dup4\n        /* \"#utility.yul\":23837:23874   */\n      add\n        /* \"#utility.yul\":23824:23835   */\n      dup3\n        /* \"#utility.yul\":23795:23875   */\n      tag_180\n      jump\t// in\n    tag_410:\n        /* \"#utility.yul\":23454:23885   */\n      pop\n      pop\n        /* \"#utility.yul\":23439:23885   */\n    tag_406:\n        /* \"#utility.yul\":23349:23892   */\n      pop\n      pop\n      pop\n      jump\t// out\n        /* \"#utility.yul\":23898:24015   */\n    tag_182:\n        /* \"#utility.yul\":23952:23960   */\n      0x00\n        /* \"#utility.yul\":24002:24007   */\n      dup3\n        /* \"#utility.yul\":23996:24000   */\n      dup3\n        /* \"#utility.yul\":23992:24008   */\n      shr\n        /* \"#utility.yul\":23971:24008   */\n      swap1\n      pop\n        /* \"#utility.yul\":23898:24015   */\n      swap3\n      swap2\n      pop\n      pop\n      jump\t// out\n        /* \"#utility.yul\":24021:24190   */\n    tag_183:\n        /* \"#utility.yul\":24065:24071   */\n      0x00\n        /* \"#utility.yul\":24098:24149   */\n      tag_414\n        /* \"#utility.yul\":24146:24147   */\n      0x00\n        /* \"#utility.yul\":24142:24148   */\n      not\n        /* \"#utility.yul\":24134:24139   */\n      dup5\n        /* \"#utility.yul\":24131:24132   */\n      0x08\n        /* \"#utility.yul\":24127:24140   */\n      mul\n        /* \"#utility.yul\":24098:24149   */\n      tag_182\n      jump\t// in\n    tag_414:\n        /* \"#utility.yul\":24094:24150   */\n      not\n        /* \"#utility.yul\":24179:24183   */\n      dup1\n        /* \"#utility.yul\":24173:24177   */\n      dup4\n        /* \"#utility.yul\":24169:24184   */\n      and\n        /* \"#utility.yul\":24159:24184   */\n      swap2\n      pop\n        /* \"#utility.yul\":24072:24190   */\n      pop\n        /* \"#utility.yul\":24021:24190   */\n      swap3\n      swap2\n      pop\n      pop\n      jump\t// out\n        /* \"#utility.yul\":24195:24490   */\n    tag_184:\n        /* \"#utility.yul\":24271:24275   */\n      0x00\n        /* \"#utility.yul\":24417:24446   */\n      tag_416\n        /* \"#utility.yul\":24442:24445   */\n      dup4\n        /* \"#utility.yul\":24436:24440   */\n      dup4\n        /* \"#utility.yul\":24417:24446   */\n      tag_183\n      jump\t// in\n    tag_416:\n        /* \"#utility.yul\":24409:24446   */\n      swap2\n      pop\n        /* \"#utility.yul\":24479:24482   */\n      dup3\n        /* \"#utility.yul\":24476:24477   */\n      0x02\n        /* \"#utility.yul\":24472:24483   */\n      mul\n        /* \"#utility.yul\":24466:24470   */\n      dup3\n        /* \"#utility.yul\":24463:24484   */\n      or\n        /* \"#utility.yul\":24455:24484   */\n      swap1\n      pop\n        /* \"#utility.yul\":24195:24490   */\n      swap3\n      swap2\n      pop\n      pop\n      jump\t// out\n        /* \"#utility.yul\":24495:25890   */\n    tag_102:\n        /* \"#utility.yul\":24612:24649   */\n      tag_418\n        /* \"#utility.yul\":24645:24648   */\n      dup3\n        /* \"#utility.yul\":24612:24649   */\n      tag_118\n      jump\t// in\n    tag_418:\n        /* \"#utility.yul\":24714:24732   */\n      0xffffffffffffffff\n        /* \"#utility.yul\":24706:24712   */\n      dup2\n        /* \"#utility.yul\":24703:24733   */\n      gt\n        /* \"#utility.yul\":24700:24756   */\n      iszero\n      tag_419\n      jumpi\n        /* \"#utility.yul\":24736:24754   */\n      tag_420\n      tag_42\n      jump\t// in\n    tag_420:\n        /* \"#utility.yul\":24700:24756   */\n    tag_419:\n        /* \"#utility.yul\":24780:24818   */\n      tag_421\n        /* \"#utility.yul\":24812:24816   */\n      dup3\n        /* \"#utility.yul\":24806:24817   */\n      sload\n        /* \"#utility.yul\":24780:24818   */\n      tag_56\n      jump\t// in\n    tag_421:\n        /* \"#utility.yul\":24865:24932   */\n      tag_422\n        /* \"#utility.yul\":24925:24931   */\n      dup3\n        /* \"#utility.yul\":24917:24923   */\n      dup3\n        /* \"#utility.yul\":24911:24915   */\n      dup6\n        /* \"#utility.yul\":24865:24932   */\n      tag_181\n      jump\t// in\n    tag_422:\n        /* \"#utility.yul\":24959:24960   */\n      0x00\n        /* \"#utility.yul\":24983:24987   */\n      0x20\n        /* \"#utility.yul\":24970:24987   */\n      swap1\n      pop\n        /* \"#utility.yul\":25015:25017   */\n      0x1f\n        /* \"#utility.yul\":25007:25013   */\n      dup4\n        /* \"#utility.yul\":25004:25018   */\n      gt\n        /* \"#utility.yul\":25032:25033   */\n      0x01\n        /* \"#utility.yul\":25027:25645   */\n      dup2\n      eq\n      tag_424\n      jumpi\n        /* \"#utility.yul\":25689:25690   */\n      0x00\n        /* \"#utility.yul\":25706:25712   */\n      dup5\n        /* \"#utility.yul\":25703:25780   */\n      iszero\n      tag_425\n      jumpi\n        /* \"#utility.yul\":25755:25764   */\n      dup3\n        /* \"#utility.yul\":25750:25753   */\n      dup8\n        /* \"#utility.yul\":25746:25765   */\n      add\n        /* \"#utility.yul\":25740:25766   */\n      mload\n        /* \"#utility.yul\":25731:25766   */\n      swap1\n      pop\n        /* \"#utility.yul\":25703:25780   */\n    tag_425:\n        /* \"#utility.yul\":25806:25873   */\n      tag_426\n        /* \"#utility.yul\":25866:25872   */\n      dup6\n        /* \"#utility.yul\":25859:25864   */\n      dup3\n        /* \"#utility.yul\":25806:25873   */\n      tag_184\n      jump\t// in\n    tag_426:\n        /* \"#utility.yul\":25800:25804   */\n      dup7\n        /* \"#utility.yul\":25793:25874   */\n      sstore\n        /* \"#utility.yul\":25662:25884   */\n      pop\n        /* \"#utility.yul\":24997:25884   */\n      jump(tag_423)\n        /* \"#utility.yul\":25027:25645   */\n    tag_424:\n        /* \"#utility.yul\":25079:25083   */\n      0x1f\n        /* \"#utility.yul\":25075:25084   */\n      not\n        /* \"#utility.yul\":25067:25073   */\n      dup5\n        /* \"#utility.yul\":25063:25085   */\n      and\n        /* \"#utility.yul\":25113:25150   */\n      tag_427\n        /* \"#utility.yul\":25145:25149   */\n      dup7\n        /* \"#utility.yul\":25113:25150   */\n      tag_170\n      jump\t// in\n    tag_427:\n        /* \"#utility.yul\":25172:25173   */\n      0x00\n        /* \"#utility.yul\":25186:25394   */\n    tag_428:\n        /* \"#utility.yul\":25200:25207   */\n      dup3\n        /* \"#utility.yul\":25197:25198   */\n      dup2\n        /* \"#utility.yul\":25194:25208   */\n      lt\n        /* \"#utility.yul\":25186:25394   */\n      iszero\n      tag_430\n      jumpi\n        /* \"#utility.yul\":25279:25288   */\n      dup5\n        /* \"#utility.yul\":25274:25277   */\n      dup10\n        /* \"#utility.yul\":25270:25289   */\n      add\n        /* \"#utility.yul\":25264:25290   */\n      mload\n        /* \"#utility.yul\":25256:25262   */\n      dup3\n        /* \"#utility.yul\":25249:25291   */\n      sstore\n        /* \"#utility.yul\":25330:25331   */\n      0x01\n        /* \"#utility.yul\":25322:25328   */\n      dup3\n        /* \"#utility.yul\":25318:25332   */\n      add\n        /* \"#utility.yul\":25308:25332   */\n      swap2\n      pop\n        /* \"#utility.yul\":25377:25379   */\n      0x20\n        /* \"#utility.yul\":25366:25375   */\n      dup6\n        /* \"#utility.yul\":25362:25380   */\n      add\n        /* \"#utility.yul\":25349:25380   */\n      swap5\n      pop\n        /* \"#utility.yul\":25223:25227   */\n      0x20\n        /* \"#utility.yul\":25220:25221   */\n      dup2\n        /* \"#utility.yul\":25216:25228   */\n      add\n        /* \"#utility.yul\":25211:25228   */\n      swap1\n      pop\n        /* \"#utility.yul\":25186:25394   */\n      jump(tag_428)\n    tag_430:\n        /* \"#utility.yul\":25422:25428   */\n      dup7\n        /* \"#utility.yul\":25413:25420   */\n      dup4\n        /* \"#utility.yul\":25410:25429   */\n      lt\n        /* \"#utility.yul\":25407:25586   */\n      iszero\n      tag_431\n      jumpi\n        /* \"#utility.yul\":25480:25489   */\n      dup5\n        /* \"#utility.yul\":25475:25478   */\n      dup10\n        /* \"#utility.yul\":25471:25490   */\n      add\n        /* \"#utility.yul\":25465:25491   */\n      mload\n        /* \"#utility.yul\":25523:25571   */\n      tag_432\n        /* \"#utility.yul\":25565:25569   */\n      0x1f\n        /* \"#utility.yul\":25557:25563   */\n      dup10\n        /* \"#utility.yul\":25553:25570   */\n      and\n        /* \"#utility.yul\":25542:25551   */\n      dup3\n        /* \"#utility.yul\":25523:25571   */\n      tag_183\n      jump\t// in\n    tag_432:\n        /* \"#utility.yul\":25515:25521   */\n      dup4\n        /* \"#utility.yul\":25508:25572   */\n      sstore\n        /* \"#utility.yul\":25430:25586   */\n      pop\n        /* \"#utility.yul\":25407:25586   */\n    tag_431:\n        /* \"#utility.yul\":25632:25633   */\n      0x01\n        /* \"#utility.yul\":25628:25629   */\n      0x02\n        /* \"#utility.yul\":25620:25626   */\n      dup9\n        /* \"#utility.yul\":25616:25630   */\n      mul\n        /* \"#utility.yul\":25612:25634   */\n      add\n        /* \"#utility.yul\":25606:25610   */\n      dup9\n        /* \"#utility.yul\":25599:25635   */\n      sstore\n        /* \"#utility.yul\":25034:25645   */\n      pop\n      pop\n      pop\n        /* \"#utility.yul\":24997:25884   */\n    tag_423:\n      pop\n        /* \"#utility.yul\":24587:25890   */\n      pop\n      pop\n      pop\n        /* \"#utility.yul\":24495:25890   */\n      pop\n      pop\n      jump\t// out\n        /* \"#utility.yul\":25896:26429   */\n    tag_111:\n        /* \"#utility.yul\":26065:26069   */\n      0x00\n        /* \"#utility.yul\":26103:26105   */\n      0x60\n        /* \"#utility.yul\":26092:26101   */\n      dup3\n        /* \"#utility.yul\":26088:26106   */\n      add\n        /* \"#utility.yul\":26080:26106   */\n      swap1\n      pop\n        /* \"#utility.yul\":26116:26187   */\n      tag_434\n        /* \"#utility.yul\":26184:26185   */\n      0x00\n        /* \"#utility.yul\":26173:26182   */\n      dup4\n        /* \"#utility.yul\":26169:26186   */\n      add\n        /* \"#utility.yul\":26160:26166   */\n      dup7\n        /* \"#utility.yul\":26116:26187   */\n      tag_159\n      jump\t// in\n    tag_434:\n        /* \"#utility.yul\":26234:26243   */\n      dup2\n        /* \"#utility.yul\":26228:26232   */\n      dup2\n        /* \"#utility.yul\":26224:26244   */\n      sub\n        /* \"#utility.yul\":26219:26221   */\n      0x20\n        /* \"#utility.yul\":26208:26217   */\n      dup4\n        /* \"#utility.yul\":26204:26222   */\n      add\n        /* \"#utility.yul\":26197:26245   */\n      mstore\n        /* \"#utility.yul\":26262:26340   */\n      tag_435\n        /* \"#utility.yul\":26335:26339   */\n      dup2\n        /* \"#utility.yul\":26326:26332   */\n      dup6\n        /* \"#utility.yul\":26262:26340   */\n      tag_122\n      jump\t// in\n    tag_435:\n        /* \"#utility.yul\":26254:26340   */\n      swap1\n      pop\n        /* \"#utility.yul\":26350:26422   */\n      tag_436\n        /* \"#utility.yul\":26418:26420   */\n      0x40\n        /* \"#utility.yul\":26407:26416   */\n      dup4\n        /* \"#utility.yul\":26403:26421   */\n      add\n        /* \"#utility.yul\":26394:26400   */\n      dup5\n        /* \"#utility.yul\":26350:26422   */\n      tag_142\n      jump\t// in\n    tag_436:\n        /* \"#utility.yul\":25896:26429   */\n      swap5\n      swap4\n      pop\n      pop\n      pop\n      pop\n      jump\t// out\n\n    auxdata: 0xa26469706673582212207c6e384b56b4a3fa609eb78fc73458ff745ba3d1cdbff4d6c6ab09bcd9d2457a64736f6c634300081a0033\n}\n",
				"bytecode": {
					"linkReferences": {},
					"object": "6080604052348015600f57600080fd5b506117a78061001f6000396000f3fe608060405234801561001057600080fd5b50600436106100575760003560e01c806312038bdb1461005c57806338628855146100785780634eb474f8146100ab5780634fa5a16f146100dd578063c24d551c146100f9575b600080fd5b61007660048036038101906100719190610a1e565b610115565b005b610092600480360381019061008d9190610a1e565b610268565b6040516100a29493929190610cc0565b60405180910390f35b6100c560048036038101906100c09190610a1e565b61050f565b6040516100d493929190610d5b565b60405180910390f35b6100f760048036038101906100f29190610d99565b6105ee565b005b610113600480360381019061010e9190610ff4565b610804565b005b600080600083815260200190815260200160002090508060010160149054906101000a900460ff1661017c576040517f08c379a0000000000000000000000000000000000000000000000000000000008152600401610173906110b8565b60405180910390fd5b3373ffffffffffffffffffffffffffffffffffffffff168160010160009054906101000a900473ffffffffffffffffffffffffffffffffffffffff1673ffffffffffffffffffffffffffffffffffffffff161461020e576040517f08c379a00000000000000000000000000000000000000000000000000000000081526004016102059061114a565b60405180910390fd5b60008160010160146101000a81548160ff0219169083151502179055507f393580696b4731499ad32b6990b4f364566f68cd50da863ebedb09d8242f5b16823360405161025c929190611179565b60405180910390a15050565b60606000606080600080600087815260200190815260200160002090506000816002018054905090508067ffffffffffffffff8111156102ab576102aa610de3565b5b6040519080825280602002602001820160405280156102de57816020015b60608152602001906001900390816102c95790505b5093508067ffffffffffffffff8111156102fb576102fa610de3565b5b6040519080825280602002602001820160405280156103295781602001602082028036833780820191505090505b50925060005b818110156104595782600201818154811061034d5761034c6111a2565b5b9060005260206000209060020201600001805461036990611200565b80601f016020809104026020016040519081016040528092919081815260200182805461039590611200565b80156103e25780601f106103b7576101008083540402835291602001916103e2565b820191906000526020600020905b8154815290600101906020018083116103c557829003601f168201915b50505050508582815181106103fa576103f96111a2565b5b602002602001018190525082600201818154811061041b5761041a6111a2565b5b9060005260206000209060020201600101548482815181106104405761043f6111a2565b5b602002602001018181525050808060010191505061032f565b50816000018260010160149054906101000a900460ff16858583805461047e90611200565b80601f01602080910402602001604051908101604052809291908181526020018280546104aa90611200565b80156104f75780601f106104cc576101008083540402835291602001916104f7565b820191906000526020600020905b8154815290600101906020018083116104da57829003601f168201915b50505050509350955095509550955050509193509193565b600060205280600052604060002060009150905080600001805461053290611200565b80601f016020809104026020016040519081016040528092919081815260200182805461055e90611200565b80156105ab5780601f10610580576101008083540402835291602001916105ab565b820191906000526020600020905b81548152906001019060200180831161058e57829003601f168201915b5050505050908060010160009054906101000a900473ffffffffffffffffffffffffffffffffffffffff16908060010160149054906101000a900460ff16905083565b600080600084815260200190815260200160002090508060010160149054906101000a900460ff16610655576040517f08c379a000000000000000000000000000000000000000000000000000000000815260040161064c9061127d565b60405180910390fd5b8060030160003373ffffffffffffffffffffffffffffffffffffffff1673ffffffffffffffffffffffffffffffffffffffff16815260200190815260200160002060009054906101000a900460ff16156106e4576040517f08c379a00000000000000000000000000000000000000000000000000000000081526004016106db906112e9565b60405180910390fd5b8060020180549050821061072d576040517f08c379a000000000000000000000000000000000000000000000000000000000815260040161072490611355565b60405180910390fd5b806002018281548110610743576107426111a2565b5b90600052602060002090600202016001016000815480929190610765906113a4565b919050555060018160030160003373ffffffffffffffffffffffffffffffffffffffff1673ffffffffffffffffffffffffffffffffffffffff16815260200190815260200160002060006101000a81548160ff0219169083151502179055507f06c2b43ca1e393996f5df0950a375e213f703126c852a69d5ff4114494f168ef8383336040516107f7939291906113ec565b60405180910390a1505050565b60028151101580156108185750600a815111155b610857576040517f08c379a000000000000000000000000000000000000000000000000000000000815260040161084e90611495565b60405180910390fd5b6001600081548092919061086a906113a4565b9190505550600080600060015481526020019081526020016000209050828160000190816108989190611661565b50338160010160006101000a81548173ffffffffffffffffffffffffffffffffffffffff021916908373ffffffffffffffffffffffffffffffffffffffff16021790555060018160010160146101000a81548160ff02191690831515021790555060005b825181101561099157816002016040518060400160405280858481518110610927576109266111a2565b5b602002602001015181526020016000815250908060018154018082558091505060019003906000526020600020906002020160009091909190915060008201518160000190816109779190611661565b5060208201518160010155505080806001019150506108fc565b507fe594be677675fe08b15ddc00fc9a67c78d5b8ddea7f394d6b5e3e588e8d184f060015484336040516109c793929190611733565b60405180910390a1505050565b6000604051905090565b600080fd5b600080fd5b6000819050919050565b6109fb816109e8565b8114610a0657600080fd5b50565b600081359050610a18816109f2565b92915050565b600060208284031215610a3457610a336109de565b5b6000610a4284828501610a09565b91505092915050565b600081519050919050565b600082825260208201905092915050565b60005b83811015610a85578082015181840152602081019050610a6a565b60008484015250505050565b6000601f19601f8301169050919050565b6000610aad82610a4b565b610ab78185610a56565b9350610ac7818560208601610a67565b610ad081610a91565b840191505092915050565b60008115159050919050565b610af081610adb565b82525050565b600081519050919050565b600082825260208201905092915050565b6000819050602082019050919050565b600082825260208201905092915050565b6000610b3e82610a4b565b610b488185610b22565b9350610b58818560208601610a67565b610b6181610a91565b840191505092915050565b6000610b788383610b33565b905092915050565b6000602082019050919050565b6000610b9882610af6565b610ba28185610b01565b935083602082028501610bb485610b12565b8060005b85811015610bf05784840389528151610bd18582610b6c565b9450610bdc83610b80565b925060208a01995050600181019050610bb8565b50829750879550505050505092915050565b600081519050919050565b600082825260208201905092915050565b6000819050602082019050919050565b610c37816109e8565b82525050565b6000610c498383610c2e565b60208301905092915050565b6000602082019050919050565b6000610c6d82610c02565b610c778185610c0d565b9350610c8283610c1e565b8060005b83811015610cb3578151610c9a8882610c3d565b9750610ca583610c55565b925050600181019050610c86565b5085935050505092915050565b60006080820190508181036000830152610cda8187610aa2565b9050610ce96020830186610ae7565b8181036040830152610cfb8185610b8d565b90508181036060830152610d0f8184610c62565b905095945050505050565b600073ffffffffffffffffffffffffffffffffffffffff82169050919050565b6000610d4582610d1a565b9050919050565b610d5581610d3a565b82525050565b60006060820190508181036000830152610d758186610aa2565b9050610d846020830185610d4c565b610d916040830184610ae7565b949350505050565b60008060408385031215610db057610daf6109de565b5b6000610dbe85828601610a09565b9250506020610dcf85828601610a09565b9150509250929050565b600080fd5b600080fd5b7f4e487b7100000000000000000000000000000000000000000000000000000000600052604160045260246000fd5b610e1b82610a91565b810181811067ffffffffffffffff82111715610e3a57610e39610de3565b5b80604052505050565b6000610e4d6109d4565b9050610e598282610e12565b919050565b600067ffffffffffffffff821115610e7957610e78610de3565b5b610e8282610a91565b9050602081019050919050565b82818337600083830152505050565b6000610eb1610eac84610e5e565b610e43565b905082815260208101848484011115610ecd57610ecc610dde565b5b610ed8848285610e8f565b509392505050565b600082601f830112610ef557610ef4610dd9565b5b8135610f05848260208601610e9e565b91505092915050565b600067ffffffffffffffff821115610f2957610f28610de3565b5b602082029050602081019050919050565b600080fd5b6000610f52610f4d84610f0e565b610e43565b90508083825260208201905060208402830185811115610f7557610f74610f3a565b5b835b81811015610fbc57803567ffffffffffffffff811115610f9a57610f99610dd9565b5b808601610fa78982610ee0565b85526020850194505050602081019050610f77565b5050509392505050565b600082601f830112610fdb57610fda610dd9565b5b8135610feb848260208601610f3f565b91505092915050565b6000806040838503121561100b5761100a6109de565b5b600083013567ffffffffffffffff811115611029576110286109e3565b5b61103585828601610ee0565b925050602083013567ffffffffffffffff811115611056576110556109e3565b5b61106285828601610fc6565b9150509250929050565b7f456e7175657465206a6120666f6920656e636572726164610000000000000000600082015250565b60006110a2601883610a56565b91506110ad8261106c565b602082019050919050565b600060208201905081810360008301526110d181611095565b9050919050565b7f536f6d656e7465206f2063726961646f7220706f646520656e6365727261722060008201527f6120656e71756574650000000000000000000000000000000000000000000000602082015250565b6000611134602983610a56565b915061113f826110d8565b604082019050919050565b6000602082019050818103600083015261116381611127565b9050919050565b611173816109e8565b82525050565b600060408201905061118e600083018561116a565b61119b6020830184610d4c565b9392505050565b7f4e487b7100000000000000000000000000000000000000000000000000000000600052603260045260246000fd5b7f4e487b7100000000000000000000000000000000000000000000000000000000600052602260045260246000fd5b6000600282049050600182168061121857607f821691505b60208210810361122b5761122a6111d1565b5b50919050565b7f456e7175656e7465206573746120656e63657272616461000000000000000000600082015250565b6000611267601783610a56565b915061127282611231565b602082019050919050565b600060208201905081810360008301526112968161125a565b9050919050565b7f566f63c3aa206a6120766f746f75000000000000000000000000000000000000600082015250565b60006112d3600e83610a56565b91506112de8261129d565b602082019050919050565b60006020820190508181036000830152611302816112c6565b9050919050565b7f4573636f6c686120696e76616c69646100000000000000000000000000000000600082015250565b600061133f601083610a56565b915061134a82611309565b602082019050919050565b6000602082019050818103600083015261136e81611332565b9050919050565b7f4e487b7100000000000000000000000000000000000000000000000000000000600052601160045260246000fd5b60006113af826109e8565b91507fffffffffffffffffffffffffffffffffffffffffffffffffffffffffffffffff82036113e1576113e0611375565b5b600182019050919050565b6000606082019050611401600083018661116a565b61140e602083018561116a565b61141b6040830184610d4c565b949350505050565b7f446576652d736520696e636c7569722070656c6f206d656e6f732032206f70c360008201527fa7c3b565732065206e6f206d6178696d6f203130206f70c3b565730000000000602082015250565b600061147f603b83610a56565b915061148a82611423565b604082019050919050565b600060208201905081810360008301526114ae81611472565b9050919050565b60008190508160005260206000209050919050565b60006020601f8301049050919050565b600082821b905092915050565b6000600883026115177fffffffffffffffffffffffffffffffffffffffffffffffffffffffffffffffff826114da565b61152186836114da565b95508019841693508086168417925050509392505050565b6000819050919050565b600061155e611559611554846109e8565b611539565b6109e8565b9050919050565b6000819050919050565b61157883611543565b61158c61158482611565565b8484546114e7565b825550505050565b600090565b6115a1611594565b6115ac81848461156f565b505050565b5b818110156115d0576115c5600082611599565b6001810190506115b2565b5050565b601f821115611615576115e6816114b5565b6115ef846114ca565b810160208510156115fe578190505b61161261160a856114ca565b8301826115b1565b50505b505050565b600082821c905092915050565b60006116386000198460080261161a565b1980831691505092915050565b60006116518383611627565b9150826002028217905092915050565b61166a82610a4b565b67ffffffffffffffff81111561168357611682610de3565b5b61168d8254611200565b6116988282856115d4565b600060209050601f8311600181146116cb57600084156116b9578287015190505b6116c38582611645565b86555061172b565b601f1984166116d9866114b5565b60005b82811015611701578489015182556001820191506020850194506020810190506116dc565b8683101561171e578489015161171a601f891682611627565b8355505b6001600288020188555050505b505050505050565b6000606082019050611748600083018661116a565b818103602083015261175a8185610aa2565b90506117696040830184610d4c565b94935050505056fea26469706673582212207c6e384b56b4a3fa609eb78fc73458ff745ba3d1cdbff4d6c6ab09bcd9d2457a64736f6c634300081a0033",
					"opcodes": "PUSH1 0x80 PUSH1 0x40 MSTORE CALLVALUE DUP1 ISZERO PUSH1 0xF JUMPI PUSH1 0x0 DUP1 REVERT JUMPDEST POP PUSH2 0x17A7 DUP1 PUSH2 0x1F PUSH1 0x0 CODECOPY PUSH1 0x0 RETURN INVALID PUSH1 0x80 PUSH1 0x40 MSTORE CALLVALUE DUP1 ISZERO PUSH2 0x10 JUMPI PUSH1 0x0 DUP1 REVERT JUMPDEST POP PUSH1 0x4 CALLDATASIZE LT PUSH2 0x57 JUMPI PUSH1 0x0 CALLDATALOAD PUSH1 0xE0 SHR DUP1 PUSH4 0x12038BDB EQ PUSH2 0x5C JUMPI DUP1 PUSH4 0x38628855 EQ PUSH2 0x78 JUMPI DUP1 PUSH4 0x4EB474F8 EQ PUSH2 0xAB JUMPI DUP1 PUSH4 0x4FA5A16F EQ PUSH2 0xDD JUMPI DUP1 PUSH4 0xC24D551C EQ PUSH2 0xF9 JUMPI JUMPDEST PUSH1 0x0 DUP1 REVERT JUMPDEST PUSH2 0x76 PUSH1 0x4 DUP1 CALLDATASIZE SUB DUP2 ADD SWAP1 PUSH2 0x71 SWAP2 SWAP1 PUSH2 0xA1E JUMP JUMPDEST PUSH2 0x115 JUMP JUMPDEST STOP JUMPDEST PUSH2 0x92 PUSH1 0x4 DUP1 CALLDATASIZE SUB DUP2 ADD SWAP1 PUSH2 0x8D SWAP2 SWAP1 PUSH2 0xA1E JUMP JUMPDEST PUSH2 0x268 JUMP JUMPDEST PUSH1 0x40 MLOAD PUSH2 0xA2 SWAP5 SWAP4 SWAP3 SWAP2 SWAP1 PUSH2 0xCC0 JUMP JUMPDEST PUSH1 0x40 MLOAD DUP1 SWAP2 SUB SWAP1 RETURN JUMPDEST PUSH2 0xC5 PUSH1 0x4 DUP1 CALLDATASIZE SUB DUP2 ADD SWAP1 PUSH2 0xC0 SWAP2 SWAP1 PUSH2 0xA1E JUMP JUMPDEST PUSH2 0x50F JUMP JUMPDEST PUSH1 0x40 MLOAD PUSH2 0xD4 SWAP4 SWAP3 SWAP2 SWAP1 PUSH2 0xD5B JUMP JUMPDEST PUSH1 0x40 MLOAD DUP1 SWAP2 SUB SWAP1 RETURN JUMPDEST PUSH2 0xF7 PUSH1 0x4 DUP1 CALLDATASIZE SUB DUP2 ADD SWAP1 PUSH2 0xF2 SWAP2 SWAP1 PUSH2 0xD99 JUMP JUMPDEST PUSH2 0x5EE JUMP JUMPDEST STOP JUMPDEST PUSH2 0x113 PUSH1 0x4 DUP1 CALLDATASIZE SUB DUP2 ADD SWAP1 PUSH2 0x10E SWAP2 SWAP1 PUSH2 0xFF4 JUMP JUMPDEST PUSH2 0x804 JUMP JUMPDEST STOP JUMPDEST PUSH1 0x0 DUP1 PUSH1 0x0 DUP4 DUP2 MSTORE PUSH1 0x20 ADD SWAP1 DUP2 MSTORE PUSH1 0x20 ADD PUSH1 0x0 KECCAK256 SWAP1 POP DUP1 PUSH1 0x1 ADD PUSH1 0x14 SWAP1 SLOAD SWAP1 PUSH2 0x100 EXP SWAP1 DIV PUSH1 0xFF AND PUSH2 0x17C JUMPI PUSH1 0x40 MLOAD PUSH32 0x8C379A000000000000000000000000000000000000000000000000000000000 DUP2 MSTORE PUSH1 0x4 ADD PUSH2 0x173 SWAP1 PUSH2 0x10B8 JUMP JUMPDEST PUSH1 0x40 MLOAD DUP1 SWAP2 SUB SWAP1 REVERT JUMPDEST CALLER PUSH20 0xFFFFFFFFFFFFFFFFFFFFFFFFFFFFFFFFFFFFFFFF AND DUP2 PUSH1 0x1 ADD PUSH1 0x0 SWAP1 SLOAD SWAP1 PUSH2 0x100 EXP SWAP1 DIV PUSH20 0xFFFFFFFFFFFFFFFFFFFFFFFFFFFFFFFFFFFFFFFF AND PUSH20 0xFFFFFFFFFFFFFFFFFFFFFFFFFFFFFFFFFFFFFFFF AND EQ PUSH2 0x20E JUMPI PUSH1 0x40 MLOAD PUSH32 0x8C379A000000000000000000000000000000000000000000000000000000000 DUP2 MSTORE PUSH1 0x4 ADD PUSH2 0x205 SWAP1 PUSH2 0x114A JUMP JUMPDEST PUSH1 0x40 MLOAD DUP1 SWAP2 SUB SWAP1 REVERT JUMPDEST PUSH1 0x0 DUP2 PUSH1 0x1 ADD PUSH1 0x14 PUSH2 0x100 EXP DUP2 SLOAD DUP2 PUSH1 0xFF MUL NOT AND SWAP1 DUP4 ISZERO ISZERO MUL OR SWAP1 SSTORE POP PUSH32 0x393580696B4731499AD32B6990B4F364566F68CD50DA863EBEDB09D8242F5B16 DUP3 CALLER PUSH1 0x40 MLOAD PUSH2 0x25C SWAP3 SWAP2 SWAP1 PUSH2 0x1179 JUMP JUMPDEST PUSH1 0x40 MLOAD DUP1 SWAP2 SUB SWAP1 LOG1 POP POP JUMP JUMPDEST PUSH1 0x60 PUSH1 0x0 PUSH1 0x60 DUP1 PUSH1 0x0 DUP1 PUSH1 0x0 DUP8 DUP2 MSTORE PUSH1 0x20 ADD SWAP1 DUP2 MSTORE PUSH1 0x20 ADD PUSH1 0x0 KECCAK256 SWAP1 POP PUSH1 0x0 DUP2 PUSH1 0x2 ADD DUP1 SLOAD SWAP1 POP SWAP1 POP DUP1 PUSH8 0xFFFFFFFFFFFFFFFF DUP2 GT ISZERO PUSH2 0x2AB JUMPI PUSH2 0x2AA PUSH2 0xDE3 JUMP JUMPDEST JUMPDEST PUSH1 0x40 MLOAD SWAP1 DUP1 DUP3 MSTORE DUP1 PUSH1 0x20 MUL PUSH1 0x20 ADD DUP3 ADD PUSH1 0x40 MSTORE DUP1 ISZERO PUSH2 0x2DE JUMPI DUP2 PUSH1 0x20 ADD JUMPDEST PUSH1 0x60 DUP2 MSTORE PUSH1 0x20 ADD SWAP1 PUSH1 0x1 SWAP1 SUB SWAP1 DUP2 PUSH2 0x2C9 JUMPI SWAP1 POP JUMPDEST POP SWAP4 POP DUP1 PUSH8 0xFFFFFFFFFFFFFFFF DUP2 GT ISZERO PUSH2 0x2FB JUMPI PUSH2 0x2FA PUSH2 0xDE3 JUMP JUMPDEST JUMPDEST PUSH1 0x40 MLOAD SWAP1 DUP1 DUP3 MSTORE DUP1 PUSH1 0x20 MUL PUSH1 0x20 ADD DUP3 ADD PUSH1 0x40 MSTORE DUP1 ISZERO PUSH2 0x329 JUMPI DUP2 PUSH1 0x20 ADD PUSH1 0x20 DUP3 MUL DUP1 CALLDATASIZE DUP4 CALLDATACOPY DUP1 DUP3 ADD SWAP2 POP POP SWAP1 POP JUMPDEST POP SWAP3 POP PUSH1 0x0 JUMPDEST DUP2 DUP2 LT ISZERO PUSH2 0x459 JUMPI DUP3 PUSH1 0x2 ADD DUP2 DUP2 SLOAD DUP2 LT PUSH2 0x34D JUMPI PUSH2 0x34C PUSH2 0x11A2 JUMP JUMPDEST JUMPDEST SWAP1 PUSH1 0x0 MSTORE PUSH1 0x20 PUSH1 0x0 KECCAK256 SWAP1 PUSH1 0x2 MUL ADD PUSH1 0x0 ADD DUP1 SLOAD PUSH2 0x369 SWAP1 PUSH2 0x1200 JUMP JUMPDEST DUP1 PUSH1 0x1F ADD PUSH1 0x20 DUP1 SWAP2 DIV MUL PUSH1 0x20 ADD PUSH1 0x40 MLOAD SWAP1 DUP2 ADD PUSH1 0x40 MSTORE DUP1 SWAP3 SWAP2 SWAP1 DUP2 DUP2 MSTORE PUSH1 0x20 ADD DUP3 DUP1 SLOAD PUSH2 0x395 SWAP1 PUSH2 0x1200 JUMP JUMPDEST DUP1 ISZERO PUSH2 0x3E2 JUMPI DUP1 PUSH1 0x1F LT PUSH2 0x3B7 JUMPI PUSH2 0x100 DUP1 DUP4 SLOAD DIV MUL DUP4 MSTORE SWAP2 PUSH1 0x20 ADD SWAP2 PUSH2 0x3E2 JUMP JUMPDEST DUP3 ADD SWAP2 SWAP1 PUSH1 0x0 MSTORE PUSH1 0x20 PUSH1 0x0 KECCAK256 SWAP1 JUMPDEST DUP2 SLOAD DUP2 MSTORE SWAP1 PUSH1 0x1 ADD SWAP1 PUSH1 0x20 ADD DUP1 DUP4 GT PUSH2 0x3C5 JUMPI DUP3 SWAP1 SUB PUSH1 0x1F AND DUP3 ADD SWAP2 JUMPDEST POP POP POP POP POP DUP6 DUP3 DUP2 MLOAD DUP2 LT PUSH2 0x3FA JUMPI PUSH2 0x3F9 PUSH2 0x11A2 JUMP JUMPDEST JUMPDEST PUSH1 0x20 MUL PUSH1 0x20 ADD ADD DUP2 SWAP1 MSTORE POP DUP3 PUSH1 0x2 ADD DUP2 DUP2 SLOAD DUP2 LT PUSH2 0x41B JUMPI PUSH2 0x41A PUSH2 0x11A2 JUMP JUMPDEST JUMPDEST SWAP1 PUSH1 0x0 MSTORE PUSH1 0x20 PUSH1 0x0 KECCAK256 SWAP1 PUSH1 0x2 MUL ADD PUSH1 0x1 ADD SLOAD DUP5 DUP3 DUP2 MLOAD DUP2 LT PUSH2 0x440 JUMPI PUSH2 0x43F PUSH2 0x11A2 JUMP JUMPDEST JUMPDEST PUSH1 0x20 MUL PUSH1 0x20 ADD ADD DUP2 DUP2 MSTORE POP POP DUP1 DUP1 PUSH1 0x1 ADD SWAP2 POP POP PUSH2 0x32F JUMP JUMPDEST POP DUP2 PUSH1 0x0 ADD DUP3 PUSH1 0x1 ADD PUSH1 0x14 SWAP1 SLOAD SWAP1 PUSH2 0x100 EXP SWAP1 DIV PUSH1 0xFF AND DUP6 DUP6 DUP4 DUP1 SLOAD PUSH2 0x47E SWAP1 PUSH2 0x1200 JUMP JUMPDEST DUP1 PUSH1 0x1F ADD PUSH1 0x20 DUP1 SWAP2 DIV MUL PUSH1 0x20 ADD PUSH1 0x40 MLOAD SWAP1 DUP2 ADD PUSH1 0x40 MSTORE DUP1 SWAP3 SWAP2 SWAP1 DUP2 DUP2 MSTORE PUSH1 0x20 ADD DUP3 DUP1 SLOAD PUSH2 0x4AA SWAP1 PUSH2 0x1200 JUMP JUMPDEST DUP1 ISZERO PUSH2 0x4F7 JUMPI DUP1 PUSH1 0x1F LT PUSH2 0x4CC JUMPI PUSH2 0x100 DUP1 DUP4 SLOAD DIV MUL DUP4 MSTORE SWAP2 PUSH1 0x20 ADD SWAP2 PUSH2 0x4F7 JUMP JUMPDEST DUP3 ADD SWAP2 SWAP1 PUSH1 0x0 MSTORE PUSH1 0x20 PUSH1 0x0 KECCAK256 SWAP1 JUMPDEST DUP2 SLOAD DUP2 MSTORE SWAP1 PUSH1 0x1 ADD SWAP1 PUSH1 0x20 ADD DUP1 DUP4 GT PUSH2 0x4DA JUMPI DUP3 SWAP1 SUB PUSH1 0x1F AND DUP3 ADD SWAP2 JUMPDEST POP POP POP POP POP SWAP4 POP SWAP6 POP SWAP6 POP SWAP6 POP SWAP6 POP POP POP SWAP2 SWAP4 POP SWAP2 SWAP4 JUMP JUMPDEST PUSH1 0x0 PUSH1 0x20 MSTORE DUP1 PUSH1 0x0 MSTORE PUSH1 0x40 PUSH1 0x0 KECCAK256 PUSH1 0x0 SWAP2 POP SWAP1 POP DUP1 PUSH1 0x0 ADD DUP1 SLOAD PUSH2 0x532 SWAP1 PUSH2 0x1200 JUMP JUMPDEST DUP1 PUSH1 0x1F ADD PUSH1 0x20 DUP1 SWAP2 DIV MUL PUSH1 0x20 ADD PUSH1 0x40 MLOAD SWAP1 DUP2 ADD PUSH1 0x40 MSTORE DUP1 SWAP3 SWAP2 SWAP1 DUP2 DUP2 MSTORE PUSH1 0x20 ADD DUP3 DUP1 SLOAD PUSH2 0x55E SWAP1 PUSH2 0x1200 JUMP JUMPDEST DUP1 ISZERO PUSH2 0x5AB JUMPI DUP1 PUSH1 0x1F LT PUSH2 0x580 JUMPI PUSH2 0x100 DUP1 DUP4 SLOAD DIV MUL DUP4 MSTORE SWAP2 PUSH1 0x20 ADD SWAP2 PUSH2 0x5AB JUMP JUMPDEST DUP3 ADD SWAP2 SWAP1 PUSH1 0x0 MSTORE PUSH1 0x20 PUSH1 0x0 KECCAK256 SWAP1 JUMPDEST DUP2 SLOAD DUP2 MSTORE SWAP1 PUSH1 0x1 ADD SWAP1 PUSH1 0x20 ADD DUP1 DUP4 GT PUSH2 0x58E JUMPI DUP3 SWAP1 SUB PUSH1 0x1F AND DUP3 ADD SWAP2 JUMPDEST POP POP POP POP POP SWAP1 DUP1 PUSH1 0x1 ADD PUSH1 0x0 SWAP1 SLOAD SWAP1 PUSH2 0x100 EXP SWAP1 DIV PUSH20 0xFFFFFFFFFFFFFFFFFFFFFFFFFFFFFFFFFFFFFFFF AND SWAP1 DUP1 PUSH1 0x1 ADD PUSH1 0x14 SWAP1 SLOAD SWAP1 PUSH2 0x100 EXP SWAP1 DIV PUSH1 0xFF AND SWAP1 POP DUP4 JUMP JUMPDEST PUSH1 0x0 DUP1 PUSH1 0x0 DUP5 DUP2 MSTORE PUSH1 0x20 ADD SWAP1 DUP2 MSTORE PUSH1 0x20 ADD PUSH1 0x0 KECCAK256 SWAP1 POP DUP1 PUSH1 0x1 ADD PUSH1 0x14 SWAP1 SLOAD SWAP1 PUSH2 0x100 EXP SWAP1 DIV PUSH1 0xFF AND PUSH2 0x655 JUMPI PUSH1 0x40 MLOAD PUSH32 0x8C379A000000000000000000000000000000000000000000000000000000000 DUP2 MSTORE PUSH1 0x4 ADD PUSH2 0x64C SWAP1 PUSH2 0x127D JUMP JUMPDEST PUSH1 0x40 MLOAD DUP1 SWAP2 SUB SWAP1 REVERT JUMPDEST DUP1 PUSH1 0x3 ADD PUSH1 0x0 CALLER PUSH20 0xFFFFFFFFFFFFFFFFFFFFFFFFFFFFFFFFFFFFFFFF AND PUSH20 0xFFFFFFFFFFFFFFFFFFFFFFFFFFFFFFFFFFFFFFFF AND DUP2 MSTORE PUSH1 0x20 ADD SWAP1 DUP2 MSTORE PUSH1 0x20 ADD PUSH1 0x0 KECCAK256 PUSH1 0x0 SWAP1 SLOAD SWAP1 PUSH2 0x100 EXP SWAP1 DIV PUSH1 0xFF AND ISZERO PUSH2 0x6E4 JUMPI PUSH1 0x40 MLOAD PUSH32 0x8C379A000000000000000000000000000000000000000000000000000000000 DUP2 MSTORE PUSH1 0x4 ADD PUSH2 0x6DB SWAP1 PUSH2 0x12E9 JUMP JUMPDEST PUSH1 0x40 MLOAD DUP1 SWAP2 SUB SWAP1 REVERT JUMPDEST DUP1 PUSH1 0x2 ADD DUP1 SLOAD SWAP1 POP DUP3 LT PUSH2 0x72D JUMPI PUSH1 0x40 MLOAD PUSH32 0x8C379A000000000000000000000000000000000000000000000000000000000 DUP2 MSTORE PUSH1 0x4 ADD PUSH2 0x724 SWAP1 PUSH2 0x1355 JUMP JUMPDEST PUSH1 0x40 MLOAD DUP1 SWAP2 SUB SWAP1 REVERT JUMPDEST DUP1 PUSH1 0x2 ADD DUP3 DUP2 SLOAD DUP2 LT PUSH2 0x743 JUMPI PUSH2 0x742 PUSH2 0x11A2 JUMP JUMPDEST JUMPDEST SWAP1 PUSH1 0x0 MSTORE PUSH1 0x20 PUSH1 0x0 KECCAK256 SWAP1 PUSH1 0x2 MUL ADD PUSH1 0x1 ADD PUSH1 0x0 DUP2 SLOAD DUP1 SWAP3 SWAP2 SWAP1 PUSH2 0x765 SWAP1 PUSH2 0x13A4 JUMP JUMPDEST SWAP2 SWAP1 POP SSTORE POP PUSH1 0x1 DUP2 PUSH1 0x3 ADD PUSH1 0x0 CALLER PUSH20 0xFFFFFFFFFFFFFFFFFFFFFFFFFFFFFFFFFFFFFFFF AND PUSH20 0xFFFFFFFFFFFFFFFFFFFFFFFFFFFFFFFFFFFFFFFF AND DUP2 MSTORE PUSH1 0x20 ADD SWAP1 DUP2 MSTORE PUSH1 0x20 ADD PUSH1 0x0 KECCAK256 PUSH1 0x0 PUSH2 0x100 EXP DUP2 SLOAD DUP2 PUSH1 0xFF MUL NOT AND SWAP1 DUP4 ISZERO ISZERO MUL OR SWAP1 SSTORE POP PUSH32 0x6C2B43CA1E393996F5DF0950A375E213F703126C852A69D5FF4114494F168EF DUP4 DUP4 CALLER PUSH1 0x40 MLOAD PUSH2 0x7F7 SWAP4 SWAP3 SWAP2 SWAP1 PUSH2 0x13EC JUMP JUMPDEST PUSH1 0x40 MLOAD DUP1 SWAP2 SUB SWAP1 LOG1 POP POP POP JUMP JUMPDEST PUSH1 0x2 DUP2 MLOAD LT ISZERO DUP1 ISZERO PUSH2 0x818 JUMPI POP PUSH1 0xA DUP2 MLOAD GT ISZERO JUMPDEST PUSH2 0x857 JUMPI PUSH1 0x40 MLOAD PUSH32 0x8C379A000000000000000000000000000000000000000000000000000000000 DUP2 MSTORE PUSH1 0x4 ADD PUSH2 0x84E SWAP1 PUSH2 0x1495 JUMP JUMPDEST PUSH1 0x40 MLOAD DUP1 SWAP2 SUB SWAP1 REVERT JUMPDEST PUSH1 0x1 PUSH1 0x0 DUP2 SLOAD DUP1 SWAP3 SWAP2 SWAP1 PUSH2 0x86A SWAP1 PUSH2 0x13A4 JUMP JUMPDEST SWAP2 SWAP1 POP SSTORE POP PUSH1 0x0 DUP1 PUSH1 0x0 PUSH1 0x1 SLOAD DUP2 MSTORE PUSH1 0x20 ADD SWAP1 DUP2 MSTORE PUSH1 0x20 ADD PUSH1 0x0 KECCAK256 SWAP1 POP DUP3 DUP2 PUSH1 0x0 ADD SWAP1 DUP2 PUSH2 0x898 SWAP2 SWAP1 PUSH2 0x1661 JUMP JUMPDEST POP CALLER DUP2 PUSH1 0x1 ADD PUSH1 0x0 PUSH2 0x100 EXP DUP2 SLOAD DUP2 PUSH20 0xFFFFFFFFFFFFFFFFFFFFFFFFFFFFFFFFFFFFFFFF MUL NOT AND SWAP1 DUP4 PUSH20 0xFFFFFFFFFFFFFFFFFFFFFFFFFFFFFFFFFFFFFFFF AND MUL OR SWAP1 SSTORE POP PUSH1 0x1 DUP2 PUSH1 0x1 ADD PUSH1 0x14 PUSH2 0x100 EXP DUP2 SLOAD DUP2 PUSH1 0xFF MUL NOT AND SWAP1 DUP4 ISZERO ISZERO MUL OR SWAP1 SSTORE POP PUSH1 0x0 JUMPDEST DUP3 MLOAD DUP2 LT ISZERO PUSH2 0x991 JUMPI DUP2 PUSH1 0x2 ADD PUSH1 0x40 MLOAD DUP1 PUSH1 0x40 ADD PUSH1 0x40 MSTORE DUP1 DUP6 DUP5 DUP2 MLOAD DUP2 LT PUSH2 0x927 JUMPI PUSH2 0x926 PUSH2 0x11A2 JUMP JUMPDEST JUMPDEST PUSH1 0x20 MUL PUSH1 0x20 ADD ADD MLOAD DUP2 MSTORE PUSH1 0x20 ADD PUSH1 0x0 DUP2 MSTORE POP SWAP1 DUP1 PUSH1 0x1 DUP2 SLOAD ADD DUP1 DUP3 SSTORE DUP1 SWAP2 POP POP PUSH1 0x1 SWAP1 SUB SWAP1 PUSH1 0x0 MSTORE PUSH1 0x20 PUSH1 0x0 KECCAK256 SWAP1 PUSH1 0x2 MUL ADD PUSH1 0x0 SWAP1 SWAP2 SWAP1 SWAP2 SWAP1 SWAP2 POP PUSH1 0x0 DUP3 ADD MLOAD DUP2 PUSH1 0x0 ADD SWAP1 DUP2 PUSH2 0x977 SWAP2 SWAP1 PUSH2 0x1661 JUMP JUMPDEST POP PUSH1 0x20 DUP3 ADD MLOAD DUP2 PUSH1 0x1 ADD SSTORE POP POP DUP1 DUP1 PUSH1 0x1 ADD SWAP2 POP POP PUSH2 0x8FC JUMP JUMPDEST POP PUSH32 0xE594BE677675FE08B15DDC00FC9A67C78D5B8DDEA7F394D6B5E3E588E8D184F0 PUSH1 0x1 SLOAD DUP5 CALLER PUSH1 0x40 MLOAD PUSH2 0x9C7 SWAP4 SWAP3 SWAP2 SWAP1 PUSH2 0x1733 JUMP JUMPDEST PUSH1 0x40 MLOAD DUP1 SWAP2 SUB SWAP1 LOG1 POP POP POP JUMP JUMPDEST PUSH1 0x0 PUSH1 0x40 MLOAD SWAP1 POP SWAP1 JUMP JUMPDEST PUSH1 0x0 DUP1 REVERT JUMPDEST PUSH1 0x0 DUP1 REVERT JUMPDEST PUSH1 0x0 DUP2 SWAP1 POP SWAP2 SWAP1 POP JUMP JUMPDEST PUSH2 0x9FB DUP2 PUSH2 0x9E8 JUMP JUMPDEST DUP2 EQ PUSH2 0xA06 JUMPI PUSH1 0x0 DUP1 REVERT JUMPDEST POP JUMP JUMPDEST PUSH1 0x0 DUP2 CALLDATALOAD SWAP1 POP PUSH2 0xA18 DUP2 PUSH2 0x9F2 JUMP JUMPDEST SWAP3 SWAP2 POP POP JUMP JUMPDEST PUSH1 0x0 PUSH1 0x20 DUP3 DUP5 SUB SLT ISZERO PUSH2 0xA34 JUMPI PUSH2 0xA33 PUSH2 0x9DE JUMP JUMPDEST JUMPDEST PUSH1 0x0 PUSH2 0xA42 DUP5 DUP3 DUP6 ADD PUSH2 0xA09 JUMP JUMPDEST SWAP2 POP POP SWAP3 SWAP2 POP POP JUMP JUMPDEST PUSH1 0x0 DUP2 MLOAD SWAP1 POP SWAP2 SWAP1 POP JUMP JUMPDEST PUSH1 0x0 DUP3 DUP3 MSTORE PUSH1 0x20 DUP3 ADD SWAP1 POP SWAP3 SWAP2 POP POP JUMP JUMPDEST PUSH1 0x0 JUMPDEST DUP4 DUP2 LT ISZERO PUSH2 0xA85 JUMPI DUP1 DUP3 ADD MLOAD DUP2 DUP5 ADD MSTORE PUSH1 0x20 DUP2 ADD SWAP1 POP PUSH2 0xA6A JUMP JUMPDEST PUSH1 0x0 DUP5 DUP5 ADD MSTORE POP POP POP POP JUMP JUMPDEST PUSH1 0x0 PUSH1 0x1F NOT PUSH1 0x1F DUP4 ADD AND SWAP1 POP SWAP2 SWAP1 POP JUMP JUMPDEST PUSH1 0x0 PUSH2 0xAAD DUP3 PUSH2 0xA4B JUMP JUMPDEST PUSH2 0xAB7 DUP2 DUP6 PUSH2 0xA56 JUMP JUMPDEST SWAP4 POP PUSH2 0xAC7 DUP2 DUP6 PUSH1 0x20 DUP7 ADD PUSH2 0xA67 JUMP JUMPDEST PUSH2 0xAD0 DUP2 PUSH2 0xA91 JUMP JUMPDEST DUP5 ADD SWAP2 POP POP SWAP3 SWAP2 POP POP JUMP JUMPDEST PUSH1 0x0 DUP2 ISZERO ISZERO SWAP1 POP SWAP2 SWAP1 POP JUMP JUMPDEST PUSH2 0xAF0 DUP2 PUSH2 0xADB JUMP JUMPDEST DUP3 MSTORE POP POP JUMP JUMPDEST PUSH1 0x0 DUP2 MLOAD SWAP1 POP SWAP2 SWAP1 POP JUMP JUMPDEST PUSH1 0x0 DUP3 DUP3 MSTORE PUSH1 0x20 DUP3 ADD SWAP1 POP SWAP3 SWAP2 POP POP JUMP JUMPDEST PUSH1 0x0 DUP2 SWAP1 POP PUSH1 0x20 DUP3 ADD SWAP1 POP SWAP2 SWAP1 POP JUMP JUMPDEST PUSH1 0x0 DUP3 DUP3 MSTORE PUSH1 0x20 DUP3 ADD SWAP1 POP SWAP3 SWAP2 POP POP JUMP JUMPDEST PUSH1 0x0 PUSH2 0xB3E DUP3 PUSH2 0xA4B JUMP JUMPDEST PUSH2 0xB48 DUP2 DUP6 PUSH2 0xB22 JUMP JUMPDEST SWAP4 POP PUSH2 0xB58 DUP2 DUP6 PUSH1 0x20 DUP7 ADD PUSH2 0xA67 JUMP JUMPDEST PUSH2 0xB61 DUP2 PUSH2 0xA91 JUMP JUMPDEST DUP5 ADD SWAP2 POP POP SWAP3 SWAP2 POP POP JUMP JUMPDEST PUSH1 0x0 PUSH2 0xB78 DUP4 DUP4 PUSH2 0xB33 JUMP JUMPDEST SWAP1 POP SWAP3 SWAP2 POP POP JUMP JUMPDEST PUSH1 0x0 PUSH1 0x20 DUP3 ADD SWAP1 POP SWAP2 SWAP1 POP JUMP JUMPDEST PUSH1 0x0 PUSH2 0xB98 DUP3 PUSH2 0xAF6 JUMP JUMPDEST PUSH2 0xBA2 DUP2 DUP6 PUSH2 0xB01 JUMP JUMPDEST SWAP4 POP DUP4 PUSH1 0x20 DUP3 MUL DUP6 ADD PUSH2 0xBB4 DUP6 PUSH2 0xB12 JUMP JUMPDEST DUP1 PUSH1 0x0 JUMPDEST DUP6 DUP2 LT ISZERO PUSH2 0xBF0 JUMPI DUP5 DUP5 SUB DUP10 MSTORE DUP2 MLOAD PUSH2 0xBD1 DUP6 DUP3 PUSH2 0xB6C JUMP JUMPDEST SWAP5 POP PUSH2 0xBDC DUP4 PUSH2 0xB80 JUMP JUMPDEST SWAP3 POP PUSH1 0x20 DUP11 ADD SWAP10 POP POP PUSH1 0x1 DUP2 ADD SWAP1 POP PUSH2 0xBB8 JUMP JUMPDEST POP DUP3 SWAP8 POP DUP8 SWAP6 POP POP POP POP POP POP SWAP3 SWAP2 POP POP JUMP JUMPDEST PUSH1 0x0 DUP2 MLOAD SWAP1 POP SWAP2 SWAP1 POP JUMP JUMPDEST PUSH1 0x0 DUP3 DUP3 MSTORE PUSH1 0x20 DUP3 ADD SWAP1 POP SWAP3 SWAP2 POP POP JUMP JUMPDEST PUSH1 0x0 DUP2 SWAP1 POP PUSH1 0x20 DUP3 ADD SWAP1 POP SWAP2 SWAP1 POP JUMP JUMPDEST PUSH2 0xC37 DUP2 PUSH2 0x9E8 JUMP JUMPDEST DUP3 MSTORE POP POP JUMP JUMPDEST PUSH1 0x0 PUSH2 0xC49 DUP4 DUP4 PUSH2 0xC2E JUMP JUMPDEST PUSH1 0x20 DUP4 ADD SWAP1 POP SWAP3 SWAP2 POP POP JUMP JUMPDEST PUSH1 0x0 PUSH1 0x20 DUP3 ADD SWAP1 POP SWAP2 SWAP1 POP JUMP JUMPDEST PUSH1 0x0 PUSH2 0xC6D DUP3 PUSH2 0xC02 JUMP JUMPDEST PUSH2 0xC77 DUP2 DUP6 PUSH2 0xC0D JUMP JUMPDEST SWAP4 POP PUSH2 0xC82 DUP4 PUSH2 0xC1E JUMP JUMPDEST DUP1 PUSH1 0x0 JUMPDEST DUP4 DUP2 LT ISZERO PUSH2 0xCB3 JUMPI DUP2 MLOAD PUSH2 0xC9A DUP9 DUP3 PUSH2 0xC3D JUMP JUMPDEST SWAP8 POP PUSH2 0xCA5 DUP4 PUSH2 0xC55 JUMP JUMPDEST SWAP3 POP POP PUSH1 0x1 DUP2 ADD SWAP1 POP PUSH2 0xC86 JUMP JUMPDEST POP DUP6 SWAP4 POP POP POP POP SWAP3 SWAP2 POP POP JUMP JUMPDEST PUSH1 0x0 PUSH1 0x80 DUP3 ADD SWAP1 POP DUP2 DUP2 SUB PUSH1 0x0 DUP4 ADD MSTORE PUSH2 0xCDA DUP2 DUP8 PUSH2 0xAA2 JUMP JUMPDEST SWAP1 POP PUSH2 0xCE9 PUSH1 0x20 DUP4 ADD DUP7 PUSH2 0xAE7 JUMP JUMPDEST DUP2 DUP2 SUB PUSH1 0x40 DUP4 ADD MSTORE PUSH2 0xCFB DUP2 DUP6 PUSH2 0xB8D JUMP JUMPDEST SWAP1 POP DUP2 DUP2 SUB PUSH1 0x60 DUP4 ADD MSTORE PUSH2 0xD0F DUP2 DUP5 PUSH2 0xC62 JUMP JUMPDEST SWAP1 POP SWAP6 SWAP5 POP POP POP POP POP JUMP JUMPDEST PUSH1 0x0 PUSH20 0xFFFFFFFFFFFFFFFFFFFFFFFFFFFFFFFFFFFFFFFF DUP3 AND SWAP1 POP SWAP2 SWAP1 POP JUMP JUMPDEST PUSH1 0x0 PUSH2 0xD45 DUP3 PUSH2 0xD1A JUMP JUMPDEST SWAP1 POP SWAP2 SWAP1 POP JUMP JUMPDEST PUSH2 0xD55 DUP2 PUSH2 0xD3A JUMP JUMPDEST DUP3 MSTORE POP POP JUMP JUMPDEST PUSH1 0x0 PUSH1 0x60 DUP3 ADD SWAP1 POP DUP2 DUP2 SUB PUSH1 0x0 DUP4 ADD MSTORE PUSH2 0xD75 DUP2 DUP7 PUSH2 0xAA2 JUMP JUMPDEST SWAP1 POP PUSH2 0xD84 PUSH1 0x20 DUP4 ADD DUP6 PUSH2 0xD4C JUMP JUMPDEST PUSH2 0xD91 PUSH1 0x40 DUP4 ADD DUP5 PUSH2 0xAE7 JUMP JUMPDEST SWAP5 SWAP4 POP POP POP POP JUMP JUMPDEST PUSH1 0x0 DUP1 PUSH1 0x40 DUP4 DUP6 SUB SLT ISZERO PUSH2 0xDB0 JUMPI PUSH2 0xDAF PUSH2 0x9DE JUMP JUMPDEST JUMPDEST PUSH1 0x0 PUSH2 0xDBE DUP6 DUP3 DUP7 ADD PUSH2 0xA09 JUMP JUMPDEST SWAP3 POP POP PUSH1 0x20 PUSH2 0xDCF DUP6 DUP3 DUP7 ADD PUSH2 0xA09 JUMP JUMPDEST SWAP2 POP POP SWAP3 POP SWAP3 SWAP1 POP JUMP JUMPDEST PUSH1 0x0 DUP1 REVERT JUMPDEST PUSH1 0x0 DUP1 REVERT JUMPDEST PUSH32 0x4E487B7100000000000000000000000000000000000000000000000000000000 PUSH1 0x0 MSTORE PUSH1 0x41 PUSH1 0x4 MSTORE PUSH1 0x24 PUSH1 0x0 REVERT JUMPDEST PUSH2 0xE1B DUP3 PUSH2 0xA91 JUMP JUMPDEST DUP2 ADD DUP2 DUP2 LT PUSH8 0xFFFFFFFFFFFFFFFF DUP3 GT OR ISZERO PUSH2 0xE3A JUMPI PUSH2 0xE39 PUSH2 0xDE3 JUMP JUMPDEST JUMPDEST DUP1 PUSH1 0x40 MSTORE POP POP POP JUMP JUMPDEST PUSH1 0x0 PUSH2 0xE4D PUSH2 0x9D4 JUMP JUMPDEST SWAP1 POP PUSH2 0xE59 DUP3 DUP3 PUSH2 0xE12 JUMP JUMPDEST SWAP2 SWAP1 POP JUMP JUMPDEST PUSH1 0x0 PUSH8 0xFFFFFFFFFFFFFFFF DUP3 GT ISZERO PUSH2 0xE79 JUMPI PUSH2 0xE78 PUSH2 0xDE3 JUMP JUMPDEST JUMPDEST PUSH2 0xE82 DUP3 PUSH2 0xA91 JUMP JUMPDEST SWAP1 POP PUSH1 0x20 DUP2 ADD SWAP1 POP SWAP2 SWAP1 POP JUMP JUMPDEST DUP3 DUP2 DUP4 CALLDATACOPY PUSH1 0x0 DUP4 DUP4 ADD MSTORE POP POP POP JUMP JUMPDEST PUSH1 0x0 PUSH2 0xEB1 PUSH2 0xEAC DUP5 PUSH2 0xE5E JUMP JUMPDEST PUSH2 0xE43 JUMP JUMPDEST SWAP1 POP DUP3 DUP2 MSTORE PUSH1 0x20 DUP2 ADD DUP5 DUP5 DUP5 ADD GT ISZERO PUSH2 0xECD JUMPI PUSH2 0xECC PUSH2 0xDDE JUMP JUMPDEST JUMPDEST PUSH2 0xED8 DUP5 DUP3 DUP6 PUSH2 0xE8F JUMP JUMPDEST POP SWAP4 SWAP3 POP POP POP JUMP JUMPDEST PUSH1 0x0 DUP3 PUSH1 0x1F DUP4 ADD SLT PUSH2 0xEF5 JUMPI PUSH2 0xEF4 PUSH2 0xDD9 JUMP JUMPDEST JUMPDEST DUP2 CALLDATALOAD PUSH2 0xF05 DUP5 DUP3 PUSH1 0x20 DUP7 ADD PUSH2 0xE9E JUMP JUMPDEST SWAP2 POP POP SWAP3 SWAP2 POP POP JUMP JUMPDEST PUSH1 0x0 PUSH8 0xFFFFFFFFFFFFFFFF DUP3 GT ISZERO PUSH2 0xF29 JUMPI PUSH2 0xF28 PUSH2 0xDE3 JUMP JUMPDEST JUMPDEST PUSH1 0x20 DUP3 MUL SWAP1 POP PUSH1 0x20 DUP2 ADD SWAP1 POP SWAP2 SWAP1 POP JUMP JUMPDEST PUSH1 0x0 DUP1 REVERT JUMPDEST PUSH1 0x0 PUSH2 0xF52 PUSH2 0xF4D DUP5 PUSH2 0xF0E JUMP JUMPDEST PUSH2 0xE43 JUMP JUMPDEST SWAP1 POP DUP1 DUP4 DUP3 MSTORE PUSH1 0x20 DUP3 ADD SWAP1 POP PUSH1 0x20 DUP5 MUL DUP4 ADD DUP6 DUP2 GT ISZERO PUSH2 0xF75 JUMPI PUSH2 0xF74 PUSH2 0xF3A JUMP JUMPDEST JUMPDEST DUP4 JUMPDEST DUP2 DUP2 LT ISZERO PUSH2 0xFBC JUMPI DUP1 CALLDATALOAD PUSH8 0xFFFFFFFFFFFFFFFF DUP2 GT ISZERO PUSH2 0xF9A JUMPI PUSH2 0xF99 PUSH2 0xDD9 JUMP JUMPDEST JUMPDEST DUP1 DUP7 ADD PUSH2 0xFA7 DUP10 DUP3 PUSH2 0xEE0 JUMP JUMPDEST DUP6 MSTORE PUSH1 0x20 DUP6 ADD SWAP5 POP POP POP PUSH1 0x20 DUP2 ADD SWAP1 POP PUSH2 0xF77 JUMP JUMPDEST POP POP POP SWAP4 SWAP3 POP POP POP JUMP JUMPDEST PUSH1 0x0 DUP3 PUSH1 0x1F DUP4 ADD SLT PUSH2 0xFDB JUMPI PUSH2 0xFDA PUSH2 0xDD9 JUMP JUMPDEST JUMPDEST DUP2 CALLDATALOAD PUSH2 0xFEB DUP5 DUP3 PUSH1 0x20 DUP7 ADD PUSH2 0xF3F JUMP JUMPDEST SWAP2 POP POP SWAP3 SWAP2 POP POP JUMP JUMPDEST PUSH1 0x0 DUP1 PUSH1 0x40 DUP4 DUP6 SUB SLT ISZERO PUSH2 0x100B JUMPI PUSH2 0x100A PUSH2 0x9DE JUMP JUMPDEST JUMPDEST PUSH1 0x0 DUP4 ADD CALLDATALOAD PUSH8 0xFFFFFFFFFFFFFFFF DUP2 GT ISZERO PUSH2 0x1029 JUMPI PUSH2 0x1028 PUSH2 0x9E3 JUMP JUMPDEST JUMPDEST PUSH2 0x1035 DUP6 DUP3 DUP7 ADD PUSH2 0xEE0 JUMP JUMPDEST SWAP3 POP POP PUSH1 0x20 DUP4 ADD CALLDATALOAD PUSH8 0xFFFFFFFFFFFFFFFF DUP2 GT ISZERO PUSH2 0x1056 JUMPI PUSH2 0x1055 PUSH2 0x9E3 JUMP JUMPDEST JUMPDEST PUSH2 0x1062 DUP6 DUP3 DUP7 ADD PUSH2 0xFC6 JUMP JUMPDEST SWAP2 POP POP SWAP3 POP SWAP3 SWAP1 POP JUMP JUMPDEST PUSH32 0x456E7175657465206A6120666F6920656E636572726164610000000000000000 PUSH1 0x0 DUP3 ADD MSTORE POP JUMP JUMPDEST PUSH1 0x0 PUSH2 0x10A2 PUSH1 0x18 DUP4 PUSH2 0xA56 JUMP JUMPDEST SWAP2 POP PUSH2 0x10AD DUP3 PUSH2 0x106C JUMP JUMPDEST PUSH1 0x20 DUP3 ADD SWAP1 POP SWAP2 SWAP1 POP JUMP JUMPDEST PUSH1 0x0 PUSH1 0x20 DUP3 ADD SWAP1 POP DUP2 DUP2 SUB PUSH1 0x0 DUP4 ADD MSTORE PUSH2 0x10D1 DUP2 PUSH2 0x1095 JUMP JUMPDEST SWAP1 POP SWAP2 SWAP1 POP JUMP JUMPDEST PUSH32 0x536F6D656E7465206F2063726961646F7220706F646520656E63657272617220 PUSH1 0x0 DUP3 ADD MSTORE PUSH32 0x6120656E71756574650000000000000000000000000000000000000000000000 PUSH1 0x20 DUP3 ADD MSTORE POP JUMP JUMPDEST PUSH1 0x0 PUSH2 0x1134 PUSH1 0x29 DUP4 PUSH2 0xA56 JUMP JUMPDEST SWAP2 POP PUSH2 0x113F DUP3 PUSH2 0x10D8 JUMP JUMPDEST PUSH1 0x40 DUP3 ADD SWAP1 POP SWAP2 SWAP1 POP JUMP JUMPDEST PUSH1 0x0 PUSH1 0x20 DUP3 ADD SWAP1 POP DUP2 DUP2 SUB PUSH1 0x0 DUP4 ADD MSTORE PUSH2 0x1163 DUP2 PUSH2 0x1127 JUMP JUMPDEST SWAP1 POP SWAP2 SWAP1 POP JUMP JUMPDEST PUSH2 0x1173 DUP2 PUSH2 0x9E8 JUMP JUMPDEST DUP3 MSTORE POP POP JUMP JUMPDEST PUSH1 0x0 PUSH1 0x40 DUP3 ADD SWAP1 POP PUSH2 0x118E PUSH1 0x0 DUP4 ADD DUP6 PUSH2 0x116A JUMP JUMPDEST PUSH2 0x119B PUSH1 0x20 DUP4 ADD DUP5 PUSH2 0xD4C JUMP JUMPDEST SWAP4 SWAP3 POP POP POP JUMP JUMPDEST PUSH32 0x4E487B7100000000000000000000000000000000000000000000000000000000 PUSH1 0x0 MSTORE PUSH1 0x32 PUSH1 0x4 MSTORE PUSH1 0x24 PUSH1 0x0 REVERT JUMPDEST PUSH32 0x4E487B7100000000000000000000000000000000000000000000000000000000 PUSH1 0x0 MSTORE PUSH1 0x22 PUSH1 0x4 MSTORE PUSH1 0x24 PUSH1 0x0 REVERT JUMPDEST PUSH1 0x0 PUSH1 0x2 DUP3 DIV SWAP1 POP PUSH1 0x1 DUP3 AND DUP1 PUSH2 0x1218 JUMPI PUSH1 0x7F DUP3 AND SWAP2 POP JUMPDEST PUSH1 0x20 DUP3 LT DUP2 SUB PUSH2 0x122B JUMPI PUSH2 0x122A PUSH2 0x11D1 JUMP JUMPDEST JUMPDEST POP SWAP2 SWAP1 POP JUMP JUMPDEST PUSH32 0x456E7175656E7465206573746120656E63657272616461000000000000000000 PUSH1 0x0 DUP3 ADD MSTORE POP JUMP JUMPDEST PUSH1 0x0 PUSH2 0x1267 PUSH1 0x17 DUP4 PUSH2 0xA56 JUMP JUMPDEST SWAP2 POP PUSH2 0x1272 DUP3 PUSH2 0x1231 JUMP JUMPDEST PUSH1 0x20 DUP3 ADD SWAP1 POP SWAP2 SWAP1 POP JUMP JUMPDEST PUSH1 0x0 PUSH1 0x20 DUP3 ADD SWAP1 POP DUP2 DUP2 SUB PUSH1 0x0 DUP4 ADD MSTORE PUSH2 0x1296 DUP2 PUSH2 0x125A JUMP JUMPDEST SWAP1 POP SWAP2 SWAP1 POP JUMP JUMPDEST PUSH32 0x566F63C3AA206A6120766F746F75000000000000000000000000000000000000 PUSH1 0x0 DUP3 ADD MSTORE POP JUMP JUMPDEST PUSH1 0x0 PUSH2 0x12D3 PUSH1 0xE DUP4 PUSH2 0xA56 JUMP JUMPDEST SWAP2 POP PUSH2 0x12DE DUP3 PUSH2 0x129D JUMP JUMPDEST PUSH1 0x20 DUP3 ADD SWAP1 POP SWAP2 SWAP1 POP JUMP JUMPDEST PUSH1 0x0 PUSH1 0x20 DUP3 ADD SWAP1 POP DUP2 DUP2 SUB PUSH1 0x0 DUP4 ADD MSTORE PUSH2 0x1302 DUP2 PUSH2 0x12C6 JUMP JUMPDEST SWAP1 POP SWAP2 SWAP1 POP JUMP JUMPDEST PUSH32 0x4573636F6C686120696E76616C69646100000000000000000000000000000000 PUSH1 0x0 DUP3 ADD MSTORE POP JUMP JUMPDEST PUSH1 0x0 PUSH2 0x133F PUSH1 0x10 DUP4 PUSH2 0xA56 JUMP JUMPDEST SWAP2 POP PUSH2 0x134A DUP3 PUSH2 0x1309 JUMP JUMPDEST PUSH1 0x20 DUP3 ADD SWAP1 POP SWAP2 SWAP1 POP JUMP JUMPDEST PUSH1 0x0 PUSH1 0x20 DUP3 ADD SWAP1 POP DUP2 DUP2 SUB PUSH1 0x0 DUP4 ADD MSTORE PUSH2 0x136E DUP2 PUSH2 0x1332 JUMP JUMPDEST SWAP1 POP SWAP2 SWAP1 POP JUMP JUMPDEST PUSH32 0x4E487B7100000000000000000000000000000000000000000000000000000000 PUSH1 0x0 MSTORE PUSH1 0x11 PUSH1 0x4 MSTORE PUSH1 0x24 PUSH1 0x0 REVERT JUMPDEST PUSH1 0x0 PUSH2 0x13AF DUP3 PUSH2 0x9E8 JUMP JUMPDEST SWAP2 POP PUSH32 0xFFFFFFFFFFFFFFFFFFFFFFFFFFFFFFFFFFFFFFFFFFFFFFFFFFFFFFFFFFFFFFFF DUP3 SUB PUSH2 0x13E1 JUMPI PUSH2 0x13E0 PUSH2 0x1375 JUMP JUMPDEST JUMPDEST PUSH1 0x1 DUP3 ADD SWAP1 POP SWAP2 SWAP1 POP JUMP JUMPDEST PUSH1 0x0 PUSH1 0x60 DUP3 ADD SWAP1 POP PUSH2 0x1401 PUSH1 0x0 DUP4 ADD DUP7 PUSH2 0x116A JUMP JUMPDEST PUSH2 0x140E PUSH1 0x20 DUP4 ADD DUP6 PUSH2 0x116A JUMP JUMPDEST PUSH2 0x141B PUSH1 0x40 DUP4 ADD DUP5 PUSH2 0xD4C JUMP JUMPDEST SWAP5 SWAP4 POP POP POP POP JUMP JUMPDEST PUSH32 0x446576652D736520696E636C7569722070656C6F206D656E6F732032206F70C3 PUSH1 0x0 DUP3 ADD MSTORE PUSH32 0xA7C3B565732065206E6F206D6178696D6F203130206F70C3B565730000000000 PUSH1 0x20 DUP3 ADD MSTORE POP JUMP JUMPDEST PUSH1 0x0 PUSH2 0x147F PUSH1 0x3B DUP4 PUSH2 0xA56 JUMP JUMPDEST SWAP2 POP PUSH2 0x148A DUP3 PUSH2 0x1423 JUMP JUMPDEST PUSH1 0x40 DUP3 ADD SWAP1 POP SWAP2 SWAP1 POP JUMP JUMPDEST PUSH1 0x0 PUSH1 0x20 DUP3 ADD SWAP1 POP DUP2 DUP2 SUB PUSH1 0x0 DUP4 ADD MSTORE PUSH2 0x14AE DUP2 PUSH2 0x1472 JUMP JUMPDEST SWAP1 POP SWAP2 SWAP1 POP JUMP JUMPDEST PUSH1 0x0 DUP2 SWAP1 POP DUP2 PUSH1 0x0 MSTORE PUSH1 0x20 PUSH1 0x0 KECCAK256 SWAP1 POP SWAP2 SWAP1 POP JUMP JUMPDEST PUSH1 0x0 PUSH1 0x20 PUSH1 0x1F DUP4 ADD DIV SWAP1 POP SWAP2 SWAP1 POP JUMP JUMPDEST PUSH1 0x0 DUP3 DUP3 SHL SWAP1 POP SWAP3 SWAP2 POP POP JUMP JUMPDEST PUSH1 0x0 PUSH1 0x8 DUP4 MUL PUSH2 0x1517 PUSH32 0xFFFFFFFFFFFFFFFFFFFFFFFFFFFFFFFFFFFFFFFFFFFFFFFFFFFFFFFFFFFFFFFF DUP3 PUSH2 0x14DA JUMP JUMPDEST PUSH2 0x1521 DUP7 DUP4 PUSH2 0x14DA JUMP JUMPDEST SWAP6 POP DUP1 NOT DUP5 AND SWAP4 POP DUP1 DUP7 AND DUP5 OR SWAP3 POP POP POP SWAP4 SWAP3 POP POP POP JUMP JUMPDEST PUSH1 0x0 DUP2 SWAP1 POP SWAP2 SWAP1 POP JUMP JUMPDEST PUSH1 0x0 PUSH2 0x155E PUSH2 0x1559 PUSH2 0x1554 DUP5 PUSH2 0x9E8 JUMP JUMPDEST PUSH2 0x1539 JUMP JUMPDEST PUSH2 0x9E8 JUMP JUMPDEST SWAP1 POP SWAP2 SWAP1 POP JUMP JUMPDEST PUSH1 0x0 DUP2 SWAP1 POP SWAP2 SWAP1 POP JUMP JUMPDEST PUSH2 0x1578 DUP4 PUSH2 0x1543 JUMP JUMPDEST PUSH2 0x158C PUSH2 0x1584 DUP3 PUSH2 0x1565 JUMP JUMPDEST DUP5 DUP5 SLOAD PUSH2 0x14E7 JUMP JUMPDEST DUP3 SSTORE POP POP POP POP JUMP JUMPDEST PUSH1 0x0 SWAP1 JUMP JUMPDEST PUSH2 0x15A1 PUSH2 0x1594 JUMP JUMPDEST PUSH2 0x15AC DUP2 DUP5 DUP5 PUSH2 0x156F JUMP JUMPDEST POP POP POP JUMP JUMPDEST JUMPDEST DUP2 DUP2 LT ISZERO PUSH2 0x15D0 JUMPI PUSH2 0x15C5 PUSH1 0x0 DUP3 PUSH2 0x1599 JUMP JUMPDEST PUSH1 0x1 DUP2 ADD SWAP1 POP PUSH2 0x15B2 JUMP JUMPDEST POP POP JUMP JUMPDEST PUSH1 0x1F DUP3 GT ISZERO PUSH2 0x1615 JUMPI PUSH2 0x15E6 DUP2 PUSH2 0x14B5 JUMP JUMPDEST PUSH2 0x15EF DUP5 PUSH2 0x14CA JUMP JUMPDEST DUP2 ADD PUSH1 0x20 DUP6 LT ISZERO PUSH2 0x15FE JUMPI DUP2 SWAP1 POP JUMPDEST PUSH2 0x1612 PUSH2 0x160A DUP6 PUSH2 0x14CA JUMP JUMPDEST DUP4 ADD DUP3 PUSH2 0x15B1 JUMP JUMPDEST POP POP JUMPDEST POP POP POP JUMP JUMPDEST PUSH1 0x0 DUP3 DUP3 SHR SWAP1 POP SWAP3 SWAP2 POP POP JUMP JUMPDEST PUSH1 0x0 PUSH2 0x1638 PUSH1 0x0 NOT DUP5 PUSH1 0x8 MUL PUSH2 0x161A JUMP JUMPDEST NOT DUP1 DUP4 AND SWAP2 POP POP SWAP3 SWAP2 POP POP JUMP JUMPDEST PUSH1 0x0 PUSH2 0x1651 DUP4 DUP4 PUSH2 0x1627 JUMP JUMPDEST SWAP2 POP DUP3 PUSH1 0x2 MUL DUP3 OR SWAP1 POP SWAP3 SWAP2 POP POP JUMP JUMPDEST PUSH2 0x166A DUP3 PUSH2 0xA4B JUMP JUMPDEST PUSH8 0xFFFFFFFFFFFFFFFF DUP2 GT ISZERO PUSH2 0x1683 JUMPI PUSH2 0x1682 PUSH2 0xDE3 JUMP JUMPDEST JUMPDEST PUSH2 0x168D DUP3 SLOAD PUSH2 0x1200 JUMP JUMPDEST PUSH2 0x1698 DUP3 DUP3 DUP6 PUSH2 0x15D4 JUMP JUMPDEST PUSH1 0x0 PUSH1 0x20 SWAP1 POP PUSH1 0x1F DUP4 GT PUSH1 0x1 DUP2 EQ PUSH2 0x16CB JUMPI PUSH1 0x0 DUP5 ISZERO PUSH2 0x16B9 JUMPI DUP3 DUP8 ADD MLOAD SWAP1 POP JUMPDEST PUSH2 0x16C3 DUP6 DUP3 PUSH2 0x1645 JUMP JUMPDEST DUP7 SSTORE POP PUSH2 0x172B JUMP JUMPDEST PUSH1 0x1F NOT DUP5 AND PUSH2 0x16D9 DUP7 PUSH2 0x14B5 JUMP JUMPDEST PUSH1 0x0 JUMPDEST DUP3 DUP2 LT ISZERO PUSH2 0x1701 JUMPI DUP5 DUP10 ADD MLOAD DUP3 SSTORE PUSH1 0x1 DUP3 ADD SWAP2 POP PUSH1 0x20 DUP6 ADD SWAP5 POP PUSH1 0x20 DUP2 ADD SWAP1 POP PUSH2 0x16DC JUMP JUMPDEST DUP7 DUP4 LT ISZERO PUSH2 0x171E JUMPI DUP5 DUP10 ADD MLOAD PUSH2 0x171A PUSH1 0x1F DUP10 AND DUP3 PUSH2 0x1627 JUMP JUMPDEST DUP4 SSTORE POP JUMPDEST PUSH1 0x1 PUSH1 0x2 DUP9 MUL ADD DUP9 SSTORE POP POP POP JUMPDEST POP POP POP POP POP POP JUMP JUMPDEST PUSH1 0x0 PUSH1 0x60 DUP3 ADD SWAP1 POP PUSH2 0x1748 PUSH1 0x0 DUP4 ADD DUP7 PUSH2 0x116A JUMP JUMPDEST DUP2 DUP2 SUB PUSH1 0x20 DUP4 ADD MSTORE PUSH2 0x175A DUP2 DUP6 PUSH2 0xAA2 JUMP JUMPDEST SWAP1 POP PUSH2 0x1769 PUSH1 0x40 DUP4 ADD DUP5 PUSH2 0xD4C JUMP JUMPDEST SWAP5 SWAP4 POP POP POP POP JUMP INVALID LOG2 PUSH5 0x6970667358 0x22 SLT KECCAK256 PUSH29 0x6E384B56B4A3FA609EB78FC73458FF745BA3D1CDBFF4D6C6AB09BCD9D2 GASLIMIT PUSH27 0x64736F6C634300081A003300000000000000000000000000000000 "
				},
				"gasEstimates": {
					"creation": {
						"codeDepositCost": "1211000",
						"executionCost": "1261",
						"totalCost": "1212261"
					},
					"external": {
						"criarEnquete(string,string[])": "infinite",
						"encerrarEnquete(uint256)": "infinite",
						"enquetes(uint256)": "infinite",
						"obterEnquete(uint256)": "infinite",
						"votar(uint256,uint256)": "infinite"
					}
				},
				"methodIdentifiers": {
					"criarEnquete(string,string[])": "c24d551c",
					"encerrarEnquete(uint256)": "12038bdb",
					"enquetes(uint256)": "4eb474f8",
					"obterEnquete(uint256)": "38628855",
					"votar(uint256,uint256)": "4fa5a16f"
				}
			},
			"storageLayout": {
				"storage": [
					{
						"astId": 26,
						"contract": "contracts/5_Enquetes.sol:Enquete",
						"label": "enquetes",
						"offset": 0,
						"slot": "0",
						"type": "t_mapping(t_uint256,t_struct(EnqueteInfo)21_storage)"
					},
					{
						"astId": 28,
						"contract": "contracts/5_Enquetes.sol:Enquete",
						"label": "contadorEnquete",
						"offset": 0,
						"slot": "1",
						"type": "t_uint256"
					}
				],
				"types": {
					"t_address": {
						"encoding": "inplace",
						"label": "address",
						"numberOfBytes": "20"
					},
					"t_array(t_struct(OpcaoVoto)6_storage)dyn_storage": {
						"base": "t_struct(OpcaoVoto)6_storage",
						"encoding": "dynamic_array",
						"label": "struct Enquete.OpcaoVoto[]",
						"numberOfBytes": "32"
					},
					"t_bool": {
						"encoding": "inplace",
						"label": "bool",
						"numberOfBytes": "1"
					},
					"t_mapping(t_address,t_bool)": {
						"encoding": "mapping",
						"key": "t_address",
						"label": "mapping(address => bool)",
						"numberOfBytes": "32",
						"value": "t_bool"
					},
					"t_mapping(t_uint256,t_struct(EnqueteInfo)21_storage)": {
						"encoding": "mapping",
						"key": "t_uint256",
						"label": "mapping(uint256 => struct Enquete.EnqueteInfo)",
						"numberOfBytes": "32",
						"value": "t_struct(EnqueteInfo)21_storage"
					},
					"t_string_storage": {
						"encoding": "bytes",
						"label": "string",
						"numberOfBytes": "32"
					},
					"t_struct(EnqueteInfo)21_storage": {
						"encoding": "inplace",
						"label": "struct Enquete.EnqueteInfo",
						"members": [
							{
								"astId": 8,
								"contract": "contracts/5_Enquetes.sol:Enquete",
								"label": "titulo",
								"offset": 0,
								"slot": "0",
								"type": "t_string_storage"
							},
							{
								"astId": 10,
								"contract": "contracts/5_Enquetes.sol:Enquete",
								"label": "criador",
								"offset": 0,
								"slot": "1",
								"type": "t_address"
							},
							{
								"astId": 12,
								"contract": "contracts/5_Enquetes.sol:Enquete",
								"label": "ativa",
								"offset": 20,
								"slot": "1",
								"type": "t_bool"
							},
							{
								"astId": 16,
								"contract": "contracts/5_Enquetes.sol:Enquete",
								"label": "opcoes",
								"offset": 0,
								"slot": "2",
								"type": "t_array(t_struct(OpcaoVoto)6_storage)dyn_storage"
							},
							{
								"astId": 20,
								"contract": "contracts/5_Enquetes.sol:Enquete",
								"label": "jaVotou",
								"offset": 0,
								"slot": "3",
								"type": "t_mapping(t_address,t_bool)"
							}
						],
						"numberOfBytes": "128"
					},
					"t_struct(OpcaoVoto)6_storage": {
						"encoding": "inplace",
						"label": "struct Enquete.OpcaoVoto",
						"members": [
							{
								"astId": 3,
								"contract": "contracts/5_Enquetes.sol:Enquete",
								"label": "descricao",
								"offset": 0,
								"slot": "0",
								"type": "t_string_storage"
							},
							{
								"astId": 5,
								"contract": "contracts/5_Enquetes.sol:Enquete",
								"label": "quantidade",
								"offset": 0,
								"slot": "1",
								"type": "t_uint256"
							}
						],
						"numberOfBytes": "64"
					},
					"t_uint256": {
						"encoding": "inplace",
						"label": "uint256",
						"numberOfBytes": "32"
					}
				}
			},
			"userdoc": {
				"kind": "user",
				"methods": {},
				"version": 1
			}
		}
	}
}